:020000021000EC
:10000000E03F082095010100FB000100E100010034
:10001000090101001901010029010100000000008F
:10002000000000000000000000000000B15E0100C0
:100030003901010000000000115F010059010100B9
:10004000C1050100C1050100C1050100C105010094
:10005000C1050100C1050100C1050100C105010084
:10006000C1050100C1050100C1050100C105010074
:10007000C1050100C1050100C1050100C105010064
:10008000C1050100C1050100C1050100C105010054
:10009000C1050100C1050100C1050100C105010044
:1000A000C1050100C1050100C1050100C105010034
:1000B000C1050100C1050100C1050100C105010024
:1000C000C1050100C1050100C10501008829020028
:1000D00000C00720FC02000000C30720B00500009C
:1000E00004207146084203D0EFF3098000F08EBA75
:1000F000EFF3088000F08ABA704708B5014804F0B1
:10010000D5FBFEE77EF3010008B5024804F0CEFB04
:10011000FEE700BF89F3010008B5024804F0C6FB02
:10012000FEE700BF94F3010008B5024804F0BEFBEF
:10013000FEE700BF9FF3010008B5024804F0B6FBDC
:10014000FEE700BFACF3010008B5024804F0AEFBC7
:10015000FEE700BFBAF3010008B506F03DFE05F06A
:10016000F9FEBDE8084006F04BBE0B4610B5401A3C
:100170005C1AA24203D9C45843F8044BF8E710BDF7
:100180000346002210B51C1AA14202D943F8042BE1
:10019000F9E710BD154800F0AEFB144800F0AEFBC7
:1001A000134C144DAC4209D3134DAC420ED254F84B
:1001B000080B54F8041CFFF7E3FFF6E794E803008C
:1001C0000C3454F8042CFFF7D0FFEBE708F010FED6
:1001D00000F01CF806F00EFF07F086FA4FF4164008
:1001E00000F034FB054804F061FBFEE7E03F082027
:1001F000CC000100D8000100E0000100CEF30100B6
:10020000014B1878704700BF0CC3072030B585B08C
:1002100005F042FA684605F0E7F9774C009B236049
:10022000019B6360029BA36000F062FA00F0BAFADF
:10023000724BB0FBF3F03C28714B00F29A802928F6
:1002400080F0A180142800F29B803A221A600823D3
:1002500098226C4900200B764B768B7681F8203003
:10026000694B83F8052383F8062383F8072383F873
:100270000823902283F80A2383F80B2383F80C23A6
:10028000702283F80E2383F80F23582283F8122359
:1002900083F8132383F8142383F81523782283F833
:1002A0001923A02283F8002383F8012383F8022373
:1002B00083F8032383F8042383F8092383F80D23A9
:1002C00083F8102383F8112383F8162383F8172368
:1002D00083F8182383F81A2383F81B2383F81C233D
:1002E00083F81E2383F81F2383F8202383F81D231C
:1002F00083F8212383F82223CB6823F4E0631B04D3
:100300001B0C43F0BF6343F40033CB6000F0F9FAF9
:1003100061B662B64FF4164000F098FA3B4804F01C
:10032000E7FC3B4804F0EAFC00233A4C19462068FD
:10033000022280680AF090F900232068304C1946A8
:10034000022240680AF088F904F0F2FCD4F8803107
:10035000314D13F0010F1FD0304800F0BFFA0123D8
:100360002B70D4F8803143F00103C4F8803105B01C
:1003700030BD50280AD964280BD945F23A0265E706
:1003800041F23A0262E742F23A025FE743F23A028E
:100390005CE744F23A0259E7D4F880319B0709D56B
:1003A0001F4800F09BFA02232B70D4F8803143F0F1
:1003B0000203DAE7D4F8803113F0040319D0194BA3
:1003C0009A6C194B9A4208D1052318482B7000F0FB
:1003D00085FA0022134B9A64C9E7042314482B7052
:1003E00000F07CFAD4F8803143F00403C4F8803183
:1003F000EFE72B70BBE700BF00C3072040420F00B0
:1004000000C00F4000ED00E000E100E0C508010081
:10041000AD080100E0C007200CC3072004F2010072
:1004200047F2010000400240EFBEADDE21F20100C4
:100430003EF20100012110B50F4B104C084623601D
:1004400005F00AFC4FF0FF3223689A614FF47A728C
:10045000DA6100221A620A4A5A6240F209225A619B
:100460005A6942F040025A611822064B83F802236F
:1004700004221A6010BD00BF0080004018C307208E
:1004800060E3160000E100E0084B10B51B68084C63
:100490009A682188986889B28242F9D80B4600226E
:1004A00042EA00021046194610BD00BF18C30720DB
:1004B00014C3072010B504468EB006A804F018FB3C
:1004C0000A9B069A05930B9B074904930C9B2046B5
:1004D00003930D9B0293099B0193089B0093079B39
:1004E0000AF0B0F90EB010BD82F2010010B5044C54
:1004F00023681BB9012004F0F7FA2060206810BDC2
:1005000010C3072038B52B4C236825461A6812F013
:10051000100F0ED010221A60FFF7E8FF2368D96A87
:1005200003F0D4FE2268936803F51C531033136262
:1005300038BD540707D504221A60FFF7D7FFBDE87E
:10054000384003F0D1BED00707D501221A601A4AFD
:10055000138801339BB2138038BD910715D5022251
:100560001A6006F09DFB022809D000F03BFD2A68C6
:100570009368D1690B4403F57A73D36138BD2A6857
:10058000536923F008035361F1E712070ED50822DF
:10059000AA211A604FF080421172552111729A6897
:1005A00002F5B71202F558725A6238BD034809F0D5
:1005B0002BFFFEE718C3072014C3072061F20100D8
:1005C00008B506F009FC094B094A1978094B10399E
:1005D000C9B253F82130934203D1074804F075F9AA
:1005E000FEE79847BDE8084006F00ABC04ED00E0CD
:1005F0004901010000C0072047F301000028A4BF03
:10060000014B43F82010704700C00720036888B0F2
:1006100000934368114A019383680293C36803936C
:10062000036904934369059383690693C369079338
:100630000B4B9A64069ADA64059A013A1A65079A8E
:100640005A654FF08043AA221A7200221A70009B4A
:10065000019B029B039B049B08B07047EFBEADDE7D
:1006600000400240AA22034BC3F88C205522C3F855
:100670008C20704700C00F402DE9F04F00240C6023
:1006800014601C6040F2FF14DFF860A04FF4FA55CC
:10069000002604FB055B06F1010CBBFBFCF8124FC6
:1006A000A8F58625A5F50E75BD421AD96646202EF9
:1006B000F1D1013C052CE9D10020BDE8F08FB9F55E
:1006C000807F4D46F2D005F10109B8FBF9FED64511
:1006D000F5D886450C6016601D60F0D10120BDE89C
:1006E000F08F0325EFE700BF38320400A086010039
:1006F00030B500242A4985B0D1F8803004AD23F00C
:10070000020345F8044D01940294C1F88030FFF7CC
:10071000A9FFD1F8803023F00103C1F88030FFF742
:10072000A1FFC1F80C41C1F88440FFF79BFF2B46A5
:10073000C1F8044102AA01A94BF68030FFF79CFFE3
:1007400030B92B4602AA01A945F6C050FFF794FF25
:10075000019B134963F30F04029B63F317440023C7
:10076000C1F80C31C1F88440FFF77CFF0123C1F8C8
:100770008030FFF777FFD1F888305B01FBD5039B12
:10078000C1F804310323C1F88030FFF76BFF044A3E
:10079000D2F8883013F0407FFAD005B030BD00BFEA
:1007A00000C00F40244BD3F88820C2F30162032A13
:1007B000D3F80C2102F003022DD1012A16D0022A0F
:1007C0001ED0D3F888101D48D3F88820D3F8043100
:1007D000C1F30E0101FB0000C2F307420132B0FB7E
:1007E000F2F0DBB20133B0FBF3F07047D3F88810BE
:1007F0001348D3F88820C1F30E01D3F80431E9E798
:10080000D3F88800D3F88820C0F30E000130D3F865
:1008100004310004E0E7D3F80401012AC0B200F17A
:10082000010303D0022A03D00648DCE70648DAE7D2
:100830004FF40040D7E700BF00C00F4000127A001D
:1008400000366E0100093D00001BB70010B50446DC
:10085000FFF7A8FF2401B0FBF4F007F021FC002211
:10086000104B07F0E1FA07F091FC012184B203205C
:1008700000F04AF80121032000F060F80A4B1A68E2
:1008800022F0F0021A601A6842F050021A608022C8
:10089000A3F500331A73220A1A710322E4B21C7002
:1008A0001A7310BD0000E03F00C00240034A136805
:1008B000DB07FCD5024B1878704700BF14C000401E
:1008C00000C00040034B044A187013685B06FCD557
:1008D0000120704700C0004014C0004008B5411E10
:1008E00011F8010F20B90A20BDE80840FFF7EABF60
:1008F000FFF7E8FFF4E780F30988704780F3088882
:10090000704780F31188704738B50D46044605F0EE
:10091000E1FA094A01234DB1D2F8C400A3400343D0
:10092000C2F8C430BDE8384005F0E4BAD2F8C410CB
:10093000A34021EA0303F3E700C00F402DE9F04193
:100940004FEA40080E4605F0C5FA42460320002152
:1009500007F058FA0A4F4246D7E9004524EA000456
:1009600025EA010506F00300002107F04BFA2043B9
:100970002943C7E90001BDE8F04105F0BBBA00BF5B
:10098000A8C10F4030B54FF48035364CE561364C88
:10099000A0602046C468E406FCD48068C0B263B995
:1009A0000B46314C5D1A954209DA13F8015BA560DC
:1009B000E568ED06FCD4A568F4E72B4B22B94FF4AB
:1009C0008032284B9A6130BD072A0C7829DD9C6063
:1009D0004C78083A9C608C789C60CC789C600C7950
:1009E0009C604C799C608C799C60CD7901F1080405
:1009F0009D609D696D07FCD59D680D709D684D706B
:100A00009D688D709D68CD70DD68ED06FCD49D6895
:100A10000D719D684D719D688D719D68CD712146E8
:100A2000CCE7032A14DD9C604C78043A9C608C78F7
:100A30009C60CD780C1D9D60DD68ED06FCD49D6842
:100A40000D709D684D709D688D709D68CD70E6E756
:100A50004D1C9C60013ADC68E406FCD49C680C7078
:100A60002946ABE700C0092000800840002307B5F5
:100A700002A901F8013D012300F01F001A46FFF70B
:100A800081FF9DF8070003B05DF804FB13B502ACCD
:100A900004F8011D00F01F0000230122214640F050
:100AA0002000FFF76FFF02B010BD08B51720FFF759
:100AB000DDFFC0F3001008BD70210720FFF7E6BF7F
:100AC0000A4600230146A020FFF75CBF08B50020BE
:100AD000FFF7CCFFBDE8084000F0FE010020FFF763
:100AE000D5BFFFFF4FF08072014BDA61704700BF46
:100AF00020C0092008B50020FFF7B8FF40F0010131
:100B0000C9B20020FFF7C2FF4FF08072014B9A611B
:100B100008BD00BF20C0092020210720FFF7B6BF75
:100B20000023E1201A461946FFF72CBF37B50446CB
:100B30000D46FFF7F5FF20462946FFF7C1FF4FF0AE
:100B400080720C4CA2610022ADF80620BDF8063080
:100B500001339BB2ADF8063033B94FF08073E361D7
:100B6000FFF7DEFF03B030BDFFF79FFF0028EDD099
:100B7000F3E700BF20C0092008B51720FFF776FF74
:100B8000C04300F0010008BD40210720FFF77EBFF1
:100B900008B50A46012301466120FFF7F3FEC0F3C2
:100BA000420008BD0023E2201A461946FFF7EABEBC
:100BB00070B5064600200D461446FFF757FF66B194
:100BC00000F0BF006DB100F0DF016CB101F0EF018A
:100BD0000020BDE87040FFF759BF40F04000C0B2B0
:100BE000F0E740F02001F0E741F01001F0E710B528
:100BF00004460020FFF73AFF34B900F0F701002067
:100C0000BDE81040FFF742BF012C04D100F0FB010A
:100C100041F00801F3E7022C14BF40F0080140F056
:100C20000C01C9B2EBE708B50020FFF71FFFBDE8D4
:100C3000084040F00201C9B20020FFF727BF08B505
:100C40000020FFF713FFBDE8084000F0FD01002081
:100C5000FFF71CBF40F6DD1398420BD840F6621335
:100C6000B0F5166F38BF1846A0F51661C9B2052059
:100C7000FFF70CBF1846F7E710B504460620FFF74C
:100C8000F5FEFA2C00F0D70106D141F02001062034
:100C9000BDE81040FFF7FABEB4F5FA6F08BF41F0A7
:100CA0000801F4E710B504460620FFF7DFFE032C29
:100CB00028BF032420F0060141EA4401C9B20620FE
:100CC000BDE81040FFF7E2BEB0F57A6F28BF4FF4E1
:100CD0007A60FA2838BFFA20FA23B0FBF3F30F2921
:100CE00028BF0F21013BDBB241EA0311C9B2042046
:100CF000FFF7CCBE1130C0B2162804D8202928BF77
:100D00002021FFF7C3BE7047032806D0042814BF74
:100D1000032102210320FFF7B9BE0121FAE70A46A9
:100D2000002301463020FFF72DBE0A46002301466E
:100D30002A20FFF727BEFFFF73B504460E4615466F
:100D4000FFF730FFFFF7ECFE4FF080722A4BDA61BD
:100D5000FFF775FF002201201146FFF729FFFFF77B
:100D6000ABFE0220FFF743FF3046FFF773FF284634
:100D7000FFF782FF0320FFF795FF03210220FFF713
:100D800085FE00210120FFF781FE03214FF4FA7058
:100D9000FFF79AFF21460020FFF7ACFF0021122049
:100DA000FFF774FE00211320FFF770FE00211420CE
:100DB000FFF76CFE00211520FFF768FE00211620CA
:100DC000FFF764FE0D4B18681B79009005208DF825
:100DD0000430FFF799FF68460521FFF7A0FF0521C2
:100DE0006846FFF7A2FFFFF71EFF4FF4FA6003F01B
:100DF0001FFE02B070BD00BF20C00920F7F3010044
:100E000070B5174E326822B92021032005F02EFA62
:100E10003060144D2A6822B92021012005F026FAFD
:100E20002860114C216821B90322012005F01EFA27
:100E300020604FF4FA6240F6C3112020FFF77CFFD8
:100E4000FFF758FE1620094A012104F0FFFC306824
:100E500028B1286818B12068003018BF012070BD83
:100E600024C307201CC3072020C30720190F01003B
:100E7000037970B503F0C003C02B0CBF0E4B0F4BB2
:100E800001461D68002388B006461A46284605F02C
:100E900007FA044660B9034602466946284605F04B
:100EA00007FB234622463146284605F0F9F9044659
:100EB000204608B070BD00BF1CC3072024C3072014
:100EC00038B504460D4600F0A7FA237883420AD0CD
:100ED000E37843B909F0C8FABD2300F0030000FB32
:100EE000033003F0A5FDFFF7FDFDFFF7EFFDA9B20D
:100EF0002046FFF71BFEFFF70FFEFFF7FBFD05F097
:100F0000CFFE022804D1034B0021186805F09CFA9B
:100F1000012038BD20C30720002307B502A941F8EE
:100F2000043D084B186805F08FFA019B3BB14FF068
:100F30008052054B1A60BFF34F8FBFF36F8F03B022
:100F40005DF804FB20C3072004ED00E038B504463B
:100F50000D46FFF711FE48B1A9B22046FFF718FE73
:100F6000FFF70AFE08B9FFF70FFE012038BD04297C
:100F700038B505460DD1041C18BF0124FFF784FACB
:100F80002CB14FF47A72002307F0EEFB2860204664
:100F900038BD0024F2E7FFFF00B50C4B8DB009937C
:100FA0000B4B0C4A0B930C4B0A930CAB43F8102DD4
:100FB000002204920FCB8DE80F00084B084A012154
:100FC0006A2000F0D7FA0DB05DF804FB010E0100B5
:100FD0004D0F01006F0F0100C10E0100710E0100E5
:100FE000FCF3010008B505F05BFE0F4B02285B69BE
:100FF00012D15A020CD500F0DFFC002300280B4868
:1010000014BF01224FF0FF321946006805F050FA74
:10101000BDE8084000F068BB5B02F9D500F0CCFCED
:101020000028F5D108BD00BF00C0092020C307205B
:10103000242310B54FF6FF7403FB0101884200D151
:1010400010BD43782BB1038C1344A34228BF234621
:1010500003842430F2E7FFFF002337B502A840F8ED
:10106000043D0C4B04215B68984705460A4B019AE6
:101070001C680421141B1A6008482246FFF7D8FF99
:10108000224602210648FFF7D3FF281C18BF012083
:1010900003B030BD28C3072058C407203EC3072033
:1010A000F2C3072008B50B4B197803788B420A4B23
:1010B0000BBF1A889A880132013214BF9A801A80B5
:1010C000064B8170DB6820219847003018BF012053
:1010D00008BD00BF8CC00720CEC3072028C307204F
:1010E0000A4B02781B789A42094B0BBFDA881A899F
:1010F000013201320CBFDA801A810379C3F3C202D4
:10110000073262F3C5030371FFF7CCBF8CC0072021
:10111000CEC30720002210B5064B13F822409100E1
:10112000844201D1581810BD0132042AF5D10020A3
:1011300010BD00BF47C4072070B1C3780133DBB2D4
:10114000FF2BC37008D100230448C118CA780433A8
:101150005208102BCA70F8D1704700BF47C407204F
:101160002422034602FB0101024630B591420FD111
:10117000044600259A4211D01979C1F3C200198C96
:1011800041EA0041A94284BF1C460D462433F1E7E1
:101190001446243212F8235C002DE7D1204630BDDE
:1011A00038B50446C90001F10805FFF755FF1C4B8F
:1011B00022781B789A4224D102211A48FFF7D0FFE7
:1011C0000023024680F8203080F82130234690F832
:1011D000231080F8225021F07F01C5F306250D432E
:1011E00080F8235004F1200153F8044B8B4242F85D
:1011F000044BF9D10C4A0379127862F3C5030371E9
:1012000038BD04210948FFF7ABFFE378002BD7D1A5
:1012100090F82330042543F0800380F82330CFE793
:101220008CC00720F2C3072094C007203EC30720CC
:1012300008B5FFF76FFF0346D8B9FFF76BFF03460A
:10124000B8B90D4AD378D179D07A8B4296BF194676
:10125000131D1346814294BF0846084BD17B084AB0
:10126000814238BF1346002206491A60CA7A013209
:10127000CA72184608BD00BF47C407204FC40720E4
:1012800053C40720CEC307202DE9F0474FF02408B0
:1012900005460C46002708FB0218DFF85C91DFF8D2
:1012A0005CA1A04501D1BDE8F08794F92330002B63
:1012B00029DACDB12B786278934209D16878217808
:1012C000884205D124220021204607F08FFE69E0E4
:1012D000E97849B16978914206D122789A4203D1DE
:1012E000AA79A3799A42EDD094F8232094F8223079
:1012F000218C02F07F0243EA0223994252DB20460E
:10130000FFF7D0FEDEE76378002B4BD0002D32D004
:101310002A7902F0C002C02A2BD1227869788A4249
:1013200002D128789842CDD0E678A878864208D1B4
:10133000994206D129788A4203D1A179AA799142AA
:10134000C0D0A978E278914215D16A789A4212D138
:1013500021782A7891420ED1A179AA7991420AD1B5
:10136000237984F8207067F3C50384F82170237112
:1013700018E0002AE5D194F8231094F82220208C5C
:1013800001F07F0142EA012290420BDB227984F8CE
:101390002070C2F3C201CEB284F8217026B120467B
:1013A000FFF79EFE24347CE702F0C002C02A20D062
:1013B000207899F8002090421BD1E278934218D00F
:1013C000BAB103226379E17062F3071363712046B7
:1013D000FFF786FE23799AF8002062F3C503237194
:1013E0006078FFF797FE00B10760002E7FF46AAFC8
:1013F000D8E70126F4E700BF8CC0072094C007207F
:10140000431EDBB2FD2B9DBF024B18700120002054
:10141000704700BF8CC00720014B1878704700BF91
:101420008CC007202DE9F743044691461E469DF8DF
:1014300028500F46002965D0344B93F80080414571
:1014400060D00F2E5ED800285ED02022002107F049
:10145000CDFDFF2F08BF4FF00009032223796770ED
:1014600069F3871362F30203294A84F80080127833
:1014700084F8028062F3C503264A2371137801338E
:10148000DBB21370A3710BAB0193C5B90125012326
:10149000DFF88480384688F80030FFF73BFE0746C7
:1014A000FFF74AFE002388F8003063791FBB66F31C
:1014B00007136371E770284603B0BDE8F08304F1B9
:1014C0000809019AE0791346526853F8081B00EBAB
:1014D00002085FFA88F8013DB8F1180F0193EDB2E8
:1014E00007D8484407F05DFD84F80780002DE8D157
:1014F000CCE70025CBE7BA7862F3071363717B78FA
:10150000E370D8E70025D6E70546D4E78CC007206E
:1015100094C0072057C407203DC30720012270B59F
:10152000134E0446327020B900250023284633703C
:1015300070BDFFF7B7FD05460028F5D0237903F00D
:10154000C003402B10D0A3F180014A424A41C02B76
:101550000BD1E3784BB16178994206D0617920468E
:101560000909FFF71DFEE0E70246002AF6D1DCE795
:101570003DC3072082B02DE9F0439146421ED2B20E
:101580008DB0FD2A05460E4615939DF8688005D955
:1015900000200DB0BDE8F04302B07047002BF7D03B
:1015A000179F002FF4D0199B002BF1D0189B002B14
:1015B000EED0169B002BEBD00024482200212348BC
:1015C00007F014FD90220021214807F00FFD1022A2
:1015D0000021204807F00AFD1F4B1C605C609C60E6
:1015E0001E4B1C605C609C601D4B1D701D4B1E4D96
:1015F0001E7015AE0FCE0FC53368182221461B484A
:101600002B6007F0F3FC49461722184809F0D9F976
:1016100021462046B8470028BAD0B8F1000F02D1C1
:10162000FFF71AFDB5E706230293114B22460193FB
:101630000123FF21009304A8FFF7F4FE0028A7D0A0
:1016400004A8FFF76BFF0028A2D0E9E7F2C3072048
:101650003EC3072047C407203AC40720CEC3072053
:101660008CC0072046C4072028C30720DAC3072000
:1016700001F4010030B5182B8DB007D81D1CB2FA4B
:1016800082F418BF01256409AC4201D100200EE0AC
:101690000293019200950A469DF84030014604A845
:1016A000FFF7C0FE0028F1D004A8FFF737FF0DB008
:1016B00030BD13B5537914781B09009302460B46CD
:1016C00020460321FFF7D6FF02B010BD00231846C5
:1016D000044A12F8231009B10130C0B20133042BBF
:1016E000F7D1704747C407202DE9F04788B0202282
:1016F0000021684607F07AFCA34B1B7803F0FF0437
:101700002BBBA24F20213B696846984708B90024AB
:1017100011E09F4D6B8801336B80FFF7D7FF9DF879
:101720000420A87202F00703032B13D0994A137800
:1017300043F001031370FFF78FFC04229649204603
:10174000FFF7A2FD022295492046FFF79DFD08B054
:10175000BDE8F087924B9DF802E01E78B64504D1B3
:101760008C4A137843F00203E4E78E4D2146A846E5
:10177000C2F3C2029DF800009DF806C05FFA82F92C
:1017800001EB410313F805A0824523D12B4493F8C4
:1017900001A0E2451ED19D789A70B5EB090518BFEE
:1017A00001254FF001099DF80200FFF741FD9DF86A
:1017B00002200270427000228270FFF7BDFCB9F176
:1017C000000F01D0002DA2D09DF80030B34233D1DC
:1017D0006C46B0E701310429D2D173490B689A7085
:1017E000724A1870934283F801C006D1C1F8008094
:1017F000864505D10025A946D5E703330B60F7E7F9
:101800008642F7D0FFF714FD0546FFF795FC2B78CD
:1018100033B19DF80530AA7803F00F039342E9DC59
:101820009DF800302B709DF802306B709DF80530EC
:10183000C3F30303AB70DDE79DF80180B8F1FF0F40
:101840001BD13B6820216846984720B9514A13783C
:1018500043F0040313709DF8053003F00F02511C90
:1018600061F303038DF80530C3F303139A42BFF607
:101870004EAF6846FFF716FC49E746452ED1B9F151
:10188000000F0CD19DF807304BB13B682021684612
:10189000984720B93F4A137843F0040313709DF82A
:1018A000043003F0C003402B12D19DF807306A4684
:1018B00023B918213E48FFF7FCFE89E70C21344884
:1018C000FFF7F7FE002883D100216A460846F2E7B9
:1018D0009DF80330002B7FF47BAFF5E7354B1F7885
:1018E000002F3FF414AF9DF8055005F00F094FEAA3
:1018F000151AD145BFF60BAF4046FFF70BFC9DF81C
:10190000033009F1010969F303059E428DF8055082
:1019100024D19DF8043003F0C003402B03D0A3F181
:1019200080025742574150B3C02B447820D1A04584
:1019300012D0003418BF01243C4304F00104D0B19C
:1019400043788DF8033085786846FFF7ABFB002CB1
:101950003FF43EAF294607E00024EDE7002B7FF47B
:1019600037AF0028ECD151466846FFF719FC2FE746
:101970003C46E5E73C4600258DF80350E4E7C02BE4
:10198000F8D10446D8E700BF3DC3072028C307208D
:10199000CEC307203CC307203EC30720F2C3072065
:1019A0008CC007203AC4072090C0072043C40720FA
:1019B000DAC3072046C4072000231846094AD11875
:1019C000497809B10130C0B22433902BF7D1064BCE
:1019D0005A780AB10130C0B293F825300BB101300A
:1019E000C0B270473EC30720F2C3072030B504469B
:1019F0000D1F131B0344032B0AD822F003031944C1
:101A000002F00302013B18440A44914205D130BD63
:101A100055F8043F44F8043BEBE711F8013B00F8AC
:101A2000013FF2E70244904200D1704700F8011BE9
:101A3000F9E7024600F10B010020C30143EA50031D
:101A400012F8010B03448A4203F0FF00F5D17047FE
:101A5000036810B5044653B119460A4611F8010B44
:101A60001F2810D93A28F8D1591C8A4202D04FF0C9
:101A7000FF3010BD1B78303BD9B20129F7D80132B5
:101A80001846226010BD002010BDF8B5056B00F1AE
:101A90003407044601232A463946407802F00FF9FC
:101AA000A0B9636AE269EB1A9342207101D3002066
:101AB000F8BDE678012EFAD9E36939461D442A4675
:101AC0000123607802F0FBF8013EF3E70120F8BD46
:101AD00003790BB1FFF7D9BF1846704770B50446BC
:101AE000FFF7F6FF054680BB2378032B25D16379EA
:101AF000012B22D104F1340601464FF40072304626
:101B0000FFF790FF4AF65522A4F832220F4A3146D9
:101B1000626302F1FF5202F500522032C4F818222B
:101B200062696078C4F81C222269C4F82022226A03
:101B30000132226302F0C3F8657100226078114619
:101B400002F0D9F8003018BF012070BD5252614137
:101B5000036B70B58B4205460E4611D0FFF7B8FFF8
:101B6000044610B10124204670BD0123324605F120
:101B70003401687802F087F80028F3D12E63F2E789
:101B80000024F0E7002310B503714FF0FF33036327
:101B90000446FFF7DDFFA0B94AF65523B4F8322218
:101BA0009A4210D1D4F86A30084A23F07F43934216
:101BB0000AD0D4F8860020F07F40801A18BF012098
:101BC00010BD032010BD022010BD00BF46415400CF
:101BD0000023F0B5036085B0074608461546FFF7B9
:101BE00037FF061EC0F2F1807D4B53F82640002CD3
:101BF00000F0ED80E06801F04DFC002800F0E98085
:101C00003C6023786BB1607802F035F8C10708D4E6
:101C1000002D00F0B78010F0040000D00A2005B0BD
:101C2000F0BD0023F0B22370607002F011F8C2071B
:101C300000F1D1800DB14307F0D400212046FFF719
:101C4000A1FF012840F0AC802146002291F8F63136
:101C50000BB1D1F8FA314DF822300132042A01F1EA
:101C60001001F3D100265DF82650002D00F08C8085
:101C700029462046FFF786FF002840F08680B4F80A
:101C80003F30B3F5007F40F08980B4F84A1001B9C5
:101C9000A16D94F84420E161531E012BE2707DD8C0
:101CA00094F84160A670002E78D0731E334275D12F
:101CB000B4F845E01EF00F0FA4F808E06ED1B4F8B8
:101CC000473003B9636DB4F84270002F66D04A43C1
:101CD00007EB1E101044834260D31B1AB3FBF6F3CC
:101CE000002B5BD040F6F576B3425BD94FF6F57624
:101CF000B34294BF0226032602332F442844032E06
:101D0000A36125626762E0624ED1BEF1000F45D14A
:101D1000226E9B00A26203F2FF13B1EB532F3DD35F
:101D20004FF0FF33636123618023032E637122D15F
:101D3000B4F86430012B1ED1691C2046FFF708FF60
:101D4000C8B94AF65523B4F8322260719A4212D1CA
:101D5000626B244B9A420ED103F1FF53D4F8182240
:101D600003F5005320339A4201BFD4F81C3263615B
:101D7000D4F8203223611C4A2670138801339BB2A9
:101D80001380E38000204AE702200136042E7FF40E
:101D90006AAF032821D000283FF471AF0D203EE741
:101DA0000025F6E70126A7E7BEF1000FF6D0022EC8
:101DB00017444FEA43021CBFD21803F00103A76285
:101DC0000CBF134603EB5203A5E70B2027E70C20BB
:101DD00025E70F2023E7032021E701201FE700BFAD
:101DE0005CC407205252614164C4072010B5044608
:101DF000A8B103689BB11A788AB1D98882889142C8
:101E00000DD1D86801F046FB58B12368587801F02D
:101E100032FF10F0010F14BF0320002010BD092075
:101E200010BD0F2010BD50B10F2905D84FF41A4333
:101E300023FA01F1CB0702D4C06801F03EBB704722
:101E400083690239023B99423DBF8378C06A01FB36
:101E50000300002070470129F8B507460C464BD90E
:101E60008369994248D20378022B29D0032B34D0BE
:101E7000012B41D101EB5106416A01EB5621FFF7DD
:101E800067FE10B14FF0FF30F8BD796AC6F3080362
:101E900001363B4401EB5621384693F83450FFF7A6
:101EA00057FE0028EED1C6F308063E4496F83400EB
:101EB000E30745EA00204CBF0009C0F30B00F8BD62
:101EC000416A01EB1421FFF743FE0028DAD16600D6
:101ED00006F4FF763E44B08EF8BD416A01EBD411A2
:101EE000FFF736FE0028CDD1A40004F4FE743C4474
:101EF000606B20F07040F8BD0120F8BD70B504465D
:101F000082680D46012AE18001D1022070BD03687C
:101F100099698A42F9D2BAB91978032901D1996A23
:101F200099B919898D42F0D2986AE2600028ECD004
:101F3000236800EB1510343305F00F0503EB45154E
:101F400020616561002070BD11460A469E78360109
:101F5000B5421146206802D2FFF772FFE5E7FFF7AE
:101F60007AFF431C024607D00128CED923689B691B
:101F70009842CAD2AD1BEBE7012070BD0129F8B52C
:101F800005460C46164660D9836999425DD20378AE
:101F9000022B3AD0032B45D0012B54D101EB510732
:101FA000416A01EB5721FFF7D3FD18BBC7F30803C4
:101FB00014F001042B4417BF93F83420F2B202F05E
:101FC0000F0132011CBF02F0F0020A4383F83420F3
:101FD0000123696A01372B7101EB57212846FFF76E
:101FE000B7FD38B9C7F308072F4434B1C6F3071655
:101FF00087F8346001232B71F8BD97F83430C6F3AD
:10200000032623F00F031E43F2E7416A01EB14217C
:10201000FFF79EFD0028EDD1640004F4FF742C440A
:10202000A686E7E7416A01EBD411FFF791FD00288E
:10203000E0D1A40004F4FE7434342B5903F070434F
:102040001E432E51D6E70220D4E70220F8BDF8B592
:1020500005460F4671B90669E6B183699E4228BFFD
:1020600001263446AB6901349C4216D3012E13D8A5
:10207000002408E0FFF7EFFE0128044635D90130BF
:1020800003D14FF0FF342046F8BDAB699C42FAD330
:102090003E46E6E70126E4E7022421462846FFF70C
:1020A000DAFE30B1411CECD001281ED0B442D9D1A7
:1020B000DEE76FF0704221462846FFF75FFF90B9D8
:1020C00057B96B692C615A1CDDD0013B6B616B7990
:1020D00043F001036B71D6E7224639462846FFF7E5
:1020E0004DFF0028EDD00128CBD00124CBE72DE90E
:1020F000F843C68804460136B3B2894613B90420B2
:10210000BDE8F8830369002BF9D016F00F0807D15A
:10211000C16801330361006859B903899E42EED258
:102120002368E680343303EB481363610020BDE885
:10213000F8838778013F17EA1617F1D1FFF78BFE76
:102140000128054602D80220BDE8F883421C02D1CE
:102150000120BDE8F883206883699D4227D3B9F147
:10216000000FCCD0E168FFF772FF0546002831D0A0
:102170000128E8D0431CEBD02068FFF7A9FC0146FA
:102180000028E5D120684FF400723430FFF74AFC94
:10219000226829461046FFF753FE4FF001091063ED
:1021A000206883789F4209D3036BDF1B0763E560D8
:1021B00029462068FFF744FE2061B1E780F80490CB
:1021C000FFF763FC0028C3D122680137136B01338A
:1021D0001363E5E70720BDE8F883FFFF2DE9F74F1C
:1021E0004FF0FF084FF6FF770646444607843169F3
:1021F0003068FFF7ADFC824600285ED175692B7808
:10220000002B76D0E52B06D0E97A01F03F020907D2
:1022100003D50F2A03D0378447E00F2A54D1D6F8CC
:102220001CB0BBF1000F41D058063CD503F0BF04F1
:10223000F38895F80D8033846B7B434535D195F851
:1022400000A001202AF0400A0AF1FF334FF00D0AE6
:102250004FF000090AFB03FA274B19F80320AA5A8A
:1022600078B3104601F056F9BAF17F0F01901CD8EF
:102270000AF101023BF81A00009201F04BF90199B2
:10228000814212D1009A924609F10109B9F10D0F6C
:10229000E2D12B78590603D510B13BF81A3023B997
:1022A000013CE4B202E0A342C6D0FF240021304644
:1022B000FFF71DFF8246002899D0504603B0BDE8C5
:1022C000F08FBA42E0D0F0E724B92846FFF7B1FB1F
:1022D0004045F2D0B369DA7AD2079CD403F10B00FF
:1022E0009842EAD015F8011B13F8012B9142F7D060
:1022F00091E74FF0040AE0E788F401002DE9F74F79
:102300000B7807462F2B884601D05C2B01D108F1B2
:1023100001080024BC6098F800301F2B00F2908068
:1023200021463846FFF7EAFD7C6103B0BDE8F08F37
:1023300025F8020F464693E02028A04434BF042429
:1023400000240BEB4602002E00F0A98032F8021D9B
:10235000202902D02E2940F0A680013EF3E701316A
:102360003BF81120202AFAD02E2AF8D009B144F0E7
:1023700003044A4632F8020D2E2801D0013EF9D15D
:102380004FF0000A4FF0080955463BF811004A1C6F
:10239000002800F09F80202804D02E2806D1B242C9
:1023A00000F08D8044F003041146EEE7CA4580F04A
:1023B0008980B24211D1B9F10B0F06D186E0B24249
:1023C00003D044F0030400F28580AD00EDB2324644
:1023D0004FF00B094FF0080AE6E77F280DD90021DE
:1023E000019201F079F8019A18B15D4B184410F888
:1023F000800C80B244F0020438B15A4B13F8011F2C
:10240000002900F09F808142F8D15F2044F003044E
:10241000B96901F80A000AF1010AC5E745F00205A9
:10242000F6E75A0781D47A69D37ADB0639D5396859
:10243000538B0978032904BF928A43EA0243BB60A5
:1024400098F8003044462F2B08F10108F8D05C2B97
:10245000F6D00026D7F81CB004F1FF39ABF1020525
:1024600019F8010F06F101081F287FF665AF2F2824
:102470003FF462AF5C283FF45FAFB8F1810F0ED03C
:10248000012101F029F850B17F283FF651AF3649BC
:1024900011F8012F002A3FF44BAF8242F8D10620F9
:1024A00043E7052041E7002520212BF816500B2299
:1024B000B869FFF7B7FA0BEB4609294650E7CA455A
:1024C000FFF479AFB9F10B0F7FF479AF4FF00B093F
:1024D00044F00304BB691A78E52A04BF05221A7088
:1024E000B9F1080F04BFAD00EDB205F00C030C2BE1
:1024F00003D005F00302032A01D144F00204A1072E
:1025000009D405F00305012D08BF44F01004042B85
:1025100008BF44F00804BB690021DC723846FFF7AD
:10252000EDFC10B93846FFF759FEBB69DB7A00288D
:102530003FF477AF04287FF4F8AE13F0040F08BF20
:102540000520F2E6A0F1410119297FF667AFA0F15D
:10255000610119299EBF203845F0010580B257E777
:1025600008F40100E8F40100DFF401000C222DE979
:10257000F043866987B0C769044631460DEB020017
:10258000FFF734FA9DF81730DB0779D500234FF0B9
:102590000109DFF80882F372E3610B2203A93046D8
:1025A000FFF724FAB9F1050F4FD84B46072203F085
:1025B0000F0000F13001392988BF00F13701013ADD
:1025C00001A810441B094170F1D17E2006A91144D5
:1025D00001F8140C9A423DD0F15C202938D13344E3
:1025E000072A8FBF202106A9891811F8141C98BF4B
:1025F000013203F8011B991B0729F1D9002120465C
:10260000FFF77CFC0546A8BB2046FFF7E7FD054623
:1026100080BB09F10109B9F1640FBED10725284635
:1026200007B0BDE8F083102102F0010505EB43037C
:10263000DD0348BF83EA080301394FEA5202F3D1B0
:1026400030F8022F002AEED1B0E7B81E4B46F7E76C
:102650000133BFE71346C2E7013616E001261CE04E
:10266000074601212046FFF742FD0546E8B1042D4B
:10267000D4D0D4E7042DD2D19DF81730F372E7619E
:102680009DF817309B07E9D5002637F81630002B48
:10269000E2D10D231936B6FBF3F600212046FFF7F1
:1026A0002DFC05460028E2D1074621692068FFF786
:1026B0004FFA05460028DAD163691B78E52B01D073
:1026C000002BCDD10137BE42CBD1013E49D0E188AC
:1026D0002046891BFFF712FC054600289FD1A06900
:1026E000FFF7A7F94FF6FF790746DFF8B4802169B5
:1026F0002068FFF72DFA0546002890D10F22636964
:10270000D4F81CE0DA720D22F1B24D1E6A43054680
:102710005F7318735883484518BF3EF8120015F8C8
:1027200008C005F1010518BF013223F80C0000288C
:1027300008BF48460D2DEED1484502D03EF8122084
:102740000AB941F0400101221970236800211A7171
:102750002046FFF7CCFC054600287FF460AF013E21
:10276000C5D121692068FFF7F3F9054600287FF4F9
:1027700056AF202229466069FFF754F90B22A16960
:102780006069FFF733F9A3696269DB7A03F0180324
:102790001373012223681A7141E700BF2110010061
:1027A00088F40100012970B504460D4601D80220C5
:1027B00070BD83699942FAD2A3699D4205D2294628
:1027C0002046FFF748FB064608B9002070BD0128E7
:1027D000EDD0411C10D0002229462046FFF7CEFB49
:1027E00058B963695A1C05D001336361637943F0BA
:1027F000010363713546DFE7012070BDF0B585B098
:10280000019004A840F8041D00911646FFF720F936
:10281000051E2ADB174F57F825404CB1E06800F041
:1028200037FE18B90224204605B0F0BD00232370FE
:10283000019989B9019C47F82540002CF3D0012E5D
:1028400015D16946002201A8FFF7C2F904460146E6
:102850000198FFF7E8FAE6E70023E8B201F80C3B3D
:1028600000F00CFE0028DDD0E4E70B24DBE70024B9
:10287000D9E700BF5CC407202DE9F043D1B0019136
:1028800090460646002800F08C80002302F01E02CD
:10289000036001A906A8FFF79BF90546002874D13B
:1028A00003AB0C9301990FAB06A80D93FFF726FD20
:1028B0000B9C10B9002C08BF062018F01C0F08F064
:1028C0001F073DD098B3042802D106A8FFF74EFE9B
:1028D00047F0080748BB0B9C38073BD501F080FC4C
:1028E0000023C4F80E000698E372E3610278B4F89E
:1028F0001A80032A08BFA28A6383A3824FF00103D0
:1029000008BF48EA02480371B8F1000F22D04146DF
:10291000D0F83090FFF746FF38B9069808F1FF333A
:1029200003614946FFF714F9A0B105462DE0E37AAB
:1029300013F0110F33D118F0040FCDD0082524E087
:102940000028F2D1E37AD90627D418F0020F01D07B
:10295000DA0724D43B07069B48BF47F020071A6BD1
:10296000B771F26100223462F2711978628B032927
:1029700004BFA18A42EA01423261E2693360F26037
:102980000022DB88B260B261B38029460698FFF767
:102990004AFA284651B0BDE8F0830425F5E707253B
:1029A000F3E70925F5E72DE9F74F9B460023CBF820
:1029B0000030044689461646FFF718FA054610B15E
:1029C000294620684AE0E17939B12068FFF72BFAFF
:1029D000E579284603B0BDE8F08FA379D80705D480
:1029E00007212068FFF71FFA0725F2E7E368A768C9
:1029F000DF1BB74228BF374604F1240300930FB909
:102A00003946DEE7A268C2F30803002B74D12068C0
:102A10008378013B03EA522313F0FF0311D12AB953
:102A20002069012808D80225E571C9E76169019389
:102A3000FFF711FA019BF4E7411C01D10125F3E7EF
:102A40006061D4F800A0616950460193FFF7F8F97E
:102A5000019B30B9022550462946E571FFF7E3F99D
:102A6000B7E77E0A00EB030829D09AF802209919EB
:102A7000914288BFD61AF3B2424649469AF80100FD
:102A800001F001F90028D9D1A3795A060BD5A06924
:102A9000A0EB0800864206D94FF40072009909EBBA
:102AA0004020FEF7A3FF7602A368B1443344A3603D
:102AB000DBF80030BF1B3344CBF800309FE7A2693E
:102AC000904517D0A3795B060BD5012300999AF89E
:102AD000010001F0F4F80028B0D1A37923F04003FD
:102AE000A3712068012342460099407801F0CBF899
:102AF0000028A3D1C4F81880A1684846C1F3080192
:102B0000C1F50076BE4228BF3E46243132462144FC
:102B1000FEF76CFFC8E72DE9F74F9B460023CBF883
:102B20000030044689469046FFF760F9054610B12B
:102B30002946206868E0E17939B12068FFF773F928
:102B4000E579284603B0BDE8F08FA379990705D44D
:102B500007212068FFF767F90725F2E7A36813EB61
:102B6000080F05D204F124030193B8F1000F0AD134
:102B7000A368E268934200F2A280A379002143F0A7
:102B80002003A371D5E7A268C2F30803002B40F02D
:102B9000838020688378013B03EA522313F0FF030C
:102BA000009316D15AB9216921B9FFF750FA0146AD
:102BB0000028DDD0012904D10225E571B8E761695B
:102BC000F3E74A1C01D10125F7E72369616103B9E5
:102BD0002161A3795B060CD520680123A2690199C4
:102BE000407801F06CF80028EDD1A37923F0400380
:102BF000A371D4F800A061695046FFF721F930B9FC
:102C0000022550462946E571FFF70DF999E7009B2B
:102C10005FEA582600EB03072DD0009A9AF802309D
:102C200032449A4288BF009A494688BF9E1AF3B23E
:102C30003A469AF8010001F042F80028C3D1A16990
:102C4000C91B8E420AD94FF4007209EB4121019849
:102C5000FEF7CCFEA37923F04003A3717602A368AC
:102C6000B1443344A360DBF80030A8EB06083344DA
:102C7000CBF8003079E7A3699F420CD0A268E368E3
:102C80009A4208D201233A4601999AF8010000F0CD
:102C9000FAFF002897D1A761A0684946C0F3080051
:102CA000C0F50076464528BF4646243032462044CB
:102CB000FEF79CFEA37943F04003A371CFE7E360E6
:102CC0005BE770B50446FFF791F80546002838D158
:102CD000A3799A0635D55B0613D520680123A2692E
:102CE00004F12401407800F0EAFF30B101212068AE
:102CF000FFF799F80125284670BDA37923F040031A
:102D0000A371E1692068FEF723FF0546C8B9266A6A
:102D1000F37A43F02003F372E368F361236973836A
:102D20001B0CB38201F05CFA7582C6F81600A37919
:102D3000206823F02003A37101230371FEF7CEFE68
:102D4000054629462068FFF76EF8D4E738B50546F2
:102D5000FFF7B7FF044648B92846FFF747F804468F
:102D600020B9286821462C60FFF75DF8204638BD61
:102D7000F8B504460E46FFF739F8054610B1294666
:102D800020686AE0E17929B12068FFF74CF8E5791D
:102D90002846F8BDE368B34204D2A27912F0020FCC
:102DA00008BF1E460022A368A260002E30D1A3688F
:102DB000E2680021934281BFE360A37943F02003DE
:102DC000A371DDE70026A368C3F30803002BEED050
:102DD000A2699642EBD0A37904F1240713F0400FC7
:102DE0000BD0206801233946407800F068FF0028A6
:102DF00042D1A37923F04003A37120680123324616
:102E00003946407800F03FFF002835D1A661CEE773
:102E1000206887787F021BB3013B721EB2FBF7F27A
:102E2000B3FBF7F18A421BD37A4213406169A36076
:102E3000F61A0029C6D0BE4223D8A3683344A36043
:102E4000C6F30803002BBDD022681046FEF7F8FF3A
:102E500090BB022510462946E571FEF7E4FF97E78F
:102E6000216961B9FFF7F3F80128014602D1022573
:102E7000E57184E7013001D10125F9E72161616144
:102E8000D7E7A37920689A0705D5FFF7E0F8014650
:102E900020B93E46D1E7FEF7DEFF01464B1CEBD0E2
:102EA0000129E4D923689B699942E0D2A368616152
:102EB0003B44A360F61BBEE700EB562683E72DE9F3
:102EC000F347144602AB43F8040D8846204600221F
:102ED0001946FEF77DFE2468054630B9A769636987
:102EE000BA1E934209D8C8F8003020462946FEF79A
:102EF0009AFF284602B0BDE8F08794F80090B9F137
:102F0000010F17D10227064639462046FEF7A3FFD8
:102F1000431C32D0012832D000B90136A3690137F1
:102F20009F42F1D36379666143F001036371C8F88E
:102F30000060DAE7034602460646616A52B9204657
:102F400001F1010AFEF704FED8B951464FF40072B0
:102F500004F13403B9F1020F07D1188800B9013622
:102F60000233023A013FE9D1DCE71868043A30F055
:102F7000704008BF01360433F4E70125D2E702258B
:102F8000D0E70546CEE7FFFF2DE9F04F89B008AB4B
:102F900043F80C0D18460E461546FEF759FD00285D
:102FA000C0F2F781012E00F2F6816B1E2B400293D6
:102FB00040F0F181504B53F82040002C00F0ED819F
:102FC0009DF80830C7B22370384600F041FEC207B2
:102FD00000F1E581430700F1E48107AA01213846A9
:102FE00000F089FE18B1012009B0BDE8F08F079903
:102FF0007F29F8D9002E14BF4FF0000A4FF03F0A86
:10300000A1EB0A0107915DB94FF4FA63B1FBF3F349
:103010003A4830F81520934218D3394B33F81550FD
:103020006D0A15D0802D28BF8025B1FBF5F340F641
:10303000F572934240F2F8814FF6F572934200F236
:10304000B28102335B004FF00208F4E10135E0E7A2
:103050000125EAE706AA0321384600F04CFE20B914
:10306000069B013BB3F5004F01D301230693069A5B
:10307000B8F1030F02F1FF334B44C2F1000203EA3F
:103080000203A3EB0903069322D1019A9B441A443D
:103090000192079A0099A2EB0B035B1A0399B8F10E
:1030A000020FA3EB0103B3FBF5F3049314D140F635
:1030B000F5730499994240F2D581B2F5803F34BF4F
:1030C0004FF004094FF006094EB34FF0F0095DE0F0
:1030D000009A1A440092DCE7B8F1030F12D14FF6C0
:1030E000F573049A9A4240F2BD81002E40F0678148
:1030F0004FF00C0913E000BF5CC40720F0F401009E
:1031000096F40100B8F1010FD7D1B2F5803F34BF7A
:103110004FF001094FF00609002E40F06B8104F1D9
:1031200034064FF4007200213046FEF77BFCFE218E
:1031300043F6C160DDF81CE084F8F7110AEB0E01DC
:10314000B1FBF0F18808069184F8F9113F210123C1
:103150000022C4F8FA114AF6552140F03F0084F8E5
:10316000F801A4F8321284F8F33184F8F43184F8C9
:10317000F52184F8F691C4F8FEE13146384600F0B6
:103180009EFD00287FF42FAF4FF0F80904F13406BC
:103190004FF4007200213046FEF744FC0B22B24986
:1031A0003046FEF723FC4FF40073A4F83F300123B0
:1031B000B8F1030F84F84430029B18BF4FF400733A
:1031C00084F84150A4F842B00293BDF8083084F866
:1031D0004990A4F84530079BC4F850A0B3F5803F50
:1031E00034BFA4F8473063653F23A4F84C30FF2375
:1031F000A4F84E3000F0F4FFB8F1030F069040F051
:103200009C80009B1322A365022323660123A4F85C
:1032100064300623A4F86630802384F874302923B0
:103220009249C4F8770084F8763004F17B00FEF709
:10323000DDFB4AF655235246A4F8323231460123CB
:10324000384600F03CFD00287FF4CDAEB8F1030F06
:1032500006D101230AF106023146384600F02FFD5F
:103260004FF4007200213046FEF7DCFBB8F1030F8B
:1032700074D0B8F1010F7E4B18BF6FF0FF0343EA23
:10328000090306936363019B314603F10109019A27
:103290000123384600F013FD014600287FF4A3AE59
:1032A0004FF400723046FEF7BDFB01230693069BE8
:1032B000009A9A425DD8039B4A46B8F1030F18BFA3
:1032C0001D464D4401233146384602F1010B00F002
:1032D000F6FC00287FF487AEAB455A46F2D1B8F130
:1032E000030F21D1634B3146636303F1FF5303F5B1
:1032F00000532033C4F81832049B3846013BC4F80D
:103300001C320223C4F820324AF65523A4F8323284
:1033100001230AEB030200F0D2FC01230AF10702A9
:103320003146384600F0CBFC00223846114600F00A
:10333000E2FC003018BF012056E6BDF80030C4F8AA
:103340005B00A4F84A30802384F8583029231322E4
:1033500084F85A30484904F15F0068E769F0FF03D8
:10336000069363634FF0FF33A3636FF07043E3632F
:1033700089E701234A463146384609F1010B00F03E
:103380009EFC00287FF42FAE069BD946013306939E
:103390008DE70B2028E6132026E60C2024E60320E8
:1033A00022E60A2020E69B0003F207235B0A009333
:1033B00000234FF0030803934FF0200B43E004F188
:1033C00034064FF4007200213046FEF72BFB0B222F
:1033D00025493046FEF70AFB4FF40073A4F83F304E
:1033E000012384F84150A4F842B084F844304FF0EF
:1033F000F009EAE604F134064FF400720021304689
:10340000FEF710FB0B2218493046FEF7EFFA4FF497
:10341000007384F84150A4F83F30A4F842B084F817
:1034200044804FF0F009CFE64FF0010803EB43036F
:1034300001335B08033303F2FF135B0A009320237D
:103440004FF0010B03930BEB0A030193039A009BCC
:1034500003EB0209019B9944A5EB0A034B449942F3
:10346000BFF4F8AD0E20BFE5ACF40100B8F40100E4
:1034700000FFFF0052526141CCF4010010B5012061
:103480000C4602F08FFF2060003018BF012010BDF5
:103490000120704710B5044603F002FC02280AD14F
:1034A00000234FF0FF321946204603F001F8431E77
:1034B0005842584110BD012010BD10B5044603F01C
:1034C000EFFB022807D100232046BDE810401A4632
:1034D000194602F0E5BE10BD7F2810B516D931B1EE
:1034E000FF2812D80A4B803833F8100010BD084A64
:1034F00032F811408BB2844203D001318029F7D1D8
:103500000B4603F18000C0B210BD002010BD00BF0B
:1035100006F501000023064931F8132022B182424A
:1035200003D1044A32F8130070470133F4E700BFB7
:1035300006F60100E6F7010008B5FCF7A5FF4FF419
:103540007A72002305F010F908BDFFFF10B504469C
:10355000FDF728F9074BB0FBF3F00223B0FBF3F2C1
:10356000944202D3044A136110BDB3F5807FF9D0B1
:103570000233F3E740420F0000000340034B986022
:10358000DA68D206FCD49868C0B2704700000340E5
:1035900070B5FFF7D1FF00F5FA74FF20FFF7EEFFDB
:1035A0000025FF20FFF7EAFFFF28064605D0FFF7BA
:1035B000C3FFA94208BFA042F3D3304670BDFFFF4E
:1035C00038B54FF00075054CE561FFF7E1FF044A9F
:1035D000A561137843F00103137038BD20C00920A2
:1035E00095C007202DE9704306460D46FFF7A4FF5E
:1035F000643080464FF00009FF20FFF7BFFFFF282F
:1036000008D1FFF799FF494508BF4045F4D3002092
:10361000BDE87083FE28FAD1102D0ED900224FF498
:103620000071304602F07EFAFF20FFF7A7FFFF206F
:10363000FFF7A4FF0120BDE87083341D0435FF208F
:10364000FFF79CFF04F8040CFF20FFF797FF04F836
:10365000030CFF20FFF792FF04F8020CFF20FFF796
:103660008DFF043404F8050C2B1BDE42E7D1DBE7A9
:1036700070B506460D46FFF78BFFFF28044619D1AB
:103680002846FFF77BFFFD2D16D022464FF4007130
:10369000304602F047FA2046FFF770FF2046FFF75A
:1036A0006DFF2046FFF76AFF00F01F00431F5842DE
:1036B000584170BD002070BD012070BD020638B5B4
:1036C00004460D4607D500217720FFF7F7FF0128B4
:1036D00036D804F07F044FF000721A4B9A61DA6119
:1036E000FFF756FFFF282AD12046FFF747FF280E95
:1036F000FFF744FFC5F30740FFF740FFC5F307207E
:10370000FFF73CFFE8B2FFF739FF402C15D0482CFB
:1037100014BF01208720FFF731FF4C2C02D1FF207E
:10372000FFF72CFF0A21FF20FFF728FF030607D52C
:10373000013911F0FF01F6D138BD9520EBE7FF20EC
:1037400038BD00BF20C00920064A074913784969DF
:10375000DBB2490154BF03F0FD0343F003031370D0
:10376000704700BF95C0072020C009202DE9F7430E
:10377000FFF7EAFF554B1A781E4612F0020F04D0ED
:103780001878C0B203B0BDE8F0830120FFF7DEFE79
:103790000A24FF20013CFFF7F1FE14F0FF04F8D1EA
:1037A0004FF000734A4F2146FB614020FFF786FF30
:1037B0000128804613D04FF00008464B83F8008064
:1037C0004FF00073BB61B8F1000F7BD03378182045
:1037D00003F0FE033370FFF7B9FE3078D1E7FFF74F
:1037E000ABFE4FF4D57100F57A754820FFF766FF00
:1037F000012840D10DF10408FF20FFF7BFFE08F8B3
:1038000004000134042CF7D19DF80630012BD2D1ED
:103810009DF80730AA2BCED12C460025FFF78CFE51
:10382000A94208BFA0421ED3FFF786FEA94208BFE7
:10383000A042C0D200217A20FFF740FF0028BAD171
:103840000146FF20FFF79AFE08F801000131042924
:10385000F7D19DF8043013F0400F14BF4FF00C085F
:103860004FF00408A9E74FF08041E920FFF726FF59
:103870000028D3D1D8E72146E920FFF71FFF02280F
:103880002C4636BF4FF0E9094FF041094FF00208CE
:103890000025FFF751FEA94208BFA0420BD3FFF756
:1038A0004BFEA94208BFA04287D34FF400715020BD
:1038B000FFF704FF81E700214846FFF7FFFE0028DD
:1038C000E7D1ECE7FFF77CFE87E700BF95C0072054
:1038D00020C0092066C4072008B5FFF735FF014B5B
:1038E000187808BD95C0072070B5144606460846EE
:1038F000FFF72AFF002C38D01E4B1B78DA0736D48E
:103900004FF000721C4DEA611C4A1278130758BF31
:103910004002012C014612D15120FFF7CFFE38B9E9
:103920004FF400713046FFF75DFEB0FA80F4640991
:103930004FF00073201CAB6118BF012070BD5220F6
:10394000FFF7BCFE0028F3D14FF400713046FFF7BB
:1039500049FE28B1013C14F0FF0406F50076F3D1CE
:1039600000214C20FFF7AAFEE2E7042070BD0320EF
:1039700070BD00BF95C0072020C0092066C4072085
:10398000F8B5144606460F46FFF7DEFE002C44D07D
:10399000254B1A78D10742D41B785A0741D44FF0EF
:1039A0000072224DEA61224A1278130758BF7F0243
:1039B000012C12D139465820FFF780FE58BBFE215A
:1039C0003046FFF755FEB0FA80F464094FF00073FB
:1039D000201CAB6118BF0120F8BD12F0060F03D008
:1039E0002146D720FFF76AFE39465920FFF766FEC9
:1039F0000028EBD1FC213046FFF73AFE28B1013C0C
:103A000014F0FF0406F50076F4D1FD210020FFF745
:103A10002FFE0028DAD10124D8E70420F8BD0320C6
:103A2000F8BD0220F8BD00BF95C0072020C00920C6
:103A300066C407207FB50D46FFF786FE05281AD11C
:103A40002B78012B15D005D3022B0BD00424204654
:103A500004B070BD7B4B5C6914F0806409D1FFF742
:103A6000AFFDF4E7774B5B6983F08063C3F380635A
:103A70006B700024EBE7744B1B78DB0700F1E080F0
:103A80000E2800F2DB80DFE800F00817555AD9D97C
:103A9000D9D9D9D9A7ABBABDCD004FF00072694BC7
:103AA000DA61FFF775FDB0F1FF0418BF01244FF094
:103AB0000072644B9A61CAE700214920FFF7FEFDBE
:103AC000044608B10124F2E710216846FFF78AFD99
:103AD0000028F7D09DF800309DF808109B09012BB5
:103AE0009DF8093006D15A1C02EB012292B29202D3
:103AF0002A60DCE79DF807209DF80A00920002EB9F
:103B000091129DF806100132890201F440610A44C5
:103B10009DF805105B0001F00F0101EBD01102319F
:103B200003F006030B44DBB292B2093B02FA03F343
:103B30002B60BCE74FF400732B800024B7E7434EA3
:103B4000317811F004011CD00021CD20FFF7B6FD23
:103B50000028B7D1FF20FFF711FD10216846FFF7BD
:103B600041FD0028AED03024FF20FFF707FD601E86
:103B700010F0FF04F8D19DF80A301A091023934081
:103B8000D6E74920FFF79AFD044600289AD1102174
:103B90006846FFF727FD002894D030789DF80A305A
:103BA00010F002009DF80B100AD05B009DF80D206C
:103BB00003F07E0303EBD11392090133013ADEE7F0
:103BC000CA0002F01802C3F3840302EB511201335E
:103BD00002FB03332B60B0E71C4B1B782B70ACE768
:103BE00000214920FFF76AFD00287FF46BAF102108
:103BF0002846FFF7F7FCB0FA80F4640957E7002184
:103C00004A20EFE700217A20FFF758FD00287FF4D3
:103C100059AF291DFF20FFF7B1FC05F8010B8D42BC
:103C2000F8D18AE70021CD20FFF748FD00287FF476
:103C300049AFFF20FFF7A2FC4021D9E7042436E773
:103C4000032404E720C0092095C0072066C407208C
:103C500010B5044601F0C6FF1CB1012C08D00424A5
:103C600002E000F057F9044601F0D4FF204610BDF1
:103C7000FFF77CFDF7E728B1012801D00420704749
:103C8000FFF72ABE7047F8B507460C4615461E4694
:103C900001F0A8FF1FB1012F0BD0042405E032462C
:103CA0002946204600F082F9044601F0B3FF204681
:103CB000F8BD324629462046FFF716FEF4E7F8B570
:103CC00007460C4615461E4601F08CFF1FB1012F1A
:103CD0000BD0042405E032462946204600F08EF938
:103CE000044601F097FF2046F8BD3246294620469B
:103CF000FFF746FEF4E770B506460C46154601F0A0
:103D000071FF1EB1012E0AD0042404E0294620468A
:103D100000F09AF9044601F07DFF204670BD294667
:103D20002046FFF787FEF5E7054B1B78253BDBB206
:103D3000032B9ABF034A52F823000020704700BFAC
:103D40006CC40720D0F901001B4B2DE9F0411D8800
:103D50000646B5F5007F0F46144603D12A46214694
:103D600038460BE0B5F5807F0CD12A46214638460F
:103D7000B0472A4604F5807107F580703346BDE8E8
:103D8000F0411847B5F5047F04D1510A89024FF478
:103D90000072E5E7B5F5847F0BD1140A61024FF498
:103DA00080723846B0474FF4807201346102B8180F
:103DB000E4E7BDE8F08100BF6EC4072010B5294BD1
:103DC00000294DDD0729027829DD9A6042780839FB
:103DD0009A6082789A60C2789A6002799A60427991
:103DE0009A6082799A60C47900F108029C609C69AB
:103DF0006407FCD59C6804709C6844709C6884705F
:103E00009C68C470DC68E406FCD49C6804719C68FF
:103E100044719C6884719C68C4711046D0E7032982
:103E200014DD9A60427804399A6082789A60C47886
:103E3000021D9C60DC68E406FCD49C6804709C68ED
:103E400044709C6884709C68C470E6E7441C9A6067
:103E50000139DA68D206FCD49A6802702046AFE7CE
:103E600010BD00BF0000034007B50B0C8DF80530F6
:103E70008DF807100B0A04218DF804000DEB0100EA
:103E80008DF80630FFF79AFF03B05DF804FBFFFFE3
:103E9000F7B5032340250E4C1746E5618DF8043035
:103EA0000B0C8DF805308DF807100B0A042106461F
:103EB0000DEB01008DF80630FFF780FF0022394638
:103EC000304601F02FFEA561A561A56103B0F0BDEC
:103ED00000C0092040220D4BDA61D7220C4B9A60BA
:103EE000DA68D206FCD40A4A9B68FF211346916027
:103EF000D868C006FCD4986810F0800FF7D0402234
:103F0000024BC0B29A619A619A61704700C0092061
:103F100000000340F7B5FFF7DDFF002340271E4CEC
:103F20001E4E23801E4BF7611A889B78054603219D
:103F300001A8ADF804208DF80630FFF73FFF9DF88B
:103F400005209DF806301F2AB761B761B76115D10A
:103F5000A3F12502032A11D8124A252B137005F06C
:103F6000010011D1002814BF4FF480734FF4847303
:103F70002380FFF7D9FE0C4B400A18602088B0FA66
:103F800080F0400903B0F0BD002814BF4FF4007367
:103F90004FF40473ECE700BF6EC4072000C0092093
:103FA000C6F901006CC4072068C407202DE9F04160
:103FB0008B1817460F4A013B12680446934212D8E9
:103FC0004D020026FFF786FFDFF82C802D1BBE4236
:103FD00004EB05020ADA21464046FFF7B5FE04F578
:103FE00000740136F3E70120BDE8F0810020BDE850
:103FF000F08100BF68C40720913E01008B182DE9B5
:10400000F04117460E4A013B1268934211D804460C
:104010000026DFF83080C0EB4125BE4204EB0502EC
:104020000ADA21464046FFF78FFE04F50074013698
:10403000F3E70120BDE8F0810020BDE8F08100BF7A
:1040400068C407202941010008B5072805D8DFE822
:1040500000F0060A0F1308080808042008BDFFF73F
:1040600039FF002008BDFFF75FFE400A0860F8E74F
:104070004FF400730B80F4E701230B60F1E7FFFFBF
:1040800070B590B003466A466E4600F1400514468E
:1040900018685968083303C4AB422246F7D140245C
:1040A000074D0021EC619B20FFF7DEFE21463046E4
:1040B000FFF784FEAC61AC61AC6110B070BD00BFB5
:1040C00000C0092070B540240646074D0021772026
:1040D000EC61FFF7C9FE21463046FFF76FFEAC6189
:1040E000AC61AC6170BD00BF00C0092008B5064BD3
:1040F000198831F01F0104D0FFF716FEB0FBF1F074
:1041000008BD084608BD00BF6EC40720014B1888D3
:10411000704700BF6EC40720024B1878003018BFEC
:10412000012070476EC407204FF0FF332DE9F7439D
:104130000F46914601938046FFF7CCFEFFF7ECFF58
:104140000646B8B14025194C194BE5611B88032080
:10415000B3F5847F0CBF4FF480714FF40071394385
:10416000FFF782FE04210DEB0100FFF727FEA5619A
:10417000A561A56140230D4C39468220E361FFF71C
:1041800073FE01224946404601F0CCFC3EB1019B42
:1041900002A8013340F8043D0421FFF70FFE40233D
:1041A000A361A361A36103B0BDE8F08300C009204F
:1041B0006EC4072037B540250421074B074C18680B
:1041C0000190E5610DEB0100FFF7F8FDA561A56128
:1041D000A56103B030BD00BFC9F9010000C00920CE
:1041E0001FB501A801F000FA9DF8093003F00F0097
:1041F0009DF8083003F01F031B0443EA40539DF869
:10420000060000F01F0043EAC0239DF8050000F0FF
:104210003F0043EA40139DF80400C0F34400034309
:10422000BDF80A00400600F10840184305B05DF8EB
:1042300004FBF0B51D460023ADF50B7D0E46174679
:104240000146012201A80093FEF716FB044670B94F
:104250001DB1294601A8FEF78BFD6B463A46314653
:1042600001A8FEF7A0FB044601A8FEF76FFD20465B
:104270000DF50B7DF0BD13460A460179006800F08C
:104280003ABF1FB5002204AB23F8042D02220479A3
:10429000009200680A46214600F016FF9DF80C00C7
:1042A0009DF80D3043EA002004B010BD10B504465F
:1042B00019222A21FFF7DFFF0D222179206800F063
:1042C000EFFEA0F12A035842584110BD044A13885A
:1042D0001F2BDFBF581C1080024A42F82310704782
:1042E000F0C4072070C40720F0B5154E3388012BA9
:1042F00023DD144A00201546013B984208DA52F8A3
:10430000041F013052F8044C091B42F8041CF4E766
:1043100000214FF0010E0C46686800EB50008AB295
:10432000934208DD55F822700131B8423CBF0EFAC5
:1043300002F21443F3E7044B1C6000233380F0BD0A
:10434000F0C4072070C40720F4C4072008B5012179
:104350000220FCF7D9FA084B01209A6A22F00702E2
:104360009A629A6A42F006029A62044AD36843F05B
:104370003003D36008BD00BF0080004000C0024091
:1043800008B5044B417101F07F015A5C0321FFF72E
:1043900072FF08BDE0F9010008B5044B817101F01E
:1043A0007F015A5C0221FFF766FF08BDE0F90100BA
:1043B00038B504460179006800F0B5FE054688B1BD
:1043C000002206212046FFF756FF00220721204643
:1043D000FFF751FF2E212046FFF7D2FF2E21204666
:1043E000FFF7DAFF284638BD70B56424B1FBF4F35B
:1043F00003FB14140A21E4B2B4FBF1F501FB1541EF
:104400003031C9B20646FFF7C7FF092C88BF05F156
:1044100030013046BDE8704094BF2021C9B2FFF79B
:10442000AFBF01207047FFFF38B50C46054601F0CD
:1044300051FD012204F00F032B700E4B14F0010FFD
:1044400014BFDA619A61022214F0020F14BFDA611C
:104450009A61102214F0040F14BFDA619A614FF4CC
:10446000807214F0080F14BFDA619A61BDE8384019
:1044700001F040BD20C0092001207047022001F05A
:104480006DBA01207047FFFF044B5B69180B00F009
:104490000C00C3F341231843704700BF20C009201C
:1044A00010B5044681220121FFF7E5FE01222179A2
:1044B000206800F0F5FD10F0600F14BF012000200F
:1044C00010BD38B500210446FFF7DBFE812205B29E
:1044D00001212046FFF7CFFE102095FBF0F003F0FE
:1044E0007FFF4FF0765103F0CFFFA16803F0C4FEC9
:1044F00038BDFFFF08B5FFF7E4FF054903F0C4FF2F
:10450000044904F075F84FF0844103F0B5FE08BD8E
:10451000000010410000A04008B5006806F025FA30
:10452000003018BF012008BD07B5002330B1024696
:10453000044800930449006800F064F803B05DF893
:1045400004FB00BFF8C4072019450100F8B5064672
:1045500010B900242046F8BD0378002BF9D0154D82
:104560002B6813B900F028F828603046FFF7DCFF0D
:1045700007460028EDD1082004F0D4FC04460028AA
:10458000E7D080E8C00000F017F8606018B9204656
:1045900004F0D0FCDDE72868214600F017F8054656
:1045A0000028D7D1606804F0C5FC204604F0C2FCA6
:1045B0002C46CFE7F8C4072008B50C2004F0B2FC65
:1045C00018B1002303604360836008BD38B50D4611
:1045D000044608B9002038BD082004F0A3FC0028D8
:1045E000F8D0002343602368056033B92060A368D6
:1045F00060600133A360012038BD6368002BF6D0F2
:104600005860F4E7F8B50D4616461F4608B9002075
:10461000F8BD0029FBD00468002CF8D0069B3A4670
:1046200031462068A84708B92068F8BD6468F3E7F8
:10463000F8B50D4616461F4608B90120F8BD0029F9
:10464000FBD00468002CF8D0069B3A46314620681F
:10465000A84708B16468F5E7F8BDFFFFF0B500248E
:10466000ADF50D7D0D4607460294FBF70DFF4FF4A7
:104670007A72002304F078F84FF409720646214656
:1046800003A804F0B3FC002D38D012221C4903A863
:10469000FEF7F2F8044668BB069903A8FEF768FB2C
:1046A000044630B902AB2A46394603A8FEF733FA6E
:1046B000044603A8FEF74AFBFBF7E6FE4FF47A72C6
:1046C000002304F051F80F4B801B1A889042029A85
:1046D00088BF188095420CBF0126002606D0059B96
:1046E0002146009308482B4605F01AFE30460DF58A
:1046F0000D7DF0BD054805F013FEDDE72C46DBE738
:104700008CFA010004C50720AAFA010096FA0100FC
:104710002F4B2DE9F74F1D68DFF8BC902E46DFF8D0
:10472000BCA005F58068002302AF47F8043D4EF6B3
:1047300060223946D9F8000001F0BAFE08B1019BA9
:104740002BB9711B2846FFF789FF2E46EBE7D9F8F6
:10475000000001F07BFFBAF80030019C0130984264
:1047600088BFAAF80000204606F011F90A230021AC
:10477000235400F1010B019A06EB0B0402F80B1015
:10478000A04501991FD8A8EB0602304604F009FCA9
:10479000A4EB08044FF480612846FFF75FFF3CB1AB
:1047A0000199ABEB040B22465944284604F0F9FB6F
:1047B0002C44084800234FF0FF323946006801F0CE
:1047C0006FFD2646AFE75A46304604F0EAFBF0E7B5
:1047D0000CC5072000C5072008C50720FCC407201A
:1047E0002DE9FF412B4C80462568002D4AD14FF41E
:1047F0008060039504F096FB274E2060A8B92068DE
:10480000002842D1336863B10A24002303A91A4661
:10481000306801F04DFE10B1039804F08BFB013CB1
:10482000F3D11E4805F0F0FD2CE02A4604210A20B1
:1048300001F01CFD1A4F2A46386004210A2001F0BD
:1048400015FD3B683060002BD9D00028D7D00A2551
:10485000962004F067FB03900028D0D0002303A922
:104860001A46306801F01CFD013DF1D10195CDF8EB
:1048700000802B464FF4C0720A490B4801F04AFFF2
:104880000028BCD004B0BDE8F08104F053FB002345
:104890002360B7E70CC5072000C5072067FA0100B1
:1048A00008C5072060FA01001147010010B5044651
:1048B00001F010FB013C14F8010F18B9BDE81040DD
:1048C00001F018BBFBF7FEFFF5E70FB470B54FF42E
:1048D0008075C2B046AC54F8046B2A46002102A889
:1048E00004F084FB23463246294602A8019407F0CF
:1048F000C1F9044602A8FFF7D9FF204642B0BDE83F
:10490000704004B07047002313B50C4602A941F86B
:10491000043D006801F098FD019B1BB1236843F042
:1049200001032360012002B010BD30B5044685B0FC
:1049300001A80D4600F058FE9DF80630227903F0DC
:104940001F039A421BD19DF80530627903F03F03A3
:104950009A4214D19DF80430A27903F03F039A42A1
:104960000DD1002304A941F8103D2368186801F017
:104970006BFD009B1BB12B6843F001032B600120F2
:1049800005B030BD30B50025234A87B01378234CDD
:1049900043F00103137003A8029500F025FE2B4697
:1049A000009502AA1E492068FFF742FE9DF80C30D0
:1049B00013F03F031BD1009302AA19496068FFF767
:1049C00037FE9DF80D3013F03F0310D1009302AA7B
:1049D0001349A068FFF72CFE9DF80E3013F01F035B
:1049E00005D1009302AA0E49E068FFF721FE0023DB
:1049F0000C48009302AA0C490068FFF719FE029BBD
:104A00003BB14FF08052094B1A60BFF34F8FBFF399
:104A10006F8F07B030BD00BF0040024010C50720B7
:104A20000749010020C507202B49010004ED00E0E3
:104A300070B50646FBF728FD841941F10005FBF728
:104A400023FDA94208BFA042F9D370BD08B502F00A
:104A500027F9831E5842584108BD10B50446FFF798
:104A6000F5FF20B12046BDE8104002F025B84FF414
:104A70007A706043BDE81040FFF7DABF124B30B5E3
:104A80001A68014612B94FF080521A6018680F4A2E
:104A900044180F4D2244AA4297BF0E4A1C60881842
:104AA00018601C6898BF10460B4A944282BF0132BE
:104AB0001A60002039B1094A136801331360084BAA
:104AC0001860084B196030BD2CC50720FF7FFFEF31
:104AD000FE3F0710B0C80720FF3F082024C507206D
:104AE00028C5072030C5072004F01CBA04F022BAFC
:104AF00030B504468BB0684604F0DCFC214B224DF7
:104B00002360089B214AA360079B636053B9136825
:104B10001F498B428ABF03F1604303F17043A3F541
:104B2000E823636000236168E360B1F5803F82BFE2
:104B300001F17041A1F5E82161601168144A9142C8
:104B400013D8C5F10053521A03F504231A44E26046
:104B50002046104BE1611B68A3610F4B1B6863612A
:104B60000E4B1B6823610BB030BD0D4B9942EFD843
:104B7000C1F1804303F580135B1B002BC8BFE360CA
:104B8000E6E700BFB0080000B0C807202CC507202A
:104B90000080001028C5072030C5072024C5072045
:104BA000FF3F082001F096B901F0A4B930B50446E2
:104BB0008DB0A8B30025684600F016FD9DF80030C2
:104BC00003A803F03F0303939DF801300B9503F016
:104BD0003F0304939DF8023003F01F0305939DF8F3
:104BE000043003F01F0306939DF8053003F00F0314
:104BF000013B0793BDF80630C3F30B03A3F26C73BC
:104C000008939DF8033003F007030993BDF80830BB
:104C1000C3F30B03013B0A9304F0D0FA84E82100AC
:104C200000200DB030BD033808B50A2822D8DFE8CF
:104C300000F02106060D19151D191121210003F0A0
:104C400027FF022303604FF0FF3008BD03F020FF71
:104C50001623F7E703F01CFF1323F3E703F018FF15
:104C60001123EFE703F014FF0D23EBE703F010FF30
:104C70000923E7E703F00CFF0523E3E7431C70B5C6
:104C80000E4906D00E4B1B68984202D10A681046A6
:104C900070BD00231C460B4D0B60062B1A4606D038
:104CA000531C05EB031656F8106CB04204D104B146
:104CB0000A60034B1860EAE70124EEE7A0C507206D
:104CC00098C0072040C50720084B10B50446186857
:104CD00018B1836B0BB903F0E5FF24B1012C02D0AE
:104CE000022C18BF203C204610BD00BFE0C00720AA
:104CF000014B1860704700BF38C50720014B186092
:104D0000704700BF34C5072008B5024805F07CFB9A
:104D1000FEE700BFF7FA010008B5024805F074FB92
:104D2000FEE700BFDDFA0100002070470120704758
:104D300070B50A4B1D7885B90126094C60222946B9
:104D400020461E7004F052F94FF0FF3323632364B2
:104D50002365022325602661236270BD3CC50720C0
:104D600040C507202DE9F74389461446FFF7ACFFFD
:104D70000546FFF783FF062806D103F089FE0923C5
:104D800003604FF0FF3016E01B4E0701F3199B68DC
:104D9000DB07F2D4002D11D001DB052DF1DDF31975
:104DA000D8680028EDD001AB22464946FDF7FBFD4F
:104DB000F8B1FFF738FF03B0BDE8F0830F4B1A6876
:104DC000984632B14D46A5EB09039C420ADC24EA21
:104DD000E475601B0028D4DB3E447368201A03444A
:104DE0007360E8E7D8F800300020984705F8010B19
:104DF000E9E70198201AEDE740C5072034C50720F0
:104E0000F8B50E461746FFF75FFFFFF737FF062896
:104E100004D0124C05016219D06830B903F038FE95
:104E2000092303604FF0FF30F8BD3FB93146FDF76D
:104E30009FFF70B1BDE8F840FFF7F5BE012F02D12A
:104E400081683144F3E7022F01D1C168F9E70920F5
:104E5000F0E76319DA6890685860F8BD40C507202C
:104E60002DE9F3410F461446FFF72EFF0646FFF7E4
:104E700005FF0628054604D103F00AFE0923036056
:104E800006E0052E26D80120B04010F0390F02D0E0
:104E90004FF0FF302CE010F0060F1BD0174E30689B
:104EA00030B1B846A8EB07039C420EDC24EAE4705C
:104EB000201A431CECD0A042EAD0114B201A03EB7D
:104EC00005135A6802445A6012E0336818F8010B5F
:104ED0009847E7E70A4B03EB0513D8680028CBD0C7
:104EE00001AB22463946FDF716FE20B1FFF79BFEC7
:104EF00002B0BDE8F0810198DAE700BF38C50720AD
:104F000040C5072038B5FFF7DFFEFFF7B7FE0628DC
:104F100006D103F0BDFD092303604FF0FF3038BD1B
:104F20004FF0FF320B4B00011C181A50E06808B913
:104F3000002038BDFDF70AFF0546E06803F0FAFFE0
:104F40000023E360002DF3D02846BDE83840FFF78A
:104F50006ABE00BF40C5072008B503F099FD58237D
:104F600003604FF0FF3008BD074B1B689A68824210
:104F700007D05A68824204D0DB681B1A5842584155
:104F800070470120704700BFE0C007202DE9F047BF
:104F900090F8055104468A4617469946089EDDF862
:104FA00024801DB100252846BDE8F0870AB9002EEF
:104FB000F8D001F075FE022835D00023202284F8B5
:104FC0001131D4F80031C4F81471C4F81C6184F8AC
:104FD00010A1C4F81891C4F820811A60FBF754FAA4
:104FE0004FF47A72002303F0BFFB10F57A7641F19B
:104FF00000070023D4F80C011A46194601F058FAAC
:1050000028B194F81151B5FA85F56D09CBE7FBF796
:105010003BFA4FF47A72002303F0A6FB8F4208BFDD
:105020008642E6D2EDE700234FF47A721946D4F8AF
:10503000080101F03DFA0028B4D00023D4F80C0197
:105040001A46194601F034FA00232021D4F8002131
:1050500084F810A184F81131C4F81471C4F81891BF
:10506000C4F81C61C4F82081D4F80C0111604FF41D
:105070007A72194601F01CFA20B194F81151B5FA70
:1050800085F56D090023D4F808011A46194601F088
:1050900007F988E710B441F0010110BCFFF776BFB3
:1050A0007FB500238DF8173001238DF80F200DF107
:1050B0001702009201930DF10F02FFF7EBFF9DF82D
:1050C000170007B05DF804FB1FB504AC04F8012D10
:1050D000069A0093019201232246FFF7DBFF04B0FA
:1050E00010BD13B5002401F0FE0101940094FFF7F8
:1050F0004DFF02B010BD07B58DF804208DF80530C6
:1051000001AA0223FFF7EDFF03B05DF804FB07B52A
:105110008DE80C00002341F001011A46FFF736FF2D
:1051200003B05DF804FB002307B502AA02F8013DB5
:10513000FFF7EDFF03B05DF804FBFFFF38B5002576
:105140000446C0F8001180F80551012001F02AF949
:105150000322C4F808012946012001F087F8D4F899
:1051600000310C4AC4F80C0193420CD002F588229D
:1051700093420AD0A2F50422934208D10A2384F86C
:105180000431204638BD0B23F9E70C23F7E76323EE
:10519000F5E700BF00C0054090F9043170B50B2B56
:1051A00005460C46164635D00C2B36D00A2B37D187
:1051B00001210720FBF7A8FBB6F57A7F98BF4FF4D3
:1051C0007A714FF06C0294BF71431649D5F80031E3
:1051D000B4FBF1F19A612822642049084A43B2FBEA
:1051E000F0F21A613C2251430022B1FBF0F1596107
:1051F000DA601A625A629A62402201201A6095F9B6
:105200000431094A590903F01F0300FA03F342F875
:10521000213070BD01211320CCE701211A20C9E7FC
:10522000002070BDA086010000E100E02022D0F83F
:1052300000319A6110221A6008229A611A68D20617
:10524000FCD490F81031DB074CBF0123022380F817
:1052500024317047002310B580F82431D0F8003194
:1052600004465A68282A44D00DD8102A27D0182A74
:1052700028D0082A0CD1D0F8181190F81021B1B913
:1052800042F0010215E0402A3ED005D8382A59D014
:105290005B6884F811311DE0502A3FD0582AF7D1BD
:1052A000D0F81C219B681370FFF7C0FF04E002F0E8
:1052B000FE029A6008229A6194F8240110BD90F8C9
:1052C0001021DDE72022D0F820119A61D0F81821B2
:1052D00011B90AB92046E7E7002AEDD0D4F8141135
:1052E000013A11F8010B9860C4F81411C4F81821A0
:1052F000E0E7D0F81821002AF0D190F81021D20769
:10530000E8D520221A60D5E720229A61D0F8202122
:10531000012A4FF00402F5D89A61CBE79B68D0F8D8
:105320001C211370D0F81C3104220133C0F81C3149
:10533000D0F82031013B012BC0F82031D0F80031EA
:10534000E0D1E9E790F810215B6812F0010F14BF7B
:105350000122022280F8113180F82421ACE7FFFFFE
:1053600013B50446FFF776FF88B1002302A941F880
:10537000043DD4F80C0101F067F8019B3BB14FF0FC
:105380008052044B1A60BFF34F8FBFF36F8F02B090
:1053900010BD00BF04ED00E037B5044615468DF89A
:1053A000071001F07DFC022809D063699DF80720F1
:1053B0001A701A7D5206FCD5012003B030BD0023BF
:1053C0002A460DF10701E06900F06AFF0028F4D0D9
:1053D00063691B7D5B06EFD500230DF107011A46BB
:1053E000E06901F065F80028E6D063699DF80720C0
:1053F0001A70E1E710B50446024B036000F0DAF8DA
:10540000204610BD34FB010010B50446FFF7F2FF43
:1054100020462C2102F0F1F9204610BD10B50446BB
:1054200001F03EFC022807D1E06901F00FF918B144
:10543000012001F041FBF7E7012010BDF8B5064659
:1054400014460F4609B90020F8BD8369002BFAD035
:1054500001F026FC022809D1002322463946B06912
:1054600001F026F8003018BF0120F8BDFBF70CF85A
:105470004FF47A72002303F077F9002504440023E7
:1054800039461A46B06901F013F858B9FAF7FCFF2B
:105490004FF47A72002303F067F98D4208BF84420B
:1054A000EDD2D0E70120F8BD002373B54269019326
:1054B0008DF803309368044603F00E03042B21D0CB
:1054C0000C2B1FD0022B3FD1C06901F0C8F8E38C30
:1054D000984203D9E06901F0C2F8E0841026002563
:1054E00001AA0DF10301E06901F07CF800282ED13A
:1054F0005DB34FF080521B4B1A60BFF34F8FBFF369
:105500006F8F22E001F0E0F90025A06263691A7D47
:10551000D2070ED51B7801AA8DF803300DF10301D7
:105520000023A06900F050FF019B002B18BF01254C
:10553000ECE7A06901F093F8A38C9842D8D9A06950
:1055400001F08DF8A084D3E7137D02B070BD6369CC
:105550009DF803201A70019B002B18BF0125013E06
:10556000C6D0BDE704ED00E038B504460D4600F0B6
:1055700011F8064B6561236000232046A361E361B7
:105580002362A384E384A36238BD00BF34FB01001F
:1055900001207047064B10B50360002304464360AA
:1055A00003810374012000F0FDFEE060204610BD81
:1055B00064FB0100044B10B504460360406808B169
:1055C00003F0B8FC204610BD64FB010008B5044B95
:1055D0001B689847034A137A43F00103137208BD0E
:1055E000A4C5072000000B40F0B587B06C460F4DF6
:1055F000074695E807008DE8070003AE95E8070029
:1056000086E807000C223146204603F0BBFC38B97F
:1056100003CC386020687960B860384607B0F0BDC8
:1056200095E8070084E80700E8E700BF144002405F
:105630000022184B1A720278C2F3050283F8202068
:105640004278C2F3050283F824208278C2F3040270
:1056500083F82820C278C2F3020283F8302002794E
:10566000C2F3040283F82C204279C2F3030283F8C8
:105670003820C179827901F00F0142EA0122417A92
:105680009A87027A01F00F0142EA01229A860122EA
:105690001A727047004002401FB501210920FBF734
:1056A00033F901222F4B01A81A72FFF79DFFBDF8B5
:1056B0000A3003F62603C3F30B030F2B1ED89DF805
:1056C000053003F03F033B2B18DC9DF8043003F05A
:1056D0003F033B2B12DC9DF8063003F01F03172B12
:1056E0000CDCBDF80C30C3F30B03B3F5B77F05DA60
:1056F0009DF8093003F00F030C2B2FDD01229DF8DC
:10570000083001A862F304038DF808309DF80930D1
:1057100062F3030340F2DA728DF80930BDF80A3003
:1057200062F30B03ADF80A309DF807306FF3020304
:105730008DF807309DF806306FF304038DF80630BE
:105740009DF805306FF305038DF805309DF80430A2
:105750006FF305038DF80430FFF76AFF05B05DF8BD
:1057600004FB00BF0040024070B505460E461446DB
:105770000CB12B6803B970BD2268134208D063686E
:10578000984722682B6823EA02032B602368336062
:10579000A468EDE7F8B5012484400F4616461D467F
:1057A00010D079B10C2003F0BDFB58B14FF40012BA
:1057B000336880E8900083602B6830601C43024BA4
:1057C0002C601A60F8BD00BF00E100E01FB5184C66
:1057D0001849636868460093A3680193636A02935B
:1057E000A36A0393144B1A68FFF7BEFF134B1149CA
:1057F0001A6801A8FFF7B8FF114B12491A6802A8EE
:10580000FFF7B2FF104B0F491A6803A8FFF7ACFF70
:10581000009B0BB9019B13B14FF0FF33E360029B78
:105820000BB9039B13B14FF0FF33E36204B010BD1B
:10583000808002408C800240ACC50720A8C50720AC
:10584000B4C50720AC800240B0C5072010B4144690
:105850000029064A0649074B18BF1346064A18BFD7
:105860000A46214610BCFFF795BF00BF9480024056
:10587000A8C5072090800240ACC50720074A1368DE
:1058800023F0E06323F0FF0313600123116803FAA0
:1058900000F041F080710843106070470040034001
:1058A000002307B50D4A019352680D48C2F30B124D
:1058B000ADF802200DF1020101AA006800F084FD9C
:1058C000019B3BB14FF08052064B1A60BFF34F8FE4
:1058D000BFF36F8F03B05DF804FB00BF00400340CF
:1058E000BCC5072004ED00E010B5FAF75BFF01210D
:1058F000C4080C20FBF708F803210C20FBF71EF866
:105900004FF40013104A114913600223B4FBF3F063
:10591000884214D8116841EA03231360012000F083
:1059200041FD0B4B002218600221012000F09EFC7B
:105930004FF48002074B1860074B1A6010BD02330A
:10594000B3F5807FE2D1E9E7004003403F5DC60048
:10595000B8C50720BCC5072000E100E0F7B500246A
:1059600007280546ADF806401DD801F099F9022830
:10597000154E1CD1154F23464FF0FF322146386893
:1059800000F096FD2846FFF779FF23464FF0FF32DF
:105990000DF10601306800F08BFD234622462146BA
:1059A000386800F07DFCBDF8060003B0F0BD284665
:1059B000FFF764FF00230DF106011A46306800F07E
:1059C00077FD0028F6D0EEE7BCC50720B8C5072054
:1059D00010B50446024B0360FFF7ECFD204610BDF6
:1059E00034FB010010B50446FFF7F2FF20462C21DE
:1059F00001F003FF204610BD10B504460349FFF730
:105A0000B3FD034B2046236010BD00BF00C009401A
:105A1000CCFB010038B5074C236833B92C20FFF7C5
:105A200063F80546FFF7E8FF25602068BDE83840C9
:105A3000FFF73ABDC0C5072010B50446024B03600E
:105A4000FFF7B8FD204610BD34FB010010B5044639
:105A5000FFF7F2FF20462C2101F0CFFE204610BDBB
:105A600010B504460349FFF77FFD034B2046236032
:105A700010BD00BF0080094034FC010038B5074C60
:105A8000236833B92C20FFF72FF80546FFF7E8FF0E
:105A900025602068BDE83840FFF706BDC4C5072073
:105AA00010B50446024B0360FFF784FD204610BD8D
:105AB00034FB010010B50446FFF7F2FF20462C210D
:105AC00001F09BFE204610BD10B504460349FFF7C8
:105AD0004BFD034B2046236010BD00BF00C00040BB
