:020000021000EC
:10000000E03F082095010100FB000100E100010034
:10001000090101001901010029010100000000008F
:1000200000000000000000000000000081890100C5
:100030003901010000000000E189010059010100BF
:10004000D5050100D5050100D5050100D505010044
:10005000D5050100D5050100D5050100D505010034
:10006000D5050100D5050100D5050100D505010024
:10007000D5050100D5050100D5050100D505010014
:10008000D5050100D5050100D5050100D505010004
:10009000D5050100D5050100D5050100D5050100F4
:1000A000D5050100D5050100D5050100D5050100E4
:1000B000D5050100D5050100D5050100D5050100D4
:1000C000D5050100D5050100D505010070D5020058
:1000D00000C00720FC02000000C3072088060000C3
:1000E00004207146084203D0EFF3098000F098BA6B
:1000F000EFF3088000F094BA704708B5014806F0A5
:1001000063FCFEE77A5D020008B5024806F05CFC7D
:10011000FEE700BF855D020008B5024806F054FC0A
:10012000FEE700BF905D020008B5024806F04CFCF7
:10013000FEE700BF9B5D020008B5024806F044FCE4
:10014000FEE700BFA85D020008B5024806F03CFCCF
:10015000FEE700BFB65D020008B509F015FE08F025
:1001600061FCBDE8084009F023BE0B4610B5401AFB
:100170005C1AA24203D9C45843F8044BF8E710BDF7
:100180000346002210B51C1AA14202D943F8042BE1
:10019000F9E710BD154800F0B8FB144800F0B8FBB3
:1001A000134C144DAC4209D3134DAC420ED254F84B
:1001B000080B54F8041CFFF7E3FFF6E794E803008C
:1001C0000C3454F8042CFFF7D0FFEBE70EF08EFF51
:1001D00000F026F80BF012FF0CF0D0FE4FF41640A2
:1001E00000F03EFB054806F0EFFBFEE7E03F08208D
:1001F000CC000100D8000100E0000100CA5D02004F
:10020000014B1878704700BF0CC3072003490B68E7
:1002100003604B6843608B688360704700C30720AE
:1002200030B585B007F0B6FE684607F05BFE774C48
:10023000009B2360019B6360029BA36000F062FA55
:1002400000F0BAFA724BB0FBF3F03C28714B00F2AD
:100250009A80292880F0A180142800F29B803A22FD
:100260001A60082398226C4900200B764B768B7617
:1002700081F82030694B83F8052383F8062383F83F
:10028000072383F80823902283F80A2383F80B239B
:1002900083F80C23702283F80E2383F80F2358224F
:1002A00083F8122383F8132383F8142383F8152388
:1002B000782283F81923A02283F8002383F80123EE
:1002C00083F8022383F8032383F8042383F80923A4
:1002D00083F80D2383F8102383F8112383F8162362
:1002E00083F8172383F8182383F81A2383F81B2332
:1002F00083F81C2383F81E2383F81F2383F820230D
:1003000083F81D2383F8212383F82223CB6823F469
:10031000E0631B041B0C43F0BF6343F40033CB606A
:1003200000F0F9FA61B662B64FF4164000F098FAA0
:100330003B4806F0E5FF3B4806F0E8FF00233A4C57
:10034000194620680222806810F040FC00232068D3
:10035000304C19460222406810F038FC06F0F0FFDD
:10036000D4F88031314D13F0010F1FD0304800F028
:10037000BFFA01232B70D4F8803143F00103C4F895
:10038000803105B030BD50280AD964280BD945F218
:100390003A0265E741F23A0262E742F23A025FE767
:1003A00043F23A025CE744F23A0259E7D4F880316A
:1003B0009B0709D51F4800F09BFA02232B70D4F845
:1003C000803143F00203DAE7D4F8803113F00403FC
:1003D00019D0194B9A6C194B9A4208D10523184829
:1003E0002B7000F085FA0022134B9A64C9E70423AE
:1003F00014482B7000F07CFAD4F8803143F00403E9
:10040000C4F88031EFE72B70BBE700BF00C30720C3
:1004100040420F0000C00F4000ED00E000E100E0AE
:10042000D9080100C1080100E0C007200CC3072063
:10043000005C0200435C020000400240EFBEADDE03
:100440001D5C02003A5C0200012110B50F4B104CFC
:100450000846236008F05EF94FF0FF3223689A6186
:100460004FF47A72DA6100221A620A4A5A6240F242
:1004700009225A615A6942F040025A611822064B19
:1004800083F8022304221A6010BD00BF00800040E0
:1004900018C3072060E3160000E100E0084B10B528
:1004A0001B68084C9A682188986889B28242F9D8FA
:1004B0000B46002242EA00021046194610BD00BF5A
:1004C00018C3072014C3072010B504468EB006A831
:1004D00006F014FE0A9B069A05930B9B07490493AA
:1004E0000C9B204603930D9B0293099B0193089B51
:1004F0000093079B10F094FC0EB010BD7E5C0200D0
:1005000010B5044C23681BB9012006F0EFFD2060F4
:10051000206810BD10C3072038B52B4C2368254632
:100520001A6812F0100F0ED010221A60FFF7E8FFC1
:100530002368D96A04F076FC2268936803F51C539B
:100540001033136238BD540707D504221A60FFF731
:10055000D7FFBDE8384004F073BCD00707D50122AF
:100560001A601A4A138801339BB2138038BD910771
:1005700015D502221A6009F037FB022809D000F0D5
:100580007DFD2A689368D1690B4403F57A73D361C2
:1005900038BD2A68536923F008035361F1E7120755
:1005A0000ED50822AA211A604FF0804211725521FF
:1005B00011729A6802F5B71202F558725A6238BD84
:1005C000034810F0A7F9FEE718C3072014C307205B
:1005D0005D5C020008B509F0D7FB094B094A1978A0
:1005E000094B1039C9B253F82130934203D107485F
:1005F00006F0F9F9FEE79847BDE8084009F0D8BBD6
:1006000004ED00E04901010000C00720435D020045
:100610000028A4BF014B43F82010704700C00720FA
:10062000036888B000934368114A0193836802937A
:10063000C36803930369049343690593836906932D
:10064000C36907930B4B9A64069ADA64059A013AD8
:100650001A65079A5A654FF08043AA221A7200223F
:100660001A70009B019B029B039B049B08B0704780
:10067000EFBEADDE00400240AA22034BC3F88C203F
:100680005522C3F88C20704700C00F402DE9F04F71
:1006900000240C6014601C6040F2FF14DFF860A0BE
:1006A0004FF4FA55002604FB055B06F1010CBBFB79
:1006B000FCF8124FA8F58625A5F50E75BD421AD98E
:1006C0006646202EF1D1013C052CE9D10020BDE881
:1006D000F08FB9F5807F4D46F2D005F10109B8FBE6
:1006E000F9FED645F5D886450C6016601D60F0D140
:1006F0000120BDE8F08F0325EFE700BF383204008A
:10070000A086010030B500242A4985B0D1F8803098
:1007100004AD23F0020345F8044D01940294C1F89E
:100720008030FFF7A9FFD1F8803023F00103C1F832
:100730008030FFF7A1FFC1F80C41C1F88440FFF7FA
:100740009BFF2B46C1F8044102AA01A94BF6803059
:10075000FFF79CFF30B92B4602AA01A945F6C0500D
:10076000FFF794FF019B134963F30F04029B63F3AC
:1007700017440023C1F80C31C1F88440FFF77CFF17
:100780000123C1F88030FFF777FFD1F888305B0193
:10079000FBD5039BC1F804310323C1F88030FFF778
:1007A0006BFF044AD2F8883013F0407FFAD005B0CE
:1007B00030BD00BF00C00F40244BD3F88820C2F3E7
:1007C0000162032AD3F80C2102F003022DD1012A81
:1007D00016D0022A1ED0D3F888101D48D3F88820DE
:1007E000D3F80431C1F30E0101FB0000C2F307424C
:1007F0000132B0FBF2F0DBB20133B0FBF3F0704733
:10080000D3F888101348D3F88820C1F30E01D3F829
:100810000431E9E7D3F88800D3F88820C0F30E004C
:100820000130D3F804310004E0E7D3F80401012AD1
:10083000C0B200F1010303D0022A03D00648DCE76E
:100840000648DAE74FF40040D7E700BF00C00F408A
:1008500000127A0000366E0100093D00001BB7004F
:1008600010B50446FFF7A8FF2401B0FBF4F00DF02B
:100870002DFB0022104B0DF0EDF90DF09DFB012139
:1008800084B2032000F04AF80121032000F060F850
:100890000A4B1A6822F0F0021A601A6842F05002FD
:1008A0001A608022A3F500331A73220A1A710322F8
:1008B000E4B21C701A7310BD0000E03F00C002409B
:1008C000034A1368DB07FCD5024B1878704700BF5A
:1008D00014C0004000C00040034B044A1870136865
:1008E0005B06FCD50120704700C0004014C00040EA
:1008F00008B5411E11F8010F20B90A20BDE80840D3
:10090000FFF7EABFFFF7E8FFF4E780F309887047D5
:1009100080F30888704780F31188704738B50D461A
:10092000044608F041F8094A01234DB1D2F8C40049
:10093000A3400343C2F8C430BDE8384008F044B8CF
:10094000D2F8C410A34021EA0303F3E700C00F402C
:100950002DE9F0414FEA40080E4608F025F84246DE
:10096000032000210DF064F90A4F4246D7E9004503
:1009700024EA000425EA010506F0030000210DF039
:1009800057F920432943C7E90001BDE8F04108F0C9
:100990001BB800BFA8C10F4030B54FF48035364CAE
:1009A000E561364CA0602046C468E406FCD480684B
:1009B000C0B263B90B46314C5D1A954209DA13F89F
:1009C000015BA560E568ED06FCD4A568F4E72B4B58
:1009D00022B94FF48032284B9A6130BD072A0C7837
:1009E00029DD9C604C78083A9C608C789C60CC78BF
:1009F0009C600C799C604C799C608C799C60CD7972
:100A000001F108049D609D696D07FCD59D680D701E
:100A10009D684D709D688D709D68CD70DD68ED0698
:100A2000FCD49D680D719D684D719D688D719D68A8
:100A3000CD712146CCE7032A14DD9C604C78043A42
:100A40009C608C789C60CD780C1D9D60DD68ED0607
:100A5000FCD49D680D709D684D709D688D709D687B
:100A6000CD70E6E74D1C9C60013ADC68E406FCD4DE
:100A70009C680C702946ABE700C009200080084044
:100A8000002307B502A901F8013D012300F01F0072
:100A90001A46FFF781FF9DF8070003B05DF804FBDD
:100AA00013B502AC04F8011D00F01F000023012261
:100AB000214640F02000FFF76FFF02B010BD08B5DF
:100AC0001720FFF7DDFFC0F3001008BD70210720DD
:100AD000FFF7E6BF0A4600230146A020FFF75CBFF0
:100AE00008B50020FFF7CCFFBDE8084000F0FE018C
:100AF0000020FFF7D5BFFFFF4FF08072014BDA6196
:100B0000704700BF20C0092008B50020FFF7B8FFDC
:100B100040F00101C9B20020FFF7C2FF4FF0807220
:100B2000014B9A6108BD00BF20C009202021072089
:100B3000FFF7B6BF0023E1201A461946FFF72CBF86
:100B400037B504460D46FFF7F5FF20462946FFF767
:100B5000C1FF4FF080720C4CA2610022ADF806205C
:100B6000BDF8063001339BB2ADF8063033B94FF013
:100B70008073E361FFF7DEFF03B030BDFFF79FFF37
:100B80000028EDD0F3E700BF20C0092008B51720EA
:100B9000FFF776FFC04300F0010008BD40210720A9
:100BA000FFF77EBF08B50A46012301466120FFF723
:100BB000F3FEC0F3420008BD0023E2201A461946A6
:100BC000FFF7EABE70B5064600200D461446FFF753
:100BD00057FF66B100F0BF006DB100F0DF016CB1EE
:100BE00001F0EF010020BDE87040FFF759BF40F071
:100BF0004000C0B2F0E740F02001F0E741F0100102
:100C0000F0E710B504460020FFF73AFF34B900F0D2
:100C1000F7010020BDE81040FFF742BF012C04D1CE
:100C200000F0FB0141F00801F3E7022C14BF40F093
:100C3000080140F00C01C9B2EBE708B50020FFF74E
:100C40001FFFBDE8084040F00201C9B20020FFF7D5
:100C500027BF08B50020FFF713FFBDE8084000F0EC
:100C6000FD010020FFF71CBF40F6DD1398420BD8B2
:100C700040F66213B0F5166F38BF1846A0F516613E
:100C8000C9B20520FFF70CBF1846F7E710B50446B8
:100C90000620FFF7F5FEFA2C00F0D70106D141F04F
:100CA00020010620BDE81040FFF7FABEB4F5FA6F48
:100CB00008BF41F00801F4E710B504460620FFF72D
:100CC000DFFE032C28BF032420F0060141EA440183
:100CD000C9B20620BDE81040FFF7E2BEB0F57A6F5A
:100CE00028BF4FF47A60FA2838BFFA20FA23B0FB05
:100CF000F3F30F2928BF0F21013BDBB241EA0311B7
:100D0000C9B20420FFF7CCBE1130C0B2162804D8F7
:100D1000202928BF2021FFF7C3BE7047032806D033
:100D2000042814BF032102210320FFF7B9BE0121CB
:100D3000FAE70A46002301463020FFF72DBE0A4697
:100D4000002301462A20FFF727BEFFFF73B50446A4
:100D50000E461546FFF730FFFFF7ECFE4FF08072AE
:100D60002A4BDA61FFF775FF002201201146FFF7D9
:100D700029FFFFF7ABFE0220FFF743FF3046FFF7E6
:100D800073FF2846FFF782FF0320FFF795FF03213B
:100D90000220FFF785FE00210120FFF781FE0321DD
:100DA0004FF4FA70FFF79AFF21460020FFF7ACFFDF
:100DB00000211220FFF774FE00211320FFF770FEC0
:100DC00000211420FFF76CFE00211520FFF768FEBC
:100DD00000211620FFF764FE0D4B18681B79009068
:100DE00005208DF80430FFF799FF68460521FFF7CD
:100DF000A0FF05216846FFF7A2FFFFF71EFF4FF493
:100E0000FA6005F0A3FE02B070BD00BF20C009204B
:100E1000F35D020070B5174E326822B9202103201D
:100E200007F0C4FF3060144D2A6822B92021012048
:100E300007F0BCFF2860114C216821B90322012072
:100E400007F0B4FF20604FF4FA6240F6C31120208F
:100E5000FFF77CFFFFF758FE1620094A012107F033
:100E60007DF9306828B1286818B12068003018BFB3
:100E7000012070BD24C307201CC3072020C3072006
:100E80002D0F0100037970B503F0C003C02B0CBF18
:100E90000E4B0F4B01461D68002388B006461A46CC
:100EA000284607F0A5FF044660B903460246694696
:100EB000284608F0A5F8234622463146284607F082
:100EC00097FF0446204608B070BD00BF1CC3072032
:100ED00024C3072038B504460D4600F0E9FA23780C
:100EE00083420AD0E37843B90FF044FDBD2300F0FC
:100EF000030000FB033005F029FEFFF7FDFDFFF7BF
:100F0000EFFDA9B22046FFF71BFEFFF70FFEFFF72C
:100F1000FBFD08F069FE022804D1034B002118688C
:100F200008F03AF8012038BD20C30720002307B598
:100F300002A941F8043D084B186808F02DF8019B00
:100F40003BB14FF08052054B1A60BFF34F8FBFF398
:100F50006F8F03B05DF804FB20C3072004ED00E0B1
:100F600038B504460D46FFF711FE48B1A9B2204638
:100F7000FFF718FEFFF70AFE08B9FFF70FFE012082
:100F800038BD2DE9704305460E46144608F02CFE88
:100F9000022809D1224600233146284608F030F8BD
:100FA000C4B22046BDE87083FFF778FA4FF47A7236
:100FB00000230DF015FB10EB040841F1000900239C
:100FC00031461A46284608F01BF8C4B2002CE8D176
:100FD000FFF764FA4FF47A7200230DF001FB8945A4
:100FE00008BF8045EBD2DCE7042938B505460DD1B2
:100FF000041C18BF0124FFF751FA2CB14FF47A7288
:1010000000230DF0EDFA2860204638BD0024F2E7F9
:1010100000B50C4B8DB009930B4B0C4A0B930C4B4A
:101020000A930CAB43F8102D002204920FCB8DE8ED
:101030000F00084B084A01216A2000F0EFFA0DB0BA
:101040005DF804FB150E0100610F0100E90F0100BE
:10105000D50E0100850E0100F85D0200024B0A4624
:1010600001461868FFF78DBF24C30720024B0A46CC
:1010700001461868FFF785BF1CC3072008B508F0B4
:10108000B3FD0F4B02285B6912D15A020CD500F058
:10109000FDFC002300280B4814BF01224FF0FF3253
:1010A0001946006807F0ACFFBDE8084000F086BBB9
:1010B0005B02F9D500F0EAFC0028F5D108BD00BFBD
:1010C00000C0092020C30720242310B54FF6FF7469
:1010D00003FB0101884200D110BD43782BB1038C82
:1010E0001344A34228BF234603842430F2E7FFFFC2
:1010F000002337B502A840F8043D0C4B04215B687F
:10110000984705460A4B019A1C680421141B1A6073
:1011100008482246FFF7D8FF224602210648FFF77B
:10112000D3FF281C18BF012003B030BD28C30720FF
:1011300058C407203EC30720F2C3072008B50B4B55
:10114000197803788B420A4B0BBF1A889A880132B0
:10115000013214BF9A801A80064B8170DB6820210F
:101160009847003018BF012008BD00BF8CC0072081
:10117000CEC3072028C307200A4B02781B789A4267
:10118000094B0BBFDA881A89013201320CBFDA80B1
:101190001A810379C3F3C202073262F3C5030371F4
:1011A000FFF7CCBF8CC00720CEC30720002210B5AC
:1011B000064B13F822409100844201D1581810BD0B
:1011C0000132042AF5D1002010BD00BF47C407201A
:1011D00070B1C3780133DBB2FF2BC37008D1002399
:1011E0000448C118CA7804335208102BCA70F8D1C9
:1011F000704700BF47C407202422034602FB0101B9
:10120000024630B591420FD1044600259A4211D0D2
:101210001979C1F3C200198C41EA0041A94284BF87
:101220001C460D462433F1E71446243212F8235CA1
:10123000002DE7D1204630BD38B50446C90001F184
:101240000805FFF755FF1C4B22781B789A4224D1E2
:1012500002211A48FFF7D0FF0023024680F8203011
:1012600080F82130234690F8231080F8225021F096
:101270007F01C5F306250D4380F8235004F12001BA
:1012800053F8044B8B4242F8044BF9D10C4A0379D2
:10129000127862F3C503037138BD04210948FFF7D2
:1012A000ABFFE378002BD7D190F82330042543F02F
:1012B000800380F82330CFE78CC00720F2C30720DB
:1012C00094C007203EC3072008B5FFF76FFF034611
:1012D000D8B9FFF76BFF0346B8B90D4AD378D17977
:1012E000D07A8B4296BF1946131D1346814294BF94
:1012F0000846084BD17B084A814238BF134600227A
:1013000006491A60CA7A0132CA72184608BD00BF7F
:1013100047C407204FC4072053C40720CEC307206B
:101320002DE9F0474FF0240805460C46002708FB3E
:101330000218DFF85C91DFF85CA1A04501D1BDE89F
:10134000F08794F92330002B29DACDB12B7862781D
:10135000934209D168782178884205D1242200215E
:1013600020460EF0B7F869E0E97849B16978914212
:1013700006D122789A4203D1AA79A3799A42EDD074
:1013800094F8232094F82230218C02F07F0243EA63
:101390000223994252DB2046FFF7D0FEDEE7637856
:1013A000002B4BD0002D32D02A7902F0C002C02A87
:1013B0002BD1227869788A4202D128789842CDD000
:1013C000E678A878864208D1994206D129788A42DF
:1013D00003D1A179AA799142C0D0A978E27891424B
:1013E00015D16A789A4212D121782A7891420ED189
:1013F000A179AA7991420AD1237984F8207067F300
:10140000C50384F82170237118E0002AE5D194F80F
:10141000231094F82220208C01F07F0142EA01225F
:1014200090420BDB227984F82070C2F3C201CEB265
:1014300084F8217026B12046FFF79EFE24347CE715
:1014400002F0C002C02A20D0207899F800209042F3
:101450001BD1E278934218D0BAB103226379E170CC
:1014600062F3071363712046FFF786FE23799AF82B
:10147000002062F3C50323716078FFF797FE00B187
:101480000760002E7FF46AAFD8E70126F4E700BFBB
:101490008CC0072094C00720431EDBB2FD2B9DBFEC
:1014A000024B187001200020704700BF8CC007203D
:1014B000014B1878704700BF8CC0072007289CBFDD
:1014C000014B1870704700BF94C007202DE9F74307
:1014D000044691461E469DF828500F46002965D0C7
:1014E000344B93F80080414560D00F2E5ED8002821
:1014F0005ED0202200210DF0EDFFFF2F08BF4FF03E
:10150000000903222379677069F3871362F30203EA
:10151000294A84F80080127884F8028062F3C503B7
:10152000264A237113780133DBB21370A3710BAB1E
:101530000193C5B901250123DFF88480384688F876
:101540000030FFF733FE0746FFF742FE002388F81E
:10155000003063791FBB66F307136371E770284699
:1015600003B0BDE8F08304F10809019AE07913465D
:10157000526853F8081B00EB02085FFA88F8013D37
:10158000B8F1180F0193EDB207D848440DF07DFF74
:1015900084F80780002DE8D1CCE70025CBE7BA78A6
:1015A00062F3071363717B78E370D8E70025D6E711
:1015B0000546D4E78CC0072094C0072057C40720F5
:1015C0003DC30720012270B5134E0446327020B986
:1015D000002500232846337070BDFFF7AFFD054698
:1015E0000028F5D0237903F0C003402B10D0A3F1DD
:1015F00080014A424A41C02B0BD1E3784BB161785C
:10160000994206D0617920460909FFF715FEE0E707
:101610000246002AF6D1DCE73DC3072082B02DE95F
:10162000F0439146421ED2B28DB0FD2A05460E46C9
:1016300015939DF8688005D900200DB0BDE8F043F2
:1016400002B07047002BF7D0179F002FF4D0199BE2
:10165000002BF1D0189B002BEED0169B002BEBD06B
:1016600000244822002123480DF034FF902200215D
:1016700021480DF02FFF1022002120480DF02AFFF5
:101680001F4B1C605C609C601E4B1C605C609C601F
:101690001D4B1D701D4B1E4D1E7015AE0FCE0FC580
:1016A0003368182221461B482B600DF013FF494672
:1016B000172218480FF0D5FC21462046B8470028CD
:1016C000BAD0B8F1000F02D1FFF712FDB5E706233B
:1016D0000293114B224601930123FF21009304A89A
:1016E000FFF7F4FE0028A7D004A8FFF76BFF00283F
:1016F000A2D0E9E7F2C307203EC3072047C4072072
:101700003AC40720CEC307208CC0072046C4072058
:1017100028C30720DAC30720FD5D020030B5182B6F
:101720008DB007D81D1CB2FA82F418BF01256409D8
:10173000AC4201D100200EE00293019200950A46CE
:101740009DF84030014604A8FFF7C0FE0028F1D004
:1017500004A8FFF737FF0DB030BD13B553791478E7
:101760001B09009302460B4620460321FFF7D6FFD4
:1017700002B010BD0023194630B5084A12F82350B4
:101780009C002DB1884201D1101930BD0131C9B280
:101790000133042BF2D1002030BD00BF47C4072025
:1017A00000231846044A12F8231009B10130C0B2D0
:1017B0000133042BF7D1704747C407202DE9F047C8
:1017C00088B02022002168460DF084FEA34B1B78D0
:1017D00003F0FF042BBBA24F20213B6968469847CA
:1017E00008B9002411E09F4D6B8801336B80FFF72F
:1017F000D7FF9DF80420A87202F00703032B13D033
:10180000994A137843F001031370FFF771FC042227
:1018100096492046FFF784FD022295492046FFF7AE
:101820007FFD08B0BDE8F087924B9DF802E01E787E
:10183000B64504D18C4A137843F00203E4E78E4D99
:101840002146A846C2F3C2029DF800009DF806C0DA
:101850005FFA82F901EB410313F805A0824523D119
:101860002B4493F801A0E2451ED19D789A70B5EB08
:10187000090518BF01254FF001099DF80200FFF787
:1018800023FD9DF802200270427000228270FFF753
:101890009FFCB9F1000F01D0002DA2D09DF80030BF
:1018A000B34233D16C46B0E701310429D2D1734938
:1018B0000B689A70724A1870934283F801C006D17F
:1018C000C1F80080864505D10025A946D5E7033338
:1018D0000B60F7E78642F7D0FFF7F6FC0546FFF707
:1018E00077FC2B7833B19DF80530AA7803F00F030D
:1018F0009342E9DC9DF800302B709DF802306B704C
:101900009DF80530C3F30303AB70DDE79DF801805C
:10191000B8F1FF0F1BD13B6820216846984720B9DA
:10192000514A137843F0040313709DF8053003F017
:101930000F02511C61F303038DF80530C3F3031349
:101940009A42BFF64EAF6846FFF7F8FB49E74645B7
:101950002ED1B9F1000F0CD19DF807304BB13B6887
:1019600020216846984720B93F4A137843F0040382
:1019700013709DF8043003F0C003402B12D19DF882
:1019800007306A4623B918213E48FFF7E6FE89E78B
:101990000C213448FFF7E1FE002883D100216A467C
:1019A0000846F2E79DF80330002B7FF47BAFF5E7A4
:1019B000354B1F78002F3FF414AF9DF8055005F00C
:1019C0000F094FEA151AD145BFF60BAF4046FFF796
:1019D000EDFB9DF8033009F1010969F303059E420F
:1019E0008DF8055024D19DF8043003F0C003402B3E
:1019F00003D0A3F180025742574150B3C02B447823
:101A000020D1A04512D0003418BF01243C4304F07B
:101A10000104D0B143788DF8033085786846FFF72C
:101A20008DFB002C3FF43EAF294607E00024EDE794
:101A3000002B7FF437AF0028ECD151466846FFF702
:101A4000FBFB2FE73C46E5E73C4600258DF80350BD
:101A5000E4E7C02BF8D10446D8E700BF3DC3072018
:101A600028C30720CEC307203CC307203EC307205E
:101A7000F2C307208CC007203AC4072090C007207B
:101A800043C40720DAC3072046C4072000231846B2
:101A9000094AD118497809B10130C0B22433902BDA
:101AA000F7D1064B5A780AB10130C0B293F825300D
:101AB0000BB10130C0B270473EC30720F2C307200C
:101AC00008B5FFF773FB064B28B18278187802FB44
:101AD0000000C00008BD18201B78584308BD00BF97
:101AE00094C0072003490B6803604B6843608B6810
:101AF00083607047CEC3072030B504460D1F131B0B
:101B00000344032B0AD822F00303194402F0030212
:101B1000013B18440A44914205D130BD55F8043FB9
:101B200044F8043BEBE711F8013B00F8013FF2E712
:101B30000244904200D1704700F8011BF9E70246C9
:101B400000F10B010020C30143EA500312F8010B1E
:101B500003448A4203F0FF00F5D17047036810B5D3
:101B6000044653B119460A4611F8010B1F2810D933
:101B70003A28F8D1591C8A4202D04FF0FF3010BDEC
:101B80001B78303BD9B20129F7D8013218462260C0
:101B900010BD014B187810BD5CC4072003692DE906
:101BA000F04101F109020D4663B300242E2741697B
:101BB0004E1E16F8013F0134202B19D0052B48D0BA
:101BC000092C01D117700132A3F1410EBEF1190F9A
:101BD0000CD8082C8CBF4FF0100C4FF0080C91F86B
:101BE0000CE01CEA0E0F1CBF2033DBB21370013275
:101BF0000B2CDED1CB7A2B72CB692B600B8BAB809D
:101C0000CB8AEB8000241470AE693EB3036923B91C
:101C1000002400233355BDE8F081EB69002BF7D099
:101C20004FF6FF73028C9A42F2D0D0F81C80771ED8
:101C300038F814000028ECD0002102F08DF80028BC
:101C4000E6D0EB69013B9C42E2D2013407F8010F78
:101C5000EEE7092C4FF0E503C8D1B3E7BDE8F0810A
:101C6000F8B5456B00F13807044601232A4639468A
:101C7000407802F064FCA0B9A36A226AEB1A93428E
:101C8000207101D30020F8BDE678012EFAD9236A2D
:101C900039461D442A460123607802F050FC013E7B
:101CA000F3E70120F8BD03790BB1FFF7D9BF184660
:101CB0007047FFFF70B50446FFF7F5FF054680BB90
:101CC0002378032B25D16379012B22D104F1380627
:101CD00001464FF400723046FFF72AFF4AF65522BC
:101CE000A4F836220F4A3146A26302F1FF5202F5F0
:101CF00000522032C4F81C2262696078C4F82022A5
:101D00002269C4F82422626A0132626302F017FC7D
:101D1000657100226078114602F02DFC003018BF7A
:101D2000012070BD52526141436B70B58B42054634
:101D30000E4611D0FFF7B7FF044610B1012420462C
:101D400070BD0123324605F13801687802F0DBFBF3
:101D50000028F3D16E63F2E70024F0E7002310B50A
:101D600003714FF0FF3343630446FFF7DDFFA0B973
:101D70004AF65523B4F836229A4210D1D4F86E3080
:101D8000084A23F07F4393420AD0D4F88A0020F017
:101D90007F40801A18BF012010BD032010BD022013
:101DA00010BD00BF464154000023F0B5036085B06C
:101DB000074608461546FFF7D1FE061EC0F2F28020
:101DC0007E4B53F82640002C00F0EE80E06801F0D6
:101DD000A1FF002800F0EA803C6023786BB16078B6
:101DE00002F089FBC10708D4002D00F0E18010F05B
:101DF000040000D00A2005B0F0BD0023F0B223702B
:101E0000607002F065FBC20700F1D4800DB143079A
:101E1000F0D400212046FFF7A1FF012840F0AD805B
:101E20002146002291F8FA310BB1D1F8FE314DF87C
:101E300022300132042A01F11001F3D100265DF8AD
:101E40002650002D00F08D8029462046FFF786FFA2
:101E5000002840F08780B4F84330B3F5007F40F0AD
:101E60008A80B4F84E1001B9E16D94F848202162DF
:101E7000531E012BE2707ED894F84560A670002EA8
:101E800079D0731E334276D1B4F849E01EF00F0FBB
:101E9000A4F808E06FD1B4F84B3003B9A36DB4F8DF
:101EA0004670002F67D04A4307EB1E101044834250
:101EB00061D31B1AB3FBF6F3002B5CD040F6F5762A
:101EC000B3425CD94FF6F576B34294BF022603269F
:101ED00002332F442844032EE3616562A762206326
:101EE0004FD1BEF1000F46D1626E9B00E26203F259
:101EF000FF13B1EB532F3ED34FF0FF3363612361E8
:101F00008023032E637122D1B4F86830012B1ED1D7
:101F1000691C2046FFF708FFC8B94AF65523B4F8F4
:101F2000362260719A4212D1A26B254B9A420ED191
:101F300003F1FF53D4F81C2203F5005320339A42D7
:101F400001BFD4F820326361D4F824322361002029
:101F50001C4A26701388A06101339BB21380E38072
:101F600049E702200136042E7FF469AF032823D00D
:101F700000283FF470AF0D203DE70025F6E701266D
:101F8000A6E7BEF1000FF6D0022E17444FEA430237
:101F90001CBFD21803F00103E7620CBF134603EB2A
:101FA0005203A4E70B2026E70C2024E70F2022E7AA
:101FB000284620E703201EE701201CE760C4072015
:101FC0005252614168C4072010B50446A8B10368A5
:101FD0009BB11A788AB1D988828891420DD1D8688C
:101FE00001F098FE58B12368587802F084FA10F096
:101FF000010F14BF0320002010BD092010BD0F20C9
:1020000010BD50B10F2905D84FF41A4323FA01F13E
:10201000CB0702D4C06801F090BE7047C369023993
:10202000023B99423DBF8378006B01FB0300002017
:1020300070470129F8B507460C464BD9C369994248
:1020400048D20378022B29D0032B34D0012B41D165
:1020500001EB5106816A01EB5621FFF765FE10B1D5
:102060004FF0FF30F8BDB96AC6F3080301363B44B0
:1020700001EB5621384693F83850FFF755FE0028FB
:10208000EED1C6F308063E4496F83800E30745EA69
:1020900000204CBF0009C0F30B00F8BD816A01EBC2
:1020A0001421FFF741FE0028DAD1660006F4FF761E
:1020B0003E44308FF8BD816A01EBD411FFF734FE46
:1020C0000028CDD1A40004F4FE743C44A06B20F0A1
:1020D0007040F8BD0120F8BD70B5044682680D4619
:1020E000012AE18001D1022070BD0368D9698A42CA
:1020F000F9D2BAB91978032901D1D96A99B91989DC
:102100008D42F0D2D86AE2600028ECD0236800EB60
:102110001510383305F00F0503EB45152061656197
:10212000002070BD11460A469E783601B542114620
:10213000206802D2FFF772FFE5E7FFF77AFF431C42
:10214000024607D00128CED92368DB699842CAD25B
:10215000AD1BEBE7012070BD0129F8B505460C4623
:10216000164660D9C36999425DD20378022B3AD0F2
:10217000032B45D0012B54D101EB5107816A01EBB0
:102180005721FFF7D1FD18BBC7F3080314F0010472
:102190002B4417BF93F83820F2B202F00F0132013E
:1021A0001CBF02F0F0020A4383F838200123A96A19
:1021B00001372B7101EB57212846FFF7B5FD38B9E0
:1021C000C7F308072F4434B1C6F3071687F8386001
:1021D00001232B71F8BD97F83830C6F3032623F09E
:1021E0000F031E43F2E7816A01EB1421FFF79CFD08
:1021F0000028EDD1640004F4FF742C442687E7E73F
:10220000816A01EBD411FFF78FFD0028E0D1A40013
:1022100004F4FE7438342B5903F070431E432E51DE
:10222000D6E70220D4E70220F8BDF8B505460F46F0
:1022300071B90669E6B1C3699E4228BF01263446DA
:10224000EB6901349C4216D3012E13D8002408E018
:10225000FFF7EFFE0128044635D9013003D14FF0D6
:10226000FF342046F8BDEB699C42FAD33E46E6E7D0
:102270000126E4E7022421462846FFF7DAFE30B1C2
:10228000411CECD001281ED0B442D9D1DEE76FF05A
:10229000704221462846FFF75FFF90B957B96B6936
:1022A0002C615A1CDDD0013B6B616B7943F001035B
:1022B0006B71D6E7224639462846FFF74DFF0028C6
:1022C000EDD00128CBD00124CBE72DE9F843C68817
:1022D00004460136B3B2894613B90420BDE8F88339
:1022E0000369002BF9D016F00F0807D1C16801333C
:1022F0000361006859B903899E42EED22368E680E3
:10230000383303EB481363610020BDE8F883877816
:10231000013F17EA1617F1D1FFF78BFE012805469A
:1023200002D80220BDE8F883421C02D10120BDE89A
:10233000F8832068C3699D4227D3B9F1000FCCD040
:10234000E168FFF772FF0546002831D00128E8D088
:10235000431CEBD02068FFF7A6FC01460028E5D11E
:1023600020684FF400723830FFF7E2FB22682946FC
:102370001046FFF753FE4FF0010950632068837841
:102380009F4209D3436BDF1B4763E5602946206802
:10239000FFF744FE2061B1E780F80490FFF760FC8E
:1023A0000028C3D122680137536B01335363E5E73B
:1023B0000720BDE8F883FFFF2DE9F74F4FF0FF0836
:1023C0004FF6FF7706464446078431693068FFF7C9
:1023D000ABFC824600285ED175692B78002B76D045
:1023E000E52B06D0E97A01F03F02090703D50F2A51
:1023F00003D0378447E00F2A54D1D6F81CB0BBF184
:10240000000F41D058063CD503F0BF04F38895F87F
:102410000D8033846B7B434535D195F800A00120B6
:102420002AF0400A0AF1FF334FF00D0A4FF000097D
:102430000AFB03FA274B19F80320AA5A78B310466F
:1024400001F0A8FCBAF17F0F01901CD80AF101023B
:102450003BF81A00009201F09DFC0199814212D1D3
:10246000009A924609F10109B9F10D0FE2D12B78DA
:10247000590603D510B13BF81A3023B9013CE4B238
:1024800002E0A342C6D0FF2400213046FFF71DFF23
:102490008246002899D0504603B0BDE8F08FBA427A
:1024A000E0D0F0E724B92846FFF749FB4045F2D0D9
:1024B000B369DA7AD2079CD403F10B009842EAD0D0
:1024C00015F8011B13F8012B9142F7D091E74FF05B
:1024D000040AE0E7845E02002DE9F74F0B78054619
:1024E0002F2B884601D05C2B11D1002308F1010865
:1024F000AB6098F800301F2B00F2CF8000212846F7
:10250000FFF7EAFD00236B6103B0BDE8F08F0368BD
:102510009B69EDE727F8020F4646CEE02028A0444D
:1025200034BF04240024012E11D1B9F800302E2B21
:1025300014D009EB4603002E00F0DE8033F8022DA4
:10254000202A02D02E2A40F0DB80013EF3E7022E43
:10255000EFD1B9F802302E2BEBD1E6E7002329F8B2
:1025600016309E428CBF2E212021AA69D1540133FE
:102570000B2BF6D1AB6944F02004DC720021284615
:10258000FFF7AAFD002871D0AB69DB7A002875D06F
:102590000428B9D113F0200F03F004036AD00022FD
:1025A000AA606A61002B78D00020ADE7013139F8CC
:1025B0001130202BFAD02E2BF8D009B144F00304AF
:1025C0003B4633F8022D2E2A01D0013EF9D14FF0BF
:1025D000000A0823574639F8110001F1010B0028C1
:1025E00000F0A380202804D02E2806D1B34500F0A7
:1025F000938044F003045946EDE79A4580F08F80BC
:10260000B3450FD10B2B06D18CE0B34503D044F07A
:10261000030400F28A80BF00FFB2B3460B234FF0E1
:10262000080AE8E77F280DD90021019301F094FB07
:10263000019B18B1554A104410F8800C80B244F048
:10264000020438B1524A12F8011F002900F08F80AD
:102650008142F8D15F2044F00304A96901F80A001F
:102660000AF1010AC7E747F00207F6E72846FFF735
:10267000A3FE89E7002B08BF052045E75A0793D43E
:102680006A69D37ADB0639D52968538B097803291F
:1026900004BF928A43EA0243AB6098F80030444694
:1026A0002F2B08F10108F8D05C2BF6D00026D5F8C6
:1026B0001C9004F1FF3AA9F102071AF8010F06F184
:1026C00001081F287FF62AAF2F283FF427AF5C2888
:1026D0003FF424AFB8F1810F0ED0012101F03CFB93
:1026E00050B17F283FF616AF2A4A12F8013F002B5F
:1026F0003FF410AF9842F8D1062005E7052003E724
:102700000023202129F816300B22A869FFF710FAC0
:1027100009EB460719464AE79A45FFF473AF0B2BBE
:102720007FF473AF0B2344F00304AA691178E52901
:1027300004BF05211170082B04BFBF00FFB207F0D2
:102740000C030C2B03D007F00302032A01D144F041
:102750000204A10709D407F00307012F08BF44F0C2
:102760001004042B08BF44F00804AB6905E7A0F18E
:10277000410119297FF677AFA0F1610119299EBFA8
:10278000203847F0010780B267E700BF045E02000F
:10279000E45E0200DB5E020070B50E4600210446D6
:1027A000FFF79AFCA8B9054621692068FFF7BCFA33
:1027B00078B963691B78E52B00D01BB90135B542A8
:1027C00001D170BD054601212046FFF77EFD00289E
:1027D000EAD0042808BF072070BDFFFF0C222DE9B6
:1027E000F043866987B0C769044631460DEB0200A5
:1027F000FFF782F99DF8173013F020026AD1DB074A
:1028000070D54FF00109DFF8D481F272E2610B223A
:1028100003A93046FFF770F9B9F1050F4FD84B46C1
:10282000072203F00F0000F13001392988BF00F1C1
:102830003701013A01A810441B094170F1D17E20F3
:1028400006A9114401F8140C9A423DD0F15C2029EC
:1028500038D13344072A8FBF202106A9891811F8DF
:10286000141C98BF013203F8011B991B0729F1D9E9
:1028700000212046FFF730FC054668BB2046FFF7E5
:102880009BFD054640BB09F10109B9F1640FBED1BA
:102890000725284607B0BDE8F083102102F00105A6
:1028A00005EB4303DD0348BF83EA080301394FEA20
:1028B0005202F3D130F8022F002AEED1B0E7B81E51
:1028C0004B46F7E70133BFE71346C2E701360EE098
:1028D000012614E00625DCE7042DDAD19DF8173037
:1028E000F372E7619DF817309B07F1D5002637F8A2
:1028F0001630002BEAD10D231936B6FBF3F631461C
:102900002046FFF749FF05460028C2D1013E49D0C5
:10291000E1882046891BFFF7DFFB05460028B8D178
:10292000A069FFF70CF94FF6FF790746DFF8B08092
:1029300021692068FFF7F8F905460028A9D10F2280
:102940006369D4F81CE0DA720D22F1B24D1E6A43BD
:1029500005465F7318735883484518BF3EF8120048
:1029600015F808C005F1010518BF013223F80C0065
:10297000002808BF48460D2DEED1484502D03EF84C
:1029800012200AB941F04001012219702368002188
:102990001A712046FFF799FC054600287FF479AFAD
:1029A000013EC5D121692068FFF7BEF90546002820
:1029B0007FF46FAF202229466069FFF7B9F80B2238
:1029C000A1696069FFF798F8A3696269DB7A03F08F
:1029D00018031373012223681A715AE721100100AA
:1029E000845E02002DE9F0474FF0FF0A05460F46CE
:1029F000544604264FF6FF79DFF8E080296911B9C3
:102A0000002E5ED055E02868FFF78EF906460028B4
:102A10004FD168690378002B5DD0C27AE52B02F0B4
:102A20003F023ED0A2F1080CDCF1000141EB0C01A9
:102A3000B94236D10F2A3FD15E062CD5E988427BB8
:102A400003F0BF03298490F80DA0924541D10D21D8
:102A500002784FF0010E02F03F02013A4A43002192
:102A6000EE6911F80840045BBEF1000F17D07F2A11
:102A700017D8A64626F81240013201310D29F0D1AF
:102A80000178490604D57F2A0BD8002126F81210B8
:102A90005C1EE4B206E09C4203D15246D3E74C45AB
:102AA000EBD0FF2400212846FFF70FFC0646002844
:102AB000A4D000232B6105E03CB9FFF740F8824524
:102AC00003D100263046BDE8F0874FF6FF732B8414
:102AD000F8E79246E5E70426EBE700BF845E0200D4
:102AE0004FF6FF7370B5018CC5880446994208BF44
:102AF0002946FFF7F1FA0346E8B9E526216920687F
:102B0000FFF712F9034698B9014620226069FFF7E2
:102B10000FF801216269167022681171E2889542EE
:102B200009D919462046FFF7D0FB03460028E5D017
:102B3000042B08BF0223184670BD012970B5044656
:102B40000D4601D8022070BDC3699942FAD2E369EB
:102B50009D4205D229462046FFF76BFA064608B982
:102B6000002070BD0128EDD0411C10D00022294664
:102B70002046FFF7F1FA58B963695A1C05D00133B2
:102B80006361637943F0010363713546DFE7012038
:102B900070BDFFFFF0B585B0019004A840F8041D9A
:102BA00000911646FEF7DAFF051E2ADB174F57F88D
:102BB00025404CB1E06801F0ABF818B9022420467A
:102BC00005B0F0BD00232370019989B9019C47F835
:102BD0002540002CF3D0012E15D16946002201A812
:102BE000FFF7E2F8044601460198FFF70AFAE6E724
:102BF0000023E8B201F80C3B01F080F80028DDD09A
:102C0000E4E70B24DBE70024D9E700BF60C407201A
:102C10002DE9F043D1B0019190460646002800F01E
:102C20008C80002302F01E02036001A906A8FFF7B2
:102C3000BBF80546002874D103AB0C9301990FAB88
:102C400006A80D93FFF748FC0B9C10B9002C08BF99
:102C5000062018F01C0F08F01F073DD098B3042879
:102C600002D106A8FFF7BAFD47F0080748BB0B9C46
:102C700038073BD501F01EFF0023C4F80E0006986C
:102C8000E372E3610278B4F81A80032A08BFA28ACB
:102C90006383A3824FF0010308BF48EA024803712F
:102CA000B8F1000F22D04146D0F83490FFF745FF2D
:102CB00038B9069808F1FF3303614946FFF734F845
:102CC000A0B105462DE0E37A13F0110F33D118F0CF
:102CD000040FCDD0082524E00028F2D1E37AD906EC
:102CE00027D418F0020F01D0DA0724D43B07069B43
:102CF00048BF47F020075A6BB771F2610022346277
:102D0000F2711978628B032904BFA18A42EA014259
:102D10003261E2693360F2600022DB88B260B26146
:102D2000B38029460698FFF76CF9284651B0BDE8F4
:102D3000F0830425F5E70725F3E70925F5E72DE9F5
:102D4000F74F9B460023CBF80030044689461646D1
:102D5000FFF73AF9054610B1294620684AE0E179C3
:102D600039B12068FFF74DF9E579284603B0BDE891
:102D7000F08FA379D80705D407212068FFF741F920
:102D80000725F2E7E368A768DF1BB74228BF37468D
:102D900004F1240300930FB93946DEE7A268C2F3B9
:102DA0000803002B74D120688378013B03EA522387
:102DB00013F0FF0311D12AB92069012808D8022590
:102DC000E571C9E761690193FFF733F9019BF4E706
:102DD000411C01D10125F3E76061D4F800A06169CD
:102DE00050460193FFF71AF9019B30B9022550466E
:102DF0002946E571FFF705F9B7E77E0A00EB0308FE
:102E000029D09AF802209919914288BFD61AF3B2B4
:102E1000424649469AF8010001F075FB0028D9D1D5
:102E2000A3795A060BD5A069A0EB0800864206D903
:102E30004FF40072009909EB4020FEF75DFE760228
:102E4000A368B1443344A360DBF80030BF1B3344B4
:102E5000CBF800309FE7A269904517D0A3795B06B5
:102E60000BD5012300999AF8010001F068FB0028B6
:102E7000B0D1A37923F04003A37120680123424617
:102E80000099407801F03FFB0028A3D1C4F81880D6
:102E9000A1684846C1F30801C1F50076BE4228BFCB
:102EA0003E46243132462144FEF726FEC8E72DE98E
:102EB000F74F9B460023CBF80030044689469046E6
:102EC000FFF782F8054610B12946206868E0E179ED
:102ED00039B12068FFF795F8E579284603B0BDE8D9
:102EE000F08FA379990705D407212068FFF789F8A7
:102EF0000725F2E7A36813EB080F05D204F12403BA
:102F00000193B8F1000F0AD1A368E268934200F27E
:102F1000A280A379002143F02003A371D5E7A26822
:102F2000C2F30803002B40F0838020688378013BC4
:102F300003EA522313F0FF03009316D15AB9216913
:102F400021B9FFF772F901460028DDD0012904D12B
:102F50000225E571B8E76169F3E74A1C01D1012553
:102F6000F7E72369616103B92161A3795B060CD599
:102F700020680123A2690199407801F0E0FA002855
:102F8000EDD1A37923F04003A371D4F800A06169C7
:102F90005046FFF743F830B9022550462946E571FF
:102FA000FFF72FF899E7009B5FEA582600EB03072D
:102FB0002DD0009A9AF8023032449A4288BF009A83
:102FC000494688BF9E1AF3B23A469AF8010001F0CA
:102FD000B6FA0028C3D1A169C91B8E420AD94FF4A1
:102FE000007209EB41210198FEF786FDA37923F0D9
:102FF0004003A3717602A368B1443344A360DBF8B5
:103000000030A8EB06083344CBF8003079E7A36919
:103010009F420CD0A268E3689A4208D201233A4644
:1030200001999AF8010001F06EFA002897D1A76182
:10303000A0684946C0F30800C0F50076464528BFA1
:103040004646243032462044FEF756FDA37943F02D
:103050004003A371CFE7E3605BE770B50446FEF77A
:10306000B3FF0546002838D1A3799A0635D55B060B
:1030700013D520680123A26904F12401407801F0EE
:103080005EFA30B101212068FEF7BBFF012528461A
:1030900070BDA37923F04003A371E1692068FEF7B6
:1030A00043FE0546C8B9266AF37A43F02003F3725B
:1030B000E368F361236973831B0CB38201F0FAFCAC
:1030C0007582C6F81600A379206823F02003A37147
:1030D00001230371FEF7EEFD054629462068FEF741
:1030E00090FFD4E738B50546FFF7B7FF044648B967
:1030F0002846FEF769FF044620B9286821462C605F
:10310000FEF77FFF204638BDF8B504460E46FEF7B1
:103110005BFF054610B1294620686AE0E17929B1D4
:103120002068FEF76EFFE5792846F8BDE368B342F4
:1031300004D2A27912F0020F08BF1E460022A36833
:10314000A260002E30D1A368E2680021934281BFC3
:10315000E360A37943F02003A371DDE70026A368B1
:10316000C3F30803002BEED0A2699642EBD0A379FB
:1031700004F1240713F0400F0BD0206801233946D7
:10318000407801F0DCF9002842D1A37923F0400314
:10319000A3712068012332463946407801F0B3F923
:1031A000002835D1A661CEE7206887787F021BB35F
:1031B000013B721EB2FBF7F2B3FBF7F18A421BD35D
:1031C0007A4213406169A360F61A0029C6D0BE4254
:1031D00023D8A3683344A360C6F30803002BBDD0F3
:1031E00022681046FEF71AFF90BB022510462946BA
:1031F000E571FEF706FF97E7216961B9FFF715F85A
:103200000128014602D10225E57184E7013001D190
:103210000125F9E721616161D7E7A37920689A0761
:1032200005D5FFF702F8014620B93E46D1E7FEF783
:1032300000FF01464B1CEBD00129E4D92368DB6970
:103240009942E0D2A36861613B44A360F61BBEE7EC
:1032500000EB562683E730B5C9B00191054600283A
:1032600037D0002201A903A8FEF79EFD044688B9C5
:10327000039B01992B6004ABAB6107ABEB61284664
:10328000FFF72AF9044630BB6B697BB1DA7AD206C4
:1032900003D4052400232B6014E003995A8B09788A
:1032A000032904BF9B8A42EA0342AA60039B0021D0
:1032B000DB882846AB80FEF70FFF04280446E8D0E1
:1032C000002CE7D121460398FEF79BFE204649B02B
:1032D00030BD0924FAE70428DBD0DBE738B5054622
:1032E000FEF772FE044620B9286821462C60FEF7DE
:1032F00088FE204638BD70B5C4B005460E46FEF7C0
:1033000063FE0446E8B92EB901462846FEF7E4FEFE
:10331000044616E003AB0146C5F818D0EB61284619
:10332000FFF760FB042813D12C6131462846FEF7D5
:1033300035FC00212846FEF7C8FF0428E8D1002309
:103340002B6128682146FEF75CFE204644B070BD24
:103350000028DDD1E9E72DE9F347144602AB43F835
:10336000040D8846204600221946FEF71DFD2468FC
:10337000054630B9E7696369BA1E934209D8C8F8AF
:10338000003020462946FEF73CFE284602B0BDE844
:10339000F08794F80090B9F1010F17D10227064683
:1033A00039462046FEF745FE431C32D0012832D074
:1033B00000B90136E36901379F42F1D36379666151
:1033C00043F001036371C8F80060DAE70346024680
:1033D0000646A16A52B9204601F1010AFEF7A4FC93
:1033E000D8B951464FF4007204F13803B9F1020F15
:1033F00007D1188800B901360233023A013FE9D1FA
:10340000DCE71868043A30F0704008BF0136043336
:10341000F4E70125D2E70225D0E70546CEE730B52F
:10342000D9B00190012201A905A8FEF7BDFC044610
:1034300000283DD102AB0B93019917AB05A80C9363
:10344000FFF74AF80446002832D10B9BDB7A9A0634
:103450003DD40A9B0BB9062404E0DA7A12F0010F7E
:1034600018BF0724059A5D8B1278032A04BF9A8A35
:1034700045EA0245E4B9DB7ADB062ED5012D28D9D1
:10348000242205A90EA8FEF737FB02210EA81095ED
:10349000FEF722FE044658B901460EA8FFF7A2FA2D
:1034A0000446C0B1059B9B69AB4214D0042814D0DC
:1034B00005982146FEF7A5FD204659B030BD2946A6
:1034C0000598FFF73AFB04460028F1D10DE00624E9
:1034D000EEE70224ECE70724EAE705A8FFF700FB84
:1034E00004460028E4D1002DE9D10598FEF7E2FB5F
:1034F0000446DDE72DE9F04FD1B0019001F0DAFA92
:103500000122804601A906A8FEF74EFC04460028C9
:1035100040F0908003AB0C9301990FAB06A80D937C
:10352000FEF7DAFF0446002800F09080042840F0FF
:1035300081800C9BD97A11F0200140F08980069897
:10354000FEF773FE054600287CD0012D6DD06B1C64
:103550007AD00698FEF7A7FB0446002866D1069E9F
:1035600029463046FEF75AFD06F1380721460090FD
:103570004FF400723846FEF7DBFA0B222021384662
:10358000FEF7D6FA10222E2425FA02FA1FFA85F940
:1035900086F843203946202206F1580086F8384044
:1035A000C6F84E80A6F85290A6F84CA0FEF7A4FAF2
:1035B000069986F859400878089A0328009B03D199
:1035C000C86A824208BF0022A6F87220120CA6F830
:1035D0006C208E78A6B906A8FFF700F9044628BB30
:1035E00010220B9B0698DA72C3F81680A3F81A9083
:1035F000A3F814A001230371FEF75CFB044619E055
:10360000069803F1010B43634FF001030371FEF7CA
:1036100027FB044650B901464FF400723846013E7C
:10362000FEF786FAF6B25B46D4E7022429460698EE
:10363000FFF783FA06982146FEF7E3FC204651B0D7
:10364000BDE8F08F0724F1E70124EFE70824F1E754
:103650000624EFE710B5DEB001900091012201A928
:103660000BA8FEF7A1FB0446002878D10B9B01991B
:10367000149302AB11930BA81DAB1293FEF72CFF12
:10368000044600286BD1119BDB7A9A066ED4109900
:1036900009B9042463E015220B3105A8FEF72CFAC2
:1036A00024220BA914A8FEF727FA6846FEF756FA5B
:1036B00000285DDB009914A8FEF70EFF04460028E1
:1036C00058D004284BD114A8FFF788F804460028E6
:1036D00045D1199C13220DF1160104F10D00FEF7DE
:1036E0000BFA9DF814300B9A43F02003E372012388
:1036F00013710D99169B994228D0E37ADB0625D5E4
:103700001378618B032B08BFA38A104608BF41EAD8
:103710000341FEF783FC014670B31046FEF704FB3D
:103720000446E0B90B9B93F859202E2A0ED11A7843
:10373000032A03D11699DA6A914200D0169C01221D
:10374000A3F87240240CA3F86C401A710BA8FFF781
:10375000C7F9044618B90B98FEF7ACFA04460B9863
:103760002146FEF74EFC20465EB010BD0624F6E76B
:103770000B24F4E70824F2E70224F0E770B58CB0DC
:103780000CAB43F82C0D0D4616461946002203A833
:10379000FEF70AFB044650BBCDB10590014603A8D5
:1037A000FEF79AFC70BB012103A8FFF71BF928BBA9
:1037B00008990B222846FEF79FF9214605F10B03D5
:1037C000AB42197003D013F8012D202AF8D076B13E
:1037D0000398416AFEF7A8FA044640B9039B1A7899
:1037E000032A0CBF4322272213449B6B33600398A8
:1037F0002146FEF706FC20460CB070BD042801D11E
:103800002C70E4E70446F2E72DE9F04F89B008ABED
:1038100043F80C0D18460E461546FEF79FF9002892
:10382000C0F2F781012E00F2F6816B1E2B4002934D
:1038300040F0F181504B53F82040002C00F0ED8116
:103840009DF80830C7B22370384600F041FEC20729
:1038500000F1E581430700F1E48107AA0121384620
:1038600000F089FE18B1012009B0BDE8F08F07997A
:103870007F29F8D9002E14BF4FF0000A4FF03F0AFD
:10388000A1EB0A0107915DB94FF4FA63B1FBF3F3C1
:103890003A4830F81520934218D3394B33F8155075
:1038A0006D0A15D0802D28BF8025B1FBF5F340F6B9
:1038B000F572934240F2F8814FF6F572934200F2AE
:1038C000B28102335B004FF00208F4E10135E0E71A
:1038D0000125EAE706AA0321384600F04CFE20B98C
:1038E000069B013BB3F5004F01D301230693069AD3
:1038F000B8F1030F02F1FF334B44C2F1000203EAB7
:103900000203A3EB0903069322D1019A9B441A44B4
:103910000192079A0099A2EB0B035B1A0399B8F185
:10392000020FA3EB0103B3FBF5F3049314D140F6AC
:10393000F5730499994240F2D581B2F5803F34BFC6
:103940004FF004094FF006094EB34FF0F0095DE067
:10395000009A1A440092DCE7B8F1030F12D14FF637
:10396000F573049A9A4240F2BD81002E40F06781BF
:103970004FF00C0913E000BF60C40720EC5E0200AA
:10398000925E0200B8F1010FD7D1B2F5803F34BF8B
:103990004FF001094FF00609002E40F06B8104F151
:1039A00038064FF4007200213046FEF7C1F8FE21C0
:1039B00043F6C160DDF81CE084F8FB110AEB0E0150
:1039C000B1FBF0F18808069184F8FD113F21012335
:1039D0000022C4F8FE114AF6552140F03F0084F859
:1039E000FC01A4F8361284F8F73184F8F83184F831
:1039F000F92184F8FA91C4F802E23146384600F021
:103A00009EFD00287FF42FAF4FF0F80904F138062F
:103A10004FF4007200213046FEF78AF80B22B249BB
:103A20003046FEF769F84FF40073A4F843300123E1
:103A3000B8F1030F84F84830029B18BF4FF40073AD
:103A400084F84550A4F846B00293BDF8083084F8D5
:103A50004D90A4F84930079BC4F854A0B3F5803FBB
:103A600034BFA4F84B30A3653F23A4F85030FF23A4
:103A7000A4F8523001F01EF8B8F1030F069040F0A0
:103A80009C80009B1322E365022363660123A4F854
:103A900068300623A4F86A30802384F8783029231C
:103AA0009249C4F87B0084F87A3004F17F00FEF775
:103AB00023F84AF655235246A4F8363231460123FC
:103AC000384600F03CFD00287FF4CDAEB8F1030F7E
:103AD00006D101230AF106023146384600F02FFDD7
:103AE0004FF4007200213046FEF722F8B8F1030FC0
:103AF00074D0B8F1010F7E4B18BF6FF0FF0343EA9B
:103B000009030693A363019B314603F10109019A5E
:103B10000123384600F013FD014600287FF4A3AED0
:103B20004FF400723046FEF703F801230693069B1C
:103B3000009A9A425DD8039B4A46B8F1030F18BF1A
:103B40001D464D4401233146384602F1010B00F079
:103B5000F6FC00287FF487AEAB455A46F2D1B8F1A7
:103B6000030F21D1634B3146A36303F1FF5303F5E8
:103B700000532033C4F81C32049B3846013BC4F880
:103B800020320223C4F824324AF65523A4F83632F0
:103B900001230AEB030200F0D2FC01230AF1070221
:103BA0003146384600F0CBFC00223846114600F082
:103BB000E2FC003018BF012056E6BDF80030C4F822
:103BC0005F00A4F84E30802384F85C302923132250
:103BD00084F85E30484904F1630068E769F0FF0348
:103BE0000693A3634FF0FF33E3636FF070432364E6
:103BF00089E701234A463146384609F1010B00F0B6
:103C00009EFC00287FF42FAE069BD9460133069315
:103C10008DE70B2028E6132026E60C2024E603205F
:103C200022E60A2020E69B0003F207235B0A0093AA
:103C300000234FF0030803934FF0200B43E004F1FF
:103C400038064FF4007200213046FDF771FF0B2259
:103C500025493046FDF750FF4FF40073A4F8433078
:103C6000012384F84550A4F846B084F848304FF05A
:103C7000F009EAE604F138064FF4007200213046FC
:103C8000FDF756FF0B2218493046FDF735FF4FF47C
:103C9000007384F84550A4F84330A4F846B084F883
:103CA00048804FF0F009CFE64FF0010803EB4303E3
:103CB00001335B08033303F2FF135B0A00932023F5
:103CC0004FF0010B03930BEB0A030193039A009B44
:103CD00003EB0209019B9944A5EB0A034B4499426B
:103CE000BFF4F8AD0E20BFE5A85E0200B45E02008E
:103CF00000FFFF0052526141C85E020010B5012072
:103D00000C4605F0F7F82060003018BF012010BD08
:103D10000120704710B5044605F066FF02280AD15D
:103D200000234FF0FF321946204605F069F9431E83
:103D30005842584110BD012010BD10B5044605F091
:103D400053FF022807D100232046BDE810401A4641
:103D5000194605F04DB810BD7F2810B516D931B100
:103D6000FF2812D80A4B803833F8100010BD084ADB
:103D700032F811408BB2844203D001318029F7D14F
:103D80000B4603F18000C0B210BD002010BD00BF83
:103D9000025F02000023064931F8132022B182425B
:103DA00003D1044A32F8130070470133F4E700BF2F
:103DB00002600200E261020008B5FCF76FFB4FF4FD
:103DC0007A7200230AF00CFC08BDFFFF10B5044610
:103DD000FCF7F2FC074BB0FBF3F00223B0FBF3F26D
:103DE000944202D3044A136110BDB3F5807FF9D029
:103DF0000233F3E740420F0000000340034B98609A
:103E0000DA68D206FCD49868C0B27047000003405C
:103E100070B5FFF7D1FF00F5FA74FF20FFF7EEFF52
:103E20000025FF20FFF7EAFFFF28064605D0FFF731
:103E3000C3FFA94208BFA042F3D3304670BDFFFFC5
:103E400038B54FF00075054CE561FFF7E1FF044A16
:103E5000A561137843F00103137038BD20C0092019
:103E600095C007202DE9704306460D46FFF7A4FFD5
:103E7000643080464FF00009FF20FFF7BFFFFF28A6
:103E800008D1FFF799FF494508BF4045F4D300200A
:103E9000BDE87083FE28FAD1102D0ED900224FF410
:103EA0000071304604F09CFBFF20FFF7A7FFFF20C6
:103EB000FFF7A4FF0120BDE87083341D0435FF2007
:103EC000FFF79CFF04F8040CFF20FFF797FF04F8AE
:103ED000030CFF20FFF792FF04F8020CFF20FFF70E
:103EE0008DFF043404F8050C2B1BDE42E7D1DBE721
:103EF00070B506460D46FFF78BFFFF28044619D123
:103F00002846FFF77BFFFD2D16D022464FF40071A7
:103F1000304604F065FB2046FFF770FF2046FFF7B0
:103F20006DFF2046FFF76AFF00F01F00431F584255
:103F3000584170BD002070BD012070BD020638B52B
:103F400004460D4607D500217720FFF7F7FF01282B
:103F500036D804F07F044FF000721A4B9A61DA6190
:103F6000FFF756FFFF282AD12046FFF747FF280E0C
:103F7000FFF744FFC5F30740FFF740FFC5F30720F5
:103F8000FFF73CFFE8B2FFF739FF402C15D0482C73
:103F900014BF01208720FFF731FF4C2C02D1FF20F6
:103FA000FFF72CFF0A21FF20FFF728FF030607D5A4
:103FB000013911F0FF01F6D138BD9520EBE7FF2064
:103FC00038BD00BF20C00920064A07491378496957
:103FD000DBB2490154BF03F0FD0343F00303137048
:103FE000704700BF95C0072020C009202DE9F74386
:103FF000FFF7EAFF554B1A781E4612F0020F04D065
:104000001878C0B203B0BDE8F0830120FFF7DEFEF0
:104010000A24FF20013CFFF7F1FE14F0FF04F8D161
:104020004FF000734A4F2146FB614020FFF786FFA7
:104030000128804613D04FF00008464B83F80080DB
:104040004FF00073BB61B8F1000F7BD033781820BC
:1040500003F0FE033370FFF7B9FE3078D1E7FFF7C6
:10406000ABFE4FF4D57100F57A754820FFF766FF77
:10407000012840D10DF10408FF20FFF7BFFE08F82A
:1040800004000134042CF7D19DF80630012BD2D165
:104090009DF80730AA2BCED12C460025FFF78CFEC9
:1040A000A94208BFA0421ED3FFF786FEA94208BF5F
:1040B000A042C0D200217A20FFF740FF0028BAD1E9
:1040C0000146FF20FFF79AFE08F80100013104299C
:1040D000F7D19DF8043013F0400F14BF4FF00C08D7
:1040E0004FF00408A9E74FF08041E920FFF726FFD1
:1040F0000028D3D1D8E72146E920FFF71FFF022887
:104100002C4636BF4FF0E9094FF041094FF0020845
:104110000025FFF751FEA94208BFA0420BD3FFF7CD
:104120004BFEA94208BFA04287D34FF40071502034
:10413000FFF704FF81E700214846FFF7FFFE002854
:10414000E7D1ECE7FFF77CFE87E700BF95C00720CB
:1041500020C009206AC4072008B5FFF735FF014BCE
:10416000187808BD95C0072070B514460646084665
:10417000FFF72AFF002C38D01E4B1B78DA0736D405
:104180004FF000721C4DEA611C4A1278130758BFA9
:104190004002012C014612D15120FFF7CFFE38B961
:1041A0004FF400713046FFF75DFEB0FA80F4640909
:1041B0004FF00073201CAB6118BF012070BD52206E
:1041C000FFF7BCFE0028F3D14FF400713046FFF733
:1041D00049FE28B1013C14F0FF0406F50076F3D146
:1041E00000214C20FFF7AAFEE2E7042070BD032067
:1041F00070BD00BF95C0072020C009206AC40720F9
:10420000F8B5144606460F46FFF7DEFE002C44D0F4
:10421000254B1A78D10742D41B785A0741D44FF066
:104220000072224DEA61224A1278130758BF7F02BA
:10423000012C12D139465820FFF780FE58BBFE21D1
:104240003046FFF755FEB0FA80F464094FF0007372
:10425000201CAB6118BF0120F8BD12F0060F03D07F
:104260002146D720FFF76AFE39465920FFF766FE40
:104270000028EBD1FC213046FFF73AFE28B1013C83
:1042800014F0FF0406F50076F4D1FD210020FFF7BD
:104290002FFE0028DAD10124D8E70420F8BD03203E
:1042A000F8BD0220F8BD00BF95C0072020C009203E
:1042B0006AC407207FB50D46FFF786FE05281AD190
:1042C0002B78012B15D005D3022B0BD004242046CC
:1042D00004B070BD7B4B5C6914F0806409D1FFF7BA
:1042E000AFFDF4E7774B5B6983F08063C3F38063D2
:1042F0006B700024EBE7744B1B78DB0700F1E08068
:104300000E2800F2DB80DFE800F00817555AD9D9F3
:10431000D9D9D9D9A7ABBABDCD004FF00072694B3E
:10432000DA61FFF775FDB0F1FF0418BF01244FF00B
:104330000072644B9A61CAE700214920FFF7FEFD35
:10434000044608B10124F2E710216846FFF78AFD10
:104350000028F7D09DF800309DF808109B09012B2C
:104360009DF8093006D15A1C02EB012292B292024A
:104370002A60DCE79DF807209DF80A00920002EB16
:1043800091129DF806100132890201F440610A443D
:104390009DF805105B0001F00F0101EBD011023117
:1043A00003F006030B44DBB292B2093B02FA03F3BB
:1043B0002B60BCE74FF400732B800024B7E7434E1B
:1043C000317811F004011CD00021CD20FFF7B6FD9B
:1043D0000028B7D1FF20FFF711FD10216846FFF735
:1043E00041FD0028AED03024FF20FFF707FD601EFE
:1043F00010F0FF04F8D19DF80A301A0910239340F9
:10440000D6E74920FFF79AFD044600289AD11021EB
:104410006846FFF727FD002894D030789DF80A30D1
:1044200010F002009DF80B100AD05B009DF80D20E3
:1044300003F07E0303EBD11392090133013ADEE767
:10444000CA0002F01802C3F3840302EB51120133D5
:1044500002FB03332B60B0E71C4B1B782B70ACE7DF
:1044600000214920FFF76AFD00287FF46BAF10217F
:104470002846FFF7F7FCB0FA80F4640957E70021FB
:104480004A20EFE700217A20FFF758FD00287FF44B
:1044900059AF291DFF20FFF7B1FC05F8010B8D4234
:1044A000F8D18AE70021CD20FFF748FD00287FF4EE
:1044B00049AFFF20FFF7A2FC4021D9E7042436E7EB
:1044C000032404E720C0092095C007206AC4072000
:1044D00010B5044604F0E4F81CB1012C08D0042403
:1044E00002E000F057F9044604F0F2F8204610BD4F
:1044F000FFF77CFDF7E728B1012801D004207047C1
:10450000FFF72ABE7047F8B507460C4615461E460B
:1045100004F0C6F81FB1012F0BD0042405E0324689
:104520002946204600F082F9044604F0D1F82046DE
:10453000F8BD324629462046FFF716FEF4E7F8B5E7
:1045400007460C4615461E4604F0AAF81FB1012F77
:104550000BD0042405E032462946204600F08EF9AF
:10456000044604F0B5F82046F8BD324629462046F8
:10457000FFF746FEF4E770B506460C46154604F014
:104580008FF81EB1012E0AD0042404E029462046EB
:1045900000F09AF9044604F09BF8204670BD2946C5
:1045A0002046FFF787FEF5E7054B1B78253BDBB27E
:1045B000032B9ABF034A52F823000020704700BF24
:1045C00070C40720CC6302001B4B2DE9F0411D880D
:1045D0000646B5F5007F0F46144603D12A4621460C
:1045E00038460BE0B5F5807F0CD12A462146384687
:1045F000B0472A4604F5807107F580703346BDE860
:10460000F0411847B5F5047F04D1510A89024FF4EF
:104610000072E5E7B5F5847F0BD1140A61024FF40F
:1046200080723846B0474FF4807201346102B81886
:10463000E4E7BDE8F08100BF72C4072010B5294B44
:1046400000294DDD0729027829DD9A604278083972
:104650009A6082789A60C2789A6002799A60427908
:104660009A6082799A60C47900F108029C609C6922
:104670006407FCD59C6804709C6844709C688470D6
:104680009C68C470DC68E406FCD49C6804719C6877
:1046900044719C6884719C68C4711046D0E70329FA
:1046A00014DD9A60427804399A6082789A60C478FE
:1046B000021D9C60DC68E406FCD49C6804709C6865
:1046C00044709C6884709C68C470E6E7441C9A60DF
:1046D0000139DA68D206FCD49A6802702046AFE746
:1046E00010BD00BF0000034007B50B0C8DF805306E
:1046F0008DF807100B0A04218DF804000DEB010062
:104700008DF80630FFF79AFF03B05DF804FBFFFF5A
:10471000F7B5032340250E4C1746E5618DF80430AC
:104720000B0C8DF805308DF807100B0A0421064696
:104730000DEB01008DF80630FFF780FF00223946AF
:10474000304603F04DFFA561A561A56103B0F0BD42
:1047500000C0092040220D4BDA61D7220C4B9A6031
:10476000DA68D206FCD40A4A9B68FF21134691609E
:10477000D868C006FCD4986810F0800FF7D04022AB
:10478000024BC0B29A619A619A61704700C00920D9
:1047900000000340F7B5FFF7DDFF002340271E4C64
:1047A0001E4E23801E4BF7611A889B780546032115
:1047B00001A8ADF804208DF80630FFF73FFF9DF803
:1047C00005209DF806301F2AB761B761B76115D182
:1047D000A3F12502032A11D8124A252B137005F0E4
:1047E000010011D1002814BF4FF480734FF484737B
:1047F0002380FFF7D9FE0C4B400A18602088B0FADE
:1048000080F0400903B0F0BD002814BF4FF40073DE
:104810004FF40473ECE700BF72C4072000C0092006
:10482000C263020070C407206CC407202DE9F04168
:104830008B1817460F4A013B12680446934212D860
:104840004D020026FFF786FFDFF82C802D1BBE42AD
:1048500004EB05020ADA21464046FFF7B5FE04F5EF
:1048600000740136F3E70120BDE8F0810020BDE8C7
:10487000F08100BF6CC40720114701008B182DE99F
:10488000F04117460E4A013B1268934211D8044684
:104890000026DFF83080C0EB4125BE4204EB050264
:1048A0000ADA21464046FFF78FFE04F50074013610
:1048B000F3E70120BDE8F0810020BDE8F08100BFF2
:1048C0006CC40720A949010008B5072805D8DFE80E
:1048D00000F0060A0F1308080808042008BDFFF7B7
:1048E00039FF002008BDFFF75FFE400A0860F8E7C7
:1048F0004FF400730B80F4E701230B60F1E7FFFF37
:1049000070B590B003466A466E4600F14005144605
:1049100018685968083303C4AB422246F7D14024D3
:10492000074D0021EC619B20FFF7DEFE214630465B
:10493000FFF784FEAC61AC61AC6110B070BD00BF2C
:1049400000C0092070B540240646074D002177209D
:10495000EC61FFF7C9FE21463046FFF76FFEAC6100
:10496000AC61AC6170BD00BF00C0092008B5064B4A
:10497000198831F01F0104D0FFF716FEB0FBF1F0EB
:1049800008BD084608BD00BF72C40720014B188847
:10499000704700BF72C40720024B1878003018BF60
:1049A0000120704772C407204FF0FF332DE9F74311
:1049B0000F46914601938046FFF7CCFEFFF7ECFFD0
:1049C0000646B8B14025194C194BE5611B880320F8
:1049D000B3F5847F0CBF4FF480714FF400713943FD
:1049E000FFF782FE04210DEB0100FFF727FEA56112
:1049F000A561A56140230D4C39468220E361FFF794
:104A000073FE01224946404603F0EAFD3EB1019B98
:104A100002A8013340F8043D0421FFF70FFE4023B4
:104A2000A361A361A36103B0BDE8F08300C00920C6
:104A300072C40720124B37B51B88B3F5847F0CBFB7
:104A40004FF480714FF400714FF0FF3341EA402181
:104A50000193FFF7A1FF68B140250A4C0320E561EF
:104A6000FFF742FE04210DEB0100FFF7E7FDA56112
:104A7000A561A5610198431C08BF002003B030BDAB
:104A800072C4072000C0092037B540250421074B18
:104A9000074C18680190E5610DEB0100FFF7CEFDB2
:104AA000A561A561A56103B030BD00BFC56302006B
:104AB00000C009201FB501A803F014FA9DF80930C1
:104AC00003F00F009DF8083003F01F031B0443EAB6
:104AD00040539DF8060000F01F0043EAC0239DF8F4
:104AE000050000F03F0043EA40139DF80400C0F3C6
:104AF00044000343BDF80A00400600F10840184393
:104B000005B05DF804FBFFFFF0B5864687B0114F96
:104B10004C1101F01F0501AE457004700FCF0FC698
:104B2000032170463B686D00336006AB03EB8403E2
:104B300053F8143C01FA05F5CEF80430E30003F114
:104B4000804303F530331A6822EA05051D6007B07B
:104B5000F0BD00BFDC6302000122416840780B68B1
:104B6000824023EA02030B607047012342684078C9
:104B7000116883400B4313607047436841785A695A
:104B800001238B40134214BF0120002070470123F2
:104B9000417842688B4093617047012341784268B5
:104BA0008B40D3617047FFFF427830B5510003223C
:104BB0000578044C8A4054F8353023EA020344F85F
:104BC000353030BD40C0024010B5094A0478012399
:104BD000407831B152F8241083400B4342F824301E
:104BE00010BD52F82410834021EA0303F6E700BF0A
:104BF00068C0024010B50446FFF7AEFF0021204612
:104C0000FFF7E2FF2046FFF7CFFF204610BD2DE95A
:104C1000F04FADF2546D0C4690460146012282A839
:104C20009946FDF7F5FF824650B90A2221460DF25A
:104C30002C40FDF7EDFF824638B182A8FEF752FA0C
:104C400050460DF2546DBDE8F08F6C4605460646A1
:104C5000074620600190FBF721FC4FF47A72002395
:104C600009F0BEFC234683464FF4007202A982A8D5
:104C7000FEF765F8824608B922689AB9B8F1000FC4
:104C800001D0C8F80070B9F1000F01D0C9F8006078
:104C9000DDF8783603B11D6082A8FEF723FA0DF225
:104CA0002C40CBE7FBF7FAFB4FF47A72002309F0B4
:104CB00097FCB0EB0B000744FBF7F0FB4FF47A7264
:104CC000002309F08DFC01AB8346226802A90DF296
:104CD0002C40FEF7ECF882460028CFD101992268DB
:104CE0009142CBD1FBF7DAFB00234FF47A7209F043
:104CF00077FC2368B0EB0B0006441D44ABE7F0B52E
:104D00001D460023ADF50B7D0E46174601460122D8
:104D100001A80093FDF77CFF044670B91DB1294638
:104D200001A8FEF7F1F96B463A46314601A8FEF7B5
:104D300006F8044601A8FEF7D5F920460DF50B7DCF
:104D4000F0BDF0B51D460023ADF50B7D0E461746B0
:104D500001460A2201A80093FDF75AFF044670B9E4
:104D60001DB1294601A8FEF7CFF96B463A463146F8
:104D700001A8FEF79CF8044601A8FEF7B3F9204607
:104D80000DF50B7DF0BDF0B51D460023ADF50B7D97
:104D90000E4617460146122201A80093FDF738FF80
:104DA000044670B98DB1294601A8FEF7ADF96B46EE
:104DB0003A46314601A8FEF77AF8044601A8FEF704
:104DC00091F920460DF50B7DF0BD0499ECE71346F3
:104DD0000A460179006802F008BD1FB5002204AB45
:104DE00023F8042D02220479009200680A46214625
:104DF00002F0E6FC9DF80C009DF80D3043EA00201F
:104E000004B010BD10B5044619222A21FFF7DFFFB8
:104E10000D222179206802F0D7FCA0F12A03584224
:104E2000584110BD044A13881F2BDFBF581C108047
:104E3000024A42F823107047F4C4072074C40720C4
:104E4000F0B5154E3388012B23DD144A002015469A
:104E5000013B984208DA52F8041F013052F8044C22
:104E6000091B42F8041CF4E700214FF0010E0C4628
:104E7000686800EB50008AB2934208DD55F8227052
:104E80000131B8423CBF0EFA02F21443F3E7044B7F
:104E90001C6000233380F0BDF4C4072074C40720D5
:104EA000F8C4072008B501210220FBF737FD084BA5
:104EB00001209A6A22F007029A629A6A42F0060278
:104EC0009A62044AD36843F03003D36008BD00BF40
:104ED0000080004000C0024008B5044B417101F061
:104EE0007F015A5C0321FFF772FF08BDF0630200E7
:104EF00008B5044B817101F07F015A5C0221FFF774
:104F000066FF08BDF063020038B504460179006809
:104F100002F076FC054688B1002206212046FFF704
:104F200056FF002207212046FFF751FF2E21204681
:104F3000FFF7D2FF2E212046FFF7DAFF284638BDC3
:104F400070B56424B1FBF4F303FB14140A21E4B23A
:104F5000B4FBF1F501FB15413031C9B20646FFF74C
:104F6000C7FF092C88BF05F130013046BDE870400D
:104F700094BF2021C9B2FFF7AFBF01207047FFFFE8
:104F800038B50C46054603F00FFD012204F00F036F
:104F90002B700E4B14F0010F14BFDA619A610222DC
:104FA00014F0020F14BFDA619A61102214F0040F9A
:104FB00014BFDA619A614FF4807214F0080F14BFC5
:104FC000DA619A61BDE8384003F0FEBC20C00920D8
:104FD00001207047022003F049B901207047FFFF0C
:104FE000044B5B69180B00F00C00C3F3412318431A
:104FF000704700BF20C009200139032908B505D832
:10500000FFF7EEFF084100F0010008BD002008BDD9
:1050100010B5044681220121FFF7D9FE0122217932
:10502000206802F0D1FB10F0600F14BF01200020B7
:1050300010BD38B500210446FFF7CFFE812205B22E
:1050400001212046FFF7C3FE102095FBF0F009F088
:10505000DDF84FF0765109F02DF9A16809F022F83A
:1050600038BDFFFF08B5FFF7E4FF054909F022F955
:10507000044909F0D3F94FF0844109F013F808BD51
:10508000000010410000A0402DE9F0430646C1B0E9
:10509000154698460C46002950D0114647680068CE
:1050A000A04729462648A047B268264968460BF023
:1050B000B7FE29466846A047F268224968460BF0C9
:1050C000AFFE29466846A0471F49327C68460BF070
:1050D000A7FE29466846A047B8F1000F0FD06946E1
:1050E0004FF48072304600F063FB29466846A047C3
:1050F00016482946A047012041B0BDE8F0833A7820
:10510000134968460BF08CFE29466846A047B368F1
:10511000F668DFF840905E4307F101080136A6EB20
:1051200008033B44012BE3D9494618F8012B684694
:105130000BF076FE29466846A047F0E70846DBE715
:10514000247402007064020075640200837B020014
:105150007A6402007964020070B50D4604460BF0D3
:105160003FFF2B46024601212046BDE8704009F072
:10517000AFBFFFFFF0B50C4687B017461D46064689
:1051800048B341B31022002102A80AF0A3F97068C5
:1051900000F0A4FD1149024602A80BF041FE294689
:1051A0000F48A04729463068A04729460D48A04728
:1051B000294602A8A04700972B4622460A49706854
:1051C00000F0D7FD29460948A04729463068A04786
:1051D00029460748A04707B0F0BD00BFDF6D0200B9
:1051E0007F6402002474020089500100866402007A
:1051F000837B02004B688A680968FFF7BBBFFFFF2B
:105200001FB501900291039201A90022024800F00B
:1052100043F905B05DF804FBF55101000B4619B1E7
:1052200000220249FFF7A6BF704700BF5951010095
:105230002DE9F04FC9B008AE054680220021304666
:105240000AF048F90024DFF89CA12A467F21304665
:1052500009F024FD18B9204649B0BDE8F08F604937
:1052600030460BF026FF8642EFD13A210BF098FE34
:1052700000F101083A2140460BF092FE0746002853
:10528000E3D000230370404600F0BEF801900028F0
:10529000DBD0781C09F033FB80460DF1A009B8F192
:1052A000000F01D10124D0E70024802200214846CC
:1052B0000AF010F92746284609F086FC431C19D04D
:1052C0003A2819D10137032F16DD002407AA5146C9
:1052D000484607940CF05DFD07AA51460746204654
:1052E0000CF057FD07AA8346514620460CF051FDAD
:1052F00004463FB90024AEE709F8040001347F2CCE
:10530000D9D1E2E7BBF1000FF4D00028F2D0584623
:1053100009F0F5FA8346204609F0F1FA394600FB18
:105320000BFB019800F022F980B18268C3685343F7
:105330009B450BD1476807EB0B034FF0FF3B0393F3
:10534000039B9F4205D1BBF10A0FD3D108F1FF386F
:10535000A5E7284609F038FC0446284609F034FC45
:105360000290284609F030FCB0F1FF3F8346C1D0DF
:1053700009F0DAFFE3B25A1C815C480712D5303CD1
:1053800009F0D2FF9DF80830E4B25A1C815C240178
:105390004907E4B215D5029B303B1C44E4B207F840
:1053A000014BCDE70593049209F0BEFF049A059BDB
:1053B000825C02F00302012A08BF2033A3F15704E4
:1053C000DEE70492029309F0AFFF049A029B825C2D
:1053D00002F00302012A08BF2033573BDDE700BF7C
:1053E0007F6402002474020010B50C4611461A4670
:1053F000A047012010BD08B500680BF0DFFD0030AC
:1054000018BF012008BDFFFF07B5002330B10246D9
:10541000044800930449006800F095FC03B05DF86F
:1054200004FB00BFFCC40720F7530100F8B5064693
:1054300010B900242046F8BD0378002BF9D0154D93
:105440002B6813B900F040FC28603046FFF7DCFF02
:1054500007460028EDD1082009F0D8FF04460028AF
:10546000E7D080E8C00000F02FFC606018B920464B
:1054700009F0D4FFDDE72868214600F032FC05463C
:105480000028D7D1606809F0C9FF204609F0C6FF9F
:105490002C46CFE7FCC4072007B50B4630B100927D
:1054A000024604480449006800F063FC03B05DF85C
:1054B00004FB00BFFCC40720E953010008B54268A3
:1054C0004B689A4207D0096800680BF077FD0030FE
:1054D00018BF012008BD002008BD08B50B460168B3
:1054E00018460BF06BFD003018BF012008BDFFFF10
:1054F0002DE9F743894690461F46BDF828500646D9
:1055000020B90025284603B0BDE8F0830029F8D073
:10551000002AF6D0002BF4D0142009F077FF0446BF
:105520000028EED09DF82C30002D037408BF012513
:105530000023C560C0F80090C0F804808760009325
:1055400002460949706800F014FC054618B9204667
:1055500009F064FFD6E72146706800F0C2FB0546FB
:105560000028CFD1F3E700BFBD54010013B50A46B0
:1055700040B149B10C78002344B10093044940681C
:1055800000F0E1FB02B010BD0846FBE72046F9E75A
:10559000DB54010037B50D46FFF736FF48B155B172
:1055A0002C7800234CB100932A460549406800F04E
:1055B000CAFB03B030BD2846FBE72046F9E700BF31
:1055C000DB5401002DE9F3471446FFF7E3FF804663
:1055D000002800F0DF8098F810300430013B85C8C7
:1055E00007FB0207072B00F2D580DFE803F0224B10
:1055F00070ABD395D30405464FF00009674EBD420A
:1056000028D2214630460BF054FD221AD8F8043037
:1056100050425041187023461A781C46013312B18B
:105620002C2AF9D11C46D8F808304FF001091D4446
:10563000E5E700230646994602ADDFF864A145F888
:10564000043DBE4206D22A46514620460BF00CFCD1
:10565000012803D0484602B0BDE8F087D8F80820FA
:105660002946304609F011FF23461A781C460133BB
:1056700012B12C2AF9D11C46D8F808304FF0010994
:105680001E44DEE700230546994602AEDFF814A16A
:1056900046F8043DBD42DDD23246514620460BF06D
:1056A000E3FB0128D6D1D8F808203146284609F076
:1056B000ECFE23461A781C46013312B12C2AF9D18C
:1056C0001C46D8F808304FF001091D44E2E74FF0BE
:1056D0000009054602AEDFF8D0A006F8049DBD42E1
:1056E000B8D23246514620460BF0BEFB0128B1D15C
:1056F000D8F808203146284609F0C7FE23461A7814
:105700001C46013312B12C2AF9D11C46D8F80830B6
:105710004FF001091D44E2E7002109F0DBFE2046BD
:105720000BF05EFCD8F80830D8F8045098420246D6
:10573000214628BF03F1FF32284609F0A6FE4FF0AC
:10574000010987E7002305464FF0000902AEDFF8A4
:105750005CA046F8043DBD42BFF47CAF32465146E2
:1057600020460BF081FB01287FF474AFD8F80820A5
:105770003146284609F089FE23461A781C46013333
:1057800012B12C2AF9D11C46D8F808304FF0010983
:105790001D44E0E74FF000095CE700BF42650200EE
:1057A000B1640200E9640200086502003565020088
:1057B000037C2DE9F74F013B05460C461646072BA7
:1057C00000F2F781DFE813F008008B000D0178018B
:1057D000D40147012A014E018368012B20D147687B
:1057E000CA4A97F90030314620460BF0E5FADFF857
:1057F0005493C7F1010807EB0803EA689BB2934290
:1058000003D3012003B0BDE8F08F20460BF0E8FB86
:1058100017F9013F311A4A4620440BF0CDFAEAE766
:10582000022B1BD1D0F80480B94AB8F900303146B8
:1058300020460BF0C1FA0127DFF80893EB689F427E
:10584000DFD220460BF0CCFB0137311A38F9023F8A
:105850004A4620440BF0B0FABFB2EFE7042B1BD14D
:10586000D0F80480AB4AD8F80030314620460BF01F
:10587000A3FA0127DFF8D092EB689F42C1D22046FD
:105880000BF0AEFB0137311A58F8043F4A4620446A
:105890000BF092FABFB2EFE7082B40F08A81D0F804
:1058A00004803146D8E900232046CDE900239A4AF6
:1058B0000BF082FA0127DFF89492EB689F42A0D2A6
:1058C00020460BF08DFBF8E90223311ACDE90023C5
:1058D00020444A4601370BF06FFABFB2EDE7836808
:1058E000012B1CD147688D4A3B78314620460BF08E
:1058F00063FADFF85C92C7F1010807EB0803EA6876
:105900009BB29342BFF47DAF20460BF069FB17F8C2
:10591000013F311A4A4620440BF04EFAEDE7022BC4
:105920001CD1D0F804807E4AB8F8003031462046B9
:105930000BF042FA0127DFF81892EB689F42BFF4A0
:1059400060AF20460BF04CFB0137311A38F8023FAC
:105950004A4620440BF030FABFB2EEE7042B1CD1CC
:10596000D0F804806F4AD8F80030314620460BF05A
:1059700023FA0127DFF8DC91EB689F42BFF441AFC7
:1059800020460BF02DFB0137311A58F8043F4A46E8
:1059900020440BF011FABFB2EEE7082B40F009816A
:1059A000D0F804803146D8E900232046CDE9002311
:1059B0005D4A0BF001FA0127DFF89C91EB689F42EA
:1059C000BFF41FAF20460BF00BFBF8E90223311A9E
:1059D000CDE9002320444A4601370BF0EDF9BFB270
:1059E000ECE74768514A3B78314620460BF0E4F932
:1059F000DFF86891C7F1010807EB0803EA689BB27A
:105A00009342BFF4FEAE20460BF0EAFA17F8013FCE
:105A1000311A4A4620440BF0CFF9EDE74768444A73
:105A20003B78314620460BF0C7F9DFF83491C7F1D7
:105A3000010807EB0803EA689BB29342BFF4E1AEAA
:105A400020460BF0CDFA17F8013F311A4A462044A0
:105A50000BF0B2F9EDE74368364A314620460BF0C9
:105A6000ABF9CEE6D0F804A0334F9AF80030DFF857
:105A7000F480324A002B14BF3B4643463146204651
:105A80000BF09AF9D146DFF8E0B0CAF101034B44BC
:105A9000EA689BB29342BFF4B4AE20460BF0A0FA82
:105AA00019F8013F311A002B14BF3B4643465A46B2
:105AB00020440BF081F9E8E7D0F804900127D9F8E9
:105AC000000008F025FA1E4ACDE9000131462046C3
:105AD0000BF072F9DFF894A0EB689F42BFF491AE2F
