:020000021000EC
:10000000E03F082095010100FB000100E100010034
:10001000090101001901010029010100000000008F
:100020000000000000000000000000001187010037
:100030003901010000000000718701005901010031
:10004000D5050100D5050100D5050100D505010044
:10005000D5050100D5050100D5050100D505010034
:10006000D5050100D5050100D5050100D505010024
:10007000D5050100D5050100D5050100D505010014
:10008000D5050100D5050100D5050100D505010004
:10009000D5050100D5050100D5050100D5050100F4
:1000A000D5050100D5050100D5050100D5050100E4
:1000B000D5050100D5050100D5050100D5050100D4
:1000C000D5050100D5050100D505010070BC020071
:1000D00000C00720FC02000000C30720F00500005C
:1000E00004207146084203D0EFF3098000F098BA6B
:1000F000EFF3088000F094BA704708B5014806F0A5
:1001000025FBFEE7124E020008B5024806F01EFB72
:10011000FEE700BF1D4E020008B5024806F016FBC0
:10012000FEE700BF284E020008B5024806F00EFBAD
:10013000FEE700BF334E020008B5024806F006FB9A
:10014000FEE700BF404E020008B5024806F0FEFA86
:10015000FEE700BF4E4E020008B509F0DDFC08F0D6
:1001600029FBBDE8084009F0EBBC0B4610B5401A6E
:100170005C1AA24203D9C45843F8044BF8E710BDF7
:100180000346002210B51C1AA14202D943F8042BE1
:10019000F9E710BD154800F0B8FB144800F0B8FBB3
:1001A000134C144DAC4209D3134DAC420ED254F84B
:1001B000080B54F8041CFFF7E3FFF6E794E803008C
:1001C0000C3454F8042CFFF7D0FFEBE70DF0DCFF04
:1001D00000F026F80BF0DAFD0CF0C2F94FF41640EF
:1001E00000F03EFB054806F0B1FAFEE7E03F0820CC
:1001F000CC000100D8000100E0000100624E0200C6
:10020000014B1878704700BF0CC3072003490B68E7
:1002100003604B6843608B688360704700C30720AE
:1002200030B585B007F09CFD684607F041FD774C7E
:10023000009B2360019B6360029BA36000F062FA55
:1002400000F0BAFA724BB0FBF3F03C28714B00F2AD
:100250009A80292880F0A180142800F29B803A22FD
:100260001A60082398226C4900200B764B768B7617
:1002700081F82030694B83F8052383F8062383F83F
:10028000072383F80823902283F80A2383F80B239B
:1002900083F80C23702283F80E2383F80F2358224F
:1002A00083F8122383F8132383F8142383F8152388
:1002B000782283F81923A02283F8002383F80123EE
:1002C00083F8022383F8032383F8042383F80923A4
:1002D00083F80D2383F8102383F8112383F8162362
:1002E00083F8172383F8182383F81A2383F81B2332
:1002F00083F81C2383F81E2383F81F2383F820230D
:1003000083F81D2383F8212383F82223CB6823F469
:10031000E0631B041B0C43F0BF6343F40033CB606A
:1003200000F0F9FA61B662B64FF4164000F098FAA0
:100330003B4806F0A5FE3B4806F0A8FE00233A4CD9
:1003400019462068022280680FF08EFC0023206886
:10035000304C1946022240680FF086FC06F0B0FED1
:10036000D4F88031314D13F0010F1FD0304800F028
:10037000BFFA01232B70D4F8803143F00103C4F895
:10038000803105B030BD50280AD964280BD945F218
:100390003A0265E741F23A0262E742F23A025FE767
:1003A00043F23A025CE744F23A0259E7D4F880316A
:1003B0009B0709D51F4800F09BFA02232B70D4F845
:1003C000803143F00203DAE7D4F8803113F00403FC
:1003D00019D0194B9A6C194B9A4208D10523184829
:1003E0002B7000F085FA0022134B9A64C9E70423AE
:1003F00014482B7000F07CFAD4F8803143F00403E9
:10040000C4F88031EFE72B70BBE700BF00C30720C3
:1004100040420F0000C00F4000ED00E000E100E0AE
:10042000D9080100C1080100E0C007200CC3072063
:10043000984C0200DB4C020000400240EFBEADDEF3
:10044000B54C0200D24C0200012110B50F4B104CEC
:100450000846236008F024F84FF0FF3223689A61C1
:100460004FF47A72DA6100221A620A4A5A6240F242
:1004700009225A615A6942F040025A611822064B19
:1004800083F8022304221A6010BD00BF00800040E0
:1004900018C3072060E3160000E100E0084B10B528
:1004A0001B68084C9A682188986889B28242F9D8FA
:1004B0000B46002242EA00021046194610BD00BF5A
:1004C00018C3072014C3072010B504468EB006A831
:1004D00006F0D6FC0A9B069A05930B9B07490493EA
:1004E0000C9B204603930D9B0293099B0193089B51
:1004F0000093079B0FF0E2FC0EB010BD164D0200FA
:1005000010B5044C23681BB9012006F0B1FC206033
:10051000206810BD10C3072038B52B4C2368254632
:100520001A6812F0100F0ED010221A60FFF7E8FFC1
:100530002368D96A04F044FB2268936803F51C53CE
:100540001033136238BD540707D504221A60FFF731
:10055000D7FFBDE8384004F041BBD00707D50122E2
:100560001A601A4A138801339BB2138038BD910771
:1005700015D502221A6009F0FFF9022809D000F00F
:100580007DFD2A689368D1690B4403F57A73D361C2
:1005900038BD2A68536923F008035361F1E7120755
:1005A0000ED50822AA211A604FF0804211725521FF
:1005B00011729A6802F5B71202F558725A6238BD84
:1005C00003480FF0F5F9FEE718C3072014C307200E
:1005D000F54C020008B509F09FFA094B094A197851
:1005E000094B1039C9B253F82130934203D107485F
:1005F00006F0BBF8FEE79847BDE8084009F0A0BA4E
:1006000004ED00E04901010000C00720DB4D0200BD
:100610000028A4BF014B43F82010704700C00720FA
:10062000036888B000934368114A0193836802937A
:10063000C36803930369049343690593836906932D
:10064000C36907930B4B9A64069ADA64059A013AD8
:100650001A65079A5A654FF08043AA221A7200223F
:100660001A70009B019B029B039B049B08B0704780
:10067000EFBEADDE00400240AA22034BC3F88C203F
:100680005522C3F88C20704700C00F402DE9F04F71
:1006900000240C6014601C6040F2FF14DFF860A0BE
:1006A0004FF4FA55002604FB055B06F1010CBBFB79
:1006B000FCF8124FA8F58625A5F50E75BD421AD98E
:1006C0006646202EF1D1013C052CE9D10020BDE881
:1006D000F08FB9F5807F4D46F2D005F10109B8FBE6
:1006E000F9FED645F5D886450C6016601D60F0D140
:1006F0000120BDE8F08F0325EFE700BF383204008A
:10070000A086010030B500242A4985B0D1F8803098
:1007100004AD23F0020345F8044D01940294C1F89E
:100720008030FFF7A9FFD1F8803023F00103C1F832
:100730008030FFF7A1FFC1F80C41C1F88440FFF7FA
:100740009BFF2B46C1F8044102AA01A94BF6803059
:10075000FFF79CFF30B92B4602AA01A945F6C0500D
:10076000FFF794FF019B134963F30F04029B63F3AC
:1007700017440023C1F80C31C1F88440FFF77CFF17
:100780000123C1F88030FFF777FFD1F888305B0193
:10079000FBD5039BC1F804310323C1F88030FFF778
:1007A0006BFF044AD2F8883013F0407FFAD005B0CE
:1007B00030BD00BF00C00F40244BD3F88820C2F3E7
:1007C0000162032AD3F80C2102F003022DD1012A81
:1007D00016D0022A1ED0D3F888101D48D3F88820DE
:1007E000D3F80431C1F30E0101FB0000C2F307424C
:1007F0000132B0FBF2F0DBB20133B0FBF3F0704733
:10080000D3F888101348D3F88820C1F30E01D3F829
:100810000431E9E7D3F88800D3F88820C0F30E004C
:100820000130D3F804310004E0E7D3F80401012AD1
:10083000C0B200F1010303D0022A03D00648DCE76E
:100840000648DAE74FF40040D7E700BF00C00F408A
:1008500000127A0000366E0100093D00001BB7004F
:1008600010B50446FFF7A8FF2401B0FBF4F00CF02C
:100870007BFB0022104B0CF03BFA0CF0EBFB012150
:1008800084B2032000F04AF80121032000F060F850
:100890000A4B1A6822F0F0021A601A6842F05002FD
:1008A0001A608022A3F500331A73220A1A710322F8
:1008B000E4B21C701A7310BD0000E03F00C002409B
:1008C000034A1368DB07FCD5024B1878704700BF5A
:1008D00014C0004000C00040034B044A1870136865
:1008E0005B06FCD50120704700C0004014C00040EA
:1008F00008B5411E11F8010F20B90A20BDE80840D3
:10090000FFF7EABFFFF7E8FFF4E780F309887047D5
:1009100080F30888704780F31188704738B50D461A
:10092000044607F009FF094A01234DB1D2F8C4007B
:10093000A3400343C2F8C430BDE8384007F00CBF01
:10094000D2F8C410A34021EA0303F3E700C00F402C
:100950002DE9F0414FEA40080E4607F0EDFE424611
:10096000032000210CF0B2F90A4F4246D7E90045B6
:1009700024EA000425EA010506F0030000210CF03A
:10098000A5F920432943C7E90001BDE8F04107F07C
:10099000E3BE00BFA8C10F4030B54FF48035364CE0
:1009A000E561364CA0602046C468E406FCD480684B
:1009B000C0B263B90B46314C5D1A954209DA13F89F
:1009C000015BA560E568ED06FCD4A568F4E72B4B58
:1009D00022B94FF48032284B9A6130BD072A0C7837
:1009E00029DD9C604C78083A9C608C789C60CC78BF
:1009F0009C600C799C604C799C608C799C60CD7972
:100A000001F108049D609D696D07FCD59D680D701E
:100A10009D684D709D688D709D68CD70DD68ED0698
:100A2000FCD49D680D719D684D719D688D719D68A8
:100A3000CD712146CCE7032A14DD9C604C78043A42
:100A40009C608C789C60CD780C1D9D60DD68ED0607
:100A5000FCD49D680D709D684D709D688D709D687B
:100A6000CD70E6E74D1C9C60013ADC68E406FCD4DE
:100A70009C680C702946ABE700C009200080084044
:100A8000002307B502A901F8013D012300F01F0072
:100A90001A46FFF781FF9DF8070003B05DF804FBDD
:100AA00013B502AC04F8011D00F01F000023012261
:100AB000214640F02000FFF76FFF02B010BD08B5DF
:100AC0001720FFF7DDFFC0F3001008BD70210720DD
:100AD000FFF7E6BF0A4600230146A020FFF75CBFF0
:100AE00008B50020FFF7CCFFBDE8084000F0FE018C
:100AF0000020FFF7D5BFFFFF4FF08072014BDA6196
:100B0000704700BF20C0092008B50020FFF7B8FFDC
:100B100040F00101C9B20020FFF7C2FF4FF0807220
:100B2000014B9A6108BD00BF20C009202021072089
:100B3000FFF7B6BF0023E1201A461946FFF72CBF86
:100B400037B504460D46FFF7F5FF20462946FFF767
:100B5000C1FF4FF080720C4CA2610022ADF806205C
:100B6000BDF8063001339BB2ADF8063033B94FF013
:100B70008073E361FFF7DEFF03B030BDFFF79FFF37
:100B80000028EDD0F3E700BF20C0092008B51720EA
:100B9000FFF776FFC04300F0010008BD40210720A9
:100BA000FFF77EBF08B50A46012301466120FFF723
:100BB000F3FEC0F3420008BD0023E2201A461946A6
:100BC000FFF7EABE70B5064600200D461446FFF753
:100BD00057FF66B100F0BF006DB100F0DF016CB1EE
:100BE00001F0EF010020BDE87040FFF759BF40F071
:100BF0004000C0B2F0E740F02001F0E741F0100102
:100C0000F0E710B504460020FFF73AFF34B900F0D2
:100C1000F7010020BDE81040FFF742BF012C04D1CE
:100C200000F0FB0141F00801F3E7022C14BF40F093
:100C3000080140F00C01C9B2EBE708B50020FFF74E
:100C40001FFFBDE8084040F00201C9B20020FFF7D5
:100C500027BF08B50020FFF713FFBDE8084000F0EC
:100C6000FD010020FFF71CBF40F6DD1398420BD8B2
:100C700040F66213B0F5166F38BF1846A0F516613E
:100C8000C9B20520FFF70CBF1846F7E710B50446B8
:100C90000620FFF7F5FEFA2C00F0D70106D141F04F
:100CA00020010620BDE81040FFF7FABEB4F5FA6F48
:100CB00008BF41F00801F4E710B504460620FFF72D
:100CC000DFFE032C28BF032420F0060141EA440183
:100CD000C9B20620BDE81040FFF7E2BEB0F57A6F5A
:100CE00028BF4FF47A60FA2838BFFA20FA23B0FB05
:100CF000F3F30F2928BF0F21013BDBB241EA0311B7
:100D0000C9B20420FFF7CCBE1130C0B2162804D8F7
:100D1000202928BF2021FFF7C3BE7047032806D033
:100D2000042814BF032102210320FFF7B9BE0121CB
:100D3000FAE70A46002301463020FFF72DBE0A4697
:100D4000002301462A20FFF727BEFFFF73B50446A4
:100D50000E461546FFF730FFFFF7ECFE4FF08072AE
:100D60002A4BDA61FFF775FF002201201146FFF7D9
:100D700029FFFFF7ABFE0220FFF743FF3046FFF7E6
:100D800073FF2846FFF782FF0320FFF795FF03213B
:100D90000220FFF785FE00210120FFF781FE0321DD
:100DA0004FF4FA70FFF79AFF21460020FFF7ACFFDF
:100DB00000211220FFF774FE00211320FFF770FEC0
:100DC00000211420FFF76CFE00211520FFF768FEBC
:100DD00000211620FFF764FE0D4B18681B79009068
:100DE00005208DF80430FFF799FF68460521FFF7CD
:100DF000A0FF05216846FFF7A2FFFFF71EFF4FF493
:100E0000FA6005F065FD02B070BD00BF20C009208A
:100E10008B4E020070B5174E326822B92021032094
:100E200007F08CFE3060144D2A6822B92021012081
:100E300007F084FE2860114C216821B903220120AB
:100E400007F07CFE20604FF4FA6240F6C3112020C8
:100E5000FFF77CFFFFF758FE1620094A012107F033
:100E600063F8306828B1286818B12068003018BFCE
:100E7000012070BD24C307201CC3072020C3072006
:100E80002D0F0100037970B503F0C003C02B0CBF18
:100E90000E4B0F4B01461D68002388B006461A46CC
:100EA000284607F06DFE044660B9034602466946CF
:100EB000284607F06DFF234622463146284607F0B4
:100EC0005FFE0446204608B070BD00BF1CC307206B
:100ED00024C3072038B504460D4600F0E9FA23780C
:100EE00083420AD0E37843B90EF092FDBD2300F0AF
:100EF000030000FB033005F0EBFCFFF7FDFDFFF7FF
:100F0000EFFDA9B22046FFF71BFEFFF70FFEFFF72C
:100F1000FBFD08F031FD022804D1034B00211868C5
:100F200007F002FF012038BD20C30720002307B5CA
:100F300002A941F8043D084B186807F0F5FE019B33
:100F40003BB14FF08052054B1A60BFF34F8FBFF398
:100F50006F8F03B05DF804FB20C3072004ED00E0B1
:100F600038B504460D46FFF711FE48B1A9B2204638
:100F7000FFF718FEFFF70AFE08B9FFF70FFE012082
:100F800038BD2DE9704305460E46144608F0F4FCC2
:100F9000022809D1224600233146284607F0F8FEF0
:100FA000C4B22046BDE87083FFF778FA4FF47A7236
:100FB00000230CF063FB10EB040841F1000900234F
:100FC00031461A46284607F0E3FEC4B2002CE8D1A9
:100FD000FFF764FA4FF47A7200230CF04FFB894557
:100FE00008BF8045EBD2DCE7042938B505460DD1B2
:100FF000041C18BF0124FFF751FA2CB14FF47A7288
:1010000000230CF03BFB2860204638BD0024F2E7AB
:1010100000B50C4B8DB009930B4B0C4A0B930C4B4A
:101020000A930CAB43F8102D002204920FCB8DE8ED
:101030000F00084B084A01216A2000F0EFFA0DB0BA
:101040005DF804FB150E0100610F0100E90F0100BE
:10105000D50E0100850E0100904E0200024B0A469B
:1010600001461868FFF78DBF24C30720024B0A46CC
:1010700001461868FFF785BF1CC3072008B508F0B4
:101080007BFC0F4B02285B6912D15A020CD500F091
:10109000FDFC002300280B4814BF01224FF0FF3253
:1010A0001946006807F074FEBDE8084000F086BBF2
:1010B0005B02F9D500F0EAFC0028F5D108BD00BFBD
:1010C00000C0092020C30720242310B54FF6FF7469
:1010D00003FB0101884200D110BD43782BB1038C82
:1010E0001344A34228BF234603842430F2E7FFFFC2
:1010F000002337B502A840F8043D0C4B04215B687F
:10110000984705460A4B019A1C680421141B1A6073
:1011100008482246FFF7D8FF224602210648FFF77B
:10112000D3FF281C18BF012003B030BD28C30720FF
:1011300058C407203EC30720F2C3072008B50B4B55
:10114000197803788B420A4B0BBF1A889A880132B0
:10115000013214BF9A801A80064B8170DB6820210F
:101160009847003018BF012008BD00BF8CC0072081
:10117000CEC3072028C307200A4B02781B789A4267
:10118000094B0BBFDA881A89013201320CBFDA80B1
:101190001A810379C3F3C202073262F3C5030371F4
:1011A000FFF7CCBF8CC00720CEC30720002210B5AC
:1011B000064B13F822409100844201D1581810BD0B
:1011C0000132042AF5D1002010BD00BF47C407201A
:1011D00070B1C3780133DBB2FF2BC37008D1002399
:1011E0000448C118CA7804335208102BCA70F8D1C9
:1011F000704700BF47C407202422034602FB0101B9
:10120000024630B591420FD1044600259A4211D0D2
:101210001979C1F3C200198C41EA0041A94284BF87
:101220001C460D462433F1E71446243212F8235CA1
:10123000002DE7D1204630BD38B50446C90001F184
:101240000805FFF755FF1C4B22781B789A4224D1E2
:1012500002211A48FFF7D0FF0023024680F8203011
:1012600080F82130234690F8231080F8225021F096
:101270007F01C5F306250D4380F8235004F12001BA
:1012800053F8044B8B4242F8044BF9D10C4A0379D2
:10129000127862F3C503037138BD04210948FFF7D2
:1012A000ABFFE378002BD7D190F82330042543F02F
:1012B000800380F82330CFE78CC00720F2C30720DB
:1012C00094C007203EC3072008B5FFF76FFF034611
:1012D000D8B9FFF76BFF0346B8B90D4AD378D17977
:1012E000D07A8B4296BF1946131D1346814294BF94
:1012F0000846084BD17B084A814238BF134600227A
:1013000006491A60CA7A0132CA72184608BD00BF7F
:1013100047C407204FC4072053C40720CEC307206B
:101320002DE9F0474FF0240805460C46002708FB3E
:101330000218DFF85C91DFF85CA1A04501D1BDE89F
:10134000F08794F92330002B29DACDB12B7862781D
:10135000934209D168782178884205D1242200215E
:1013600020460DF005F969E0E97849B169789142C4
:1013700006D122789A4203D1AA79A3799A42EDD074
:1013800094F8232094F82230218C02F07F0243EA63
:101390000223994252DB2046FFF7D0FEDEE7637856
:1013A000002B4BD0002D32D02A7902F0C002C02A87
:1013B0002BD1227869788A4202D128789842CDD000
:1013C000E678A878864208D1994206D129788A42DF
:1013D00003D1A179AA799142C0D0A978E27891424B
:1013E00015D16A789A4212D121782A7891420ED189
:1013F000A179AA7991420AD1237984F8207067F300
:10140000C50384F82170237118E0002AE5D194F80F
:10141000231094F82220208C01F07F0142EA01225F
:1014200090420BDB227984F82070C2F3C201CEB265
:1014300084F8217026B12046FFF79EFE24347CE715
:1014400002F0C002C02A20D0207899F800209042F3
:101450001BD1E278934218D0BAB103226379E170CC
:1014600062F3071363712046FFF786FE23799AF82B
:10147000002062F3C50323716078FFF797FE00B187
:101480000760002E7FF46AAFD8E70126F4E700BFBB
:101490008CC0072094C00720431EDBB2FD2B9DBFEC
:1014A000024B187001200020704700BF8CC007203D
:1014B000014B1878704700BF8CC0072007289CBFDD
:1014C000014B1870704700BF94C007202DE9F74307
:1014D000044691461E469DF828500F46002965D0C7
:1014E000344B93F80080414560D00F2E5ED8002821
:1014F0005ED0202200210DF03BF8FF2F08BF4FF0F7
:10150000000903222379677069F3871362F30203EA
:10151000294A84F80080127884F8028062F3C503B7
:10152000264A237113780133DBB21370A3710BAB1E
:101530000193C5B901250123DFF88480384688F876
:101540000030FFF733FE0746FFF742FE002388F81E
:10155000003063791FBB66F307136371E770284699
:1015600003B0BDE8F08304F10809019AE07913465D
:10157000526853F8081B00EB02085FFA88F8013D37
:10158000B8F1180F0193EDB207D848440CF0CBFF27
:1015900084F80780002DE8D1CCE70025CBE7BA78A6
:1015A00062F3071363717B78E370D8E70025D6E711
:1015B0000546D4E78CC0072094C0072057C40720F5
:1015C0003DC30720012270B5134E0446327020B986
:1015D000002500232846337070BDFFF7AFFD054698
:1015E0000028F5D0237903F0C003402B10D0A3F1DD
:1015F00080014A424A41C02B0BD1E3784BB161785C
:10160000994206D0617920460909FFF715FEE0E707
:101610000246002AF6D1DCE73DC3072082B02DE95F
:10162000F0439146421ED2B28DB0FD2A05460E46C9
:1016300015939DF8688005D900200DB0BDE8F043F2
:1016400002B07047002BF7D0179F002FF4D0199BE2
:10165000002BF1D0189B002BEED0169B002BEBD06B
:1016600000244822002123480CF082FF9022002110
:1016700021480CF07DFF1022002120480CF078FF5B
:101680001F4B1C605C609C601E4B1C605C609C601F
:101690001D4B1D701D4B1E4D1E7015AE0FCE0FC580
:1016A0003368182221461B482B600CF061FF494625
:1016B000172218480EF023FD21462046B84700287F
:1016C000BAD0B8F1000F02D1FFF712FDB5E706233B
:1016D0000293114B224601930123FF21009304A89A
:1016E000FFF7F4FE0028A7D004A8FFF76BFF00283F
:1016F000A2D0E9E7F2C307203EC3072047C4072072
:101700003AC40720CEC307208CC0072046C4072058
:1017100028C30720DAC30720954E020030B5182BE6
:101720008DB007D81D1CB2FA82F418BF01256409D8
:10173000AC4201D100200EE00293019200950A46CE
:101740009DF84030014604A8FFF7C0FE0028F1D004
:1017500004A8FFF737FF0DB030BD13B553791478E7
:101760001B09009302460B4620460321FFF7D6FFD4
:1017700002B010BD0023194630B5084A12F82350B4
:101780009C002DB1884201D1101930BD0131C9B280
:101790000133042BF2D1002030BD00BF47C4072025
:1017A00000231846044A12F8231009B10130C0B2D0
:1017B0000133042BF7D1704747C407202DE9F047C8
:1017C00088B02022002168460CF0D2FEA34B1B7883
:1017D00003F0FF042BBBA24F20213B6968469847CA
:1017E00008B9002411E09F4D6B8801336B80FFF72F
:1017F000D7FF9DF80420A87202F00703032B13D033
:10180000994A137843F001031370FFF771FC042227
:1018100096492046FFF784FD022295492046FFF7AE
:101820007FFD08B0BDE8F087924B9DF802E01E787E
:10183000B64504D18C4A137843F00203E4E78E4D99
:101840002146A846C2F3C2029DF800009DF806C0DA
:101850005FFA82F901EB410313F805A0824523D119
:101860002B4493F801A0E2451ED19D789A70B5EB08
:10187000090518BF01254FF001099DF80200FFF787
:1018800023FD9DF802200270427000228270FFF753
:101890009FFCB9F1000F01D0002DA2D09DF80030BF
:1018A000B34233D16C46B0E701310429D2D1734938
:1018B0000B689A70724A1870934283F801C006D17F
:1018C000C1F80080864505D10025A946D5E7033338
:1018D0000B60F7E78642F7D0FFF7F6FC0546FFF707
:1018E00077FC2B7833B19DF80530AA7803F00F030D
:1018F0009342E9DC9DF800302B709DF802306B704C
:101900009DF80530C3F30303AB70DDE79DF801805C
:10191000B8F1FF0F1BD13B6820216846984720B9DA
:10192000514A137843F0040313709DF8053003F017
:101930000F02511C61F303038DF80530C3F3031349
:101940009A42BFF64EAF6846FFF7F8FB49E74645B7
:101950002ED1B9F1000F0CD19DF807304BB13B6887
:1019600020216846984720B93F4A137843F0040382
:1019700013709DF8043003F0C003402B12D19DF882
:1019800007306A4623B918213E48FFF7E6FE89E78B
:101990000C213448FFF7E1FE002883D100216A467C
:1019A0000846F2E79DF80330002B7FF47BAFF5E7A4
:1019B000354B1F78002F3FF414AF9DF8055005F00C
:1019C0000F094FEA151AD145BFF60BAF4046FFF796
:1019D000EDFB9DF8033009F1010969F303059E420F
:1019E0008DF8055024D19DF8043003F0C003402B3E
:1019F00003D0A3F180025742574150B3C02B447823
:101A000020D1A04512D0003418BF01243C4304F07B
:101A10000104D0B143788DF8033085786846FFF72C
:101A20008DFB002C3FF43EAF294607E00024EDE794
:101A3000002B7FF437AF0028ECD151466846FFF702
:101A4000FBFB2FE73C46E5E73C4600258DF80350BD
:101A5000E4E7C02BF8D10446D8E700BF3DC3072018
:101A600028C30720CEC307203CC307203EC307205E
:101A7000F2C307208CC007203AC4072090C007207B
:101A800043C40720DAC3072046C4072000231846B2
:101A9000094AD118497809B10130C0B22433902BDA
:101AA000F7D1064B5A780AB10130C0B293F825300D
:101AB0000BB10130C0B270473EC30720F2C307200C
:101AC00008B5FFF773FB064B28B18278187802FB44
:101AD0000000C00008BD18201B78584308BD00BF97
:101AE00094C0072003490B6803604B6843608B6810
:101AF00083607047CEC3072030B504460D1F131B0B
:101B00000344032B0AD822F00303194402F0030212
:101B1000013B18440A44914205D130BD55F8043FB9
:101B200044F8043BEBE711F8013B00F8013FF2E712
:101B30000244904200D1704700F8011BF9E70246C9
:101B400000F10B010020C30143EA500312F8010B1E
:101B500003448A4203F0FF00F5D17047036810B5D3
:101B6000044653B119460A4611F8010B1F2810D933
:101B70003A28F8D1591C8A4202D04FF0FF3010BDEC
:101B80001B78303BD9B20129F7D8013218462260C0
:101B900010BD002010BD03692DE9F04101F10902DB
:101BA0000D4663B300242E2741694E1E16F8013FEF
:101BB0000134202B19D0052B48D0092C01D11770E6
:101BC0000132A3F1410EBEF1190F0CD8082C8CBFC5
:101BD0004FF0100C4FF0080C91F80CE01CEA0E0FBF
:101BE0001CBF2033DBB2137001320B2CDED1CB7A59
:101BF0002B72CB692B600B8BAB80CB8AEB800024E4
:101C00001470AE693EB3036923B900240023335531
:101C1000BDE8F081EB69002BF7D04FF6FF73028C23
:101C20009A42F2D0D0F81C80771E38F814000028B1
:101C3000ECD0002101F0E2FF0028E6D0EB69013B87
:101C40009C42E2D2013407F8010FEEE7092C4FF075
:101C5000E503C8D1B3E7BDE8F081F8B5056B00F145
:101C60003407044601232A463946407802F0B9FB7E
:101C7000A0B9636AE269EB1A9342207101D3002094
:101C8000F8BDE678012EFAD9E36939461D442A46A3
:101C90000123607802F0A5FB013EF3E70120F8BDC7
:101CA00003790BB1FFF7D9BF1846704770B50446EA
:101CB000FFF7F6FF054680BB2378032B25D1637918
:101CC000012B22D104F1340601464FF40072304654
:101CD000FFF72EFF4AF65522A4F832220F4A31466A
:101CE000626302F1FF5202F500522032C4F818225A
:101CF00062696078C4F81C222269C4F82022226A32
:101D00000132226302F06DFB65710022607811469A
:101D100002F083FB003018BF012070BD52526141B8
:101D2000036B70B58B4205460E4611D0FFF7B8FF26
:101D3000044610B10124204670BD0123324605F14E
:101D40003401687802F031FB0028F3D12E63F2E70A
:101D50000024F0E7002310B503714FF0FF33036355
:101D60000446FFF7DDFFA0B94AF65523B4F8322246
:101D70009A4210D1D4F86A30084A23F07F43934244
:101D80000AD0D4F8860020F07F40801A18BF0120C6
:101D900010BD032010BD022010BD00BF46415400FD
:101DA0000023F0B5036085B0074608461546FFF7E7
:101DB000D5FE061EC0F2F1807D4B53F82640002C64
:101DC00000F0ED80E06801F0F7FE002800F0E98007
:101DD0003C6023786BB1607802F0DFFAC10708D469
:101DE000002D00F0B78010F0040000D00A2005B0EC
:101DF000F0BD0023F0B22370607002F0BBFAC2079E
:101E000000F1D1800DB14307F0D400212046FFF747
:101E1000A1FF012840F0AC802146002291F8F63164
:101E20000BB1D1F8FA314DF822300132042A01F118
:101E30001001F3D100265DF82650002D00F08C80B3
:101E400029462046FFF786FF002840F08680B4F838
:101E50003F30B3F5007F40F08980B4F84A1001B9F3
:101E6000A16D94F84420E161531E012BE2707DD8EE
:101E700094F84160A670002E78D0731E334275D15D
:101E8000B4F845E01EF00F0FA4F808E06ED1B4F8E6
:101E9000473003B9636DB4F84270002F66D04A43EF
:101EA00007EB1E101044834260D31B1AB3FBF6F3FA
:101EB000002B5BD040F6F576B3425BD94FF6F57652
:101EC000B34294BF0226032602332F442844032E34
:101ED000A36125626762E0624ED1BEF1000F45D179
:101EE000226E9B00A26203F2FF13B1EB532F3DD38E
:101EF0004FF0FF33636123618023032E637122D18E
:101F0000B4F86430012B1ED1691C2046FFF708FF8E
:101F1000C8B94AF65523B4F8322260719A4212D1F8
:101F2000626B244B9A420ED103F1FF53D4F818226E
:101F300003F5005320339A4201BFD4F81C32636189
:101F4000D4F8203223611C4A2670138801339BB2D7
:101F50001380E38000204AE702200136042E7FF43C
:101F60006AAF032821D000283FF471AF0D203EE76F
:101F70000025F6E70126A7E7BEF1000FF6D0022EF6
:101F800017444FEA43021CBFD21803F00103A762B3
:101F90000CBF134603EB5203A5E70B2027E70C20E9
:101FA00025E70F2023E7032021E701201FE700BFDB
:101FB0005CC407205252614164C4072010B5044636
:101FC000A8B103689BB11A788AB1D98882889142F6
:101FD0000DD1D86801F0F0FD58B12368587802F0AF
:101FE000DCF910F0010F14BF0320002010BD092000
:101FF00010BD0F2010BD50B10F2905D84FF41A4362
:1020000023FA01F1CB0702D4C06801F0E8BD7047A4
:1020100083690239023B99423DBF8378C06A01FB64
:102020000300002070470129F8B507460C464BD93C
:102030008369994248D20378022B29D0032B34D0EC
:10204000012B41D101EB5106416A01EB5621FFF70B
:1020500067FE10B14FF0FF30F8BD796AC6F3080390
:1020600001363B4401EB5621384693F83450FFF7D4
:1020700057FE0028EED1C6F308063E4496F8340019
:10208000E30745EA00204CBF0009C0F30B00F8BD90
:10209000416A01EB1421FFF743FE0028DAD1660004
:1020A00006F4FF763E44B08EF8BD416A01EBD411D0
:1020B000FFF736FE0028CDD1A40004F4FE743C44A2
:1020C000606B20F07040F8BD0120F8BD70B504468B
:1020D00082680D46012AE18001D1022070BD0368AB
:1020E00099698A42F9D2BAB91978032901D1996A52
:1020F00099B919898D42F0D2986AE2600028ECD033
:10210000236800EB1510343305F00F0503EB45157C
:1021100020616561002070BD11460A469E78360137
:10212000B5421146206802D2FFF772FFE5E7FFF7DC
:102130007AFF431C024607D00128CED923689B6949
:102140009842CAD2AD1BEBE7012070BD0129F8B55A
:1021500005460C46164660D9836999425DD20378DC
:10216000022B3AD0032B45D0012B54D101EB510760
:10217000416A01EB5721FFF7D3FD18BBC7F30803F2
:1021800014F001042B4417BF93F83420F2B202F08C
:102190000F0132011CBF02F0F0020A4383F8342021
:1021A0000123696A01372B7101EB57212846FFF79C
:1021B000B7FD38B9C7F308072F4434B1C6F3071683
:1021C00087F8346001232B71F8BD97F83430C6F3DB
:1021D000032623F00F031E43F2E7416A01EB1421AB
:1021E000FFF79EFD0028EDD1640004F4FF742C4439
:1021F000A686E7E7416A01EBD411FFF791FD0028BD
:10220000E0D1A40004F4FE7434342B5903F070437D
:102210001E432E51D6E70220D4E70220F8BDF8B5C0
:1022200005460F4671B90669E6B183699E4228BF2B
:1022300001263446AB6901349C4216D3012E13D8D3
:10224000002408E0FFF7EFFE0128044635D90130ED
:1022500003D14FF0FF342046F8BDAB699C42FAD35E
:102260003E46E6E70126E4E7022421462846FFF73A
:10227000DAFE30B1411CECD001281ED0B442D9D1D5
:10228000DEE76FF0704221462846FFF75FFF90B906
:1022900057B96B692C615A1CDDD0013B6B616B79BE
:1022A00043F001036B71D6E7224639462846FFF713
:1022B0004DFF0028EDD00128CBD00124CBE72DE93C
:1022C000F843C68804460136B3B2894613B90420E0
:1022D000BDE8F8830369002BF9D016F00F0807D189
:1022E000C16801330361006859B903899E42EED287
:1022F0002368E680343303EB481363610020BDE8B4
:10230000F8838778013F17EA1617F1D1FFF78BFEA4
:102310000128054602D80220BDE8F883421C02D1FC
:102320000120BDE8F883206883699D4227D3B9F175
:10233000000FCCD0E168FFF772FF0546002831D0CE
:102340000128E8D0431CEBD02068FFF7A9FC014628
:102350000028E5D120684FF400723430FFF7E8FB25
:10236000226829461046FFF753FE4FF0010910631B
:10237000206883789F4209D3036BDF1B0763E56006
:1023800029462068FFF744FE2061B1E780F80490F9
:10239000FFF763FC0028C3D122680137136B0133B8
:1023A0001363E5E70720BDE8F883FFFF2DE9F74F4A
:1023B0004FF0FF084FF6FF77064644460784316921
:1023C0003068FFF7ADFC824600285ED175692B7836
:1023D000002B76D0E52B06D0E97A01F03F02090701
:1023E00003D50F2A03D0378447E00F2A54D1D6F8FB
:1023F0001CB0BBF1000F41D058063CD503F0BF0420
:10240000F38895F80D8033846B7B434535D195F87F
:1024100000A001202AF0400A0AF1FF334FF00D0A14
:102420004FF000090AFB03FA274B19F80320AA5AB8
:1024300078B3104601F000FCBAF17F0F01901CD870
:102440000AF101023BF81A00009201F0F5FB019934
:10245000814212D1009A924609F10109B9F10D0F9A
:10246000E2D12B78590603D510B13BF81A3023B9C5
:10247000013CE4B202E0A342C6D0FF240021304672
:10248000FFF71DFF8246002899D0504603B0BDE8F3
:10249000F08FBA42E0D0F0E724B92846FFF74FFBAF
:1024A0004045F2D0B369DA7AD2079CD403F10B002D
:1024B0009842EAD015F8011B13F8012B9142F7D08E
:1024C00091E74FF0040AE0E71C4F02002DE9F74FB7
:1024D0000B7807462F2B884601D05C2B01D108F1E1
:1024E00001080024BC6098F800301F2B00F2908097
:1024F00021463846FFF7EAFD7C6103B0BDE8F08F66
:1025000025F8020F464693E02028A04434BF042457
:1025100000240BEB4602002E00F0A98032F8021DC9
:10252000202902D02E2940F0A680013EF3E7013198
:102530003BF81120202AFAD02E2AF8D009B144F015
:1025400003044A4632F8020D2E2801D0013EF9D18B
:102550004FF0000A4FF0080955463BF811004A1C9D
:10256000002800F09F80202804D02E2806D1B242F7
:1025700000F08D8044F003041146EEE7CA4580F078
:102580008980B24211D1B9F10B0F06D186E0B24277
:1025900003D044F0030400F28580AD00EDB2324672
:1025A0004FF00B094FF0080AE6E77F280DD900210C
:1025B000019201F023FB019A18B15D4B184410F809
:1025C000800C80B244F0020438B15A4B13F8011F5A
:1025D000002900F09F808142F8D15F2044F003047D
:1025E000B96901F80A000AF1010AC5E745F00205D8
:1025F000F6E75A0781D47A69D37ADB0639D5396888
:10260000538B0978032904BF928A43EA0243BB60D3
:1026100098F8003044462F2B08F10108F8D05C2BC5
:10262000F6D00026D7F81CB004F1FF39ABF1020553
:1026300019F8010F06F101081F287FF665AF2F2852
:102640003FF462AF5C283FF45FAFB8F1810F0ED06A
:10265000012101F0D3FA50B17F283FF651AF36493E
:1026600011F8012F002A3FF44BAF8242F8D1062027
:1026700043E7052041E7002520212BF816500B22C7
:10268000B869FFF755FA0BEB4609294650E7CA45EA
:10269000FFF479AFB9F10B0F7FF479AF4FF00B096D
:1026A00044F00304BB691A78E52A04BF05221A70B6
:1026B000B9F1080F04BFAD00EDB205F00C030C2B0F
:1026C00003D005F00302032A01D144F00204A1075C
:1026D00009D405F00305012D08BF44F01004042BB4
:1026E00008BF44F00804BB690021DC723846FFF7DC
:1026F000EDFC10B93846FFF759FEBB69DB7A0028BC
:102700003FF477AF04287FF4F8AE13F0040F08BF4E
:102710000520F2E6A0F1410119297FF667AFA0F18B
:10272000610119299EBF203845F0010580B257E7A5
:102730009C4E02007C4F0200734F02000C222DE9D8
:10274000F043866987B0C769044631460DEB020045
:10275000FFF7D2F99DF81730DB0779D500234FF04A
:102760000109DFF80882F372E3610B2203A9304606
:10277000FFF7C2F9B9F1050F4FD84B46072203F016
:102780000F0000F13001392988BF00F13701013A0B
:1027900001A810441B094170F1D17E2006A9114403
:1027A00001F8140C9A423DD0F15C202938D1334411
:1027B000072A8FBF202106A9891811F8141C98BF79
:1027C000013203F8011B991B0729F1D9002120468A
:1027D000FFF77CFC0546A8BB2046FFF7E7FD054652
:1027E00080BB09F10109B9F1640FBED10725284664
:1027F00007B0BDE8F083102102F0010505EB4303AB
:10280000DD0348BF83EA080301394FEA5202F3D1DE
:1028100030F8022F002AEED1B0E7B81E4B46F7E79A
:102820000133BFE71346C2E7013616E001261CE07C
:10283000074601212046FFF742FD0546E8B1042D79
:10284000D4D0D4E7042DD2D19DF81730F372E761CC
:102850009DF817309B07E9D5002637F81630002B76
:10286000E2D10D231936B6FBF3F600212046FFF71F
:102870002DFC05460028E2D1074621692068FFF7B4
:102880004FFA05460028DAD163691B78E52B01D0A1
:10289000002BCDD10137BE42CBD1013E49D0E188DA
:1028A0002046891BFFF712FC054600289FD1A0692E
:1028B000FFF745F94FF6FF790746DFF8B480216945
:1028C0002068FFF72DFA0546002890D10F22636992
:1028D000D4F81CE0DA720D22F1B24D1E6A430546AF
:1028E0005F7318735883484518BF3EF8120015F8F7
:1028F00008C005F1010518BF013223F80C000028BB
:1029000008BF48460D2DEED1484502D03EF81220B2
:102910000AB941F0400101221970236800211A719F
:102920002046FFF7CCFC054600287FF460AF013E4F
:10293000C5D121692068FFF7F3F9054600287FF427
:1029400056AF202229466069FFF7F2F80B22A169F1
:102950006069FFF7D1F8A3696269DB7A03F01803B5
:102960001373012223681A7141E700BF211001008F
:102970001C4F02004FF6FF7370B5018CC5880446EA
:10298000994208BF2946FFF7A1FB0346E8B9E526AF
:1029900021692068FFF7C4F9034698B9014620224F
:1029A0006069FFF7C5F8012162691670226811712C
:1029B000E288954209D919462046FFF780FC034674
:1029C0000028E5D0042B08BF0223184670BDFFFF86
:1029D0002DE9F843FF2705463C4604264FF6FF79CC
:1029E000DFF8D080296911B9002E58D04CE0286852
:1029F000FFF796F90646002846D168690378002B50
:102A000055D0E52B38D02E2B36D0C27A02F03F02BB
:102A1000082A31D00F2A3DD159062BD503F0BF0427
:102A2000EB88477B2B84437BBB4225D103784FF057
:102A3000010E03F03F035A1E0D2353430022EE699B
:102A400012F80810415ABEF1000F20D07F2B13D886
:102A50008E4626F81310013301320D2AF0D1027888
:102A6000520604D57F2B07D8002226F81320013CFC
:102A7000E4B202E0A342D6D0FF2400212846FFF7AB
:102A80001EFC06460028ADD000232B6108E0494516
:102A9000E2D0F1E73CB9FFF752F8B84203D1002683
:102AA0003046BDE8F8834FF6FF732B84F8E7042621
:102AB000EAE700BF1C4F0200012970B504460D462D
:102AC00001D8022070BD83699942FAD2A3699D4260
:102AD00005D229462046FFF7A6FA064608B9002087
:102AE00070BD0128EDD0411C10D00022294620469F
:102AF000FFF72CFB58B963695A1C05D00133636199
:102B0000637943F0010363713546DFE7012070BD4F
:102B1000F0B585B0019004A840F8041D0091164658
:102B2000FFF71CF8051E2ADB174F57F825404CB15C
:102B3000E06801F03FF818B90224204605B0F0BD66
:102B400000232370019989B9019C47F82540002C86
:102B5000F3D0012E15D16946002201A8FFF720F914
:102B6000044601460198FFF746FAE6E70023E8B27B
:102B700001F80C3B01F014F80028DDD0E4E70B2449
:102B8000DBE70024D9E700BF5CC407202DE9F04350
:102B9000D1B0019190460646002800F08C800023B9
:102BA00002F01E02036001A906A8FFF7F9F8054626
:102BB000002874D103AB0C9301990FAB06A80D93B9
:102BC000FFF784FC0B9C10B9002C08BF062018F0FE
:102BD0001C0F08F01F073DD098B3042802D106A8A7
:102BE000FFF7ACFD47F0080748BB0B9C38073BD507
:102BF00001F0B2FE0023C4F80E000698E372E36110
:102C00000278B4F81A80032A08BFA28A6383A382D9
:102C10004FF0010308BF48EA02480371B8F1000F02
:102C200022D04146D0F83090FFF746FF38B90698D9
:102C300008F1FF3303614946FFF772F8A0B105467A
:102C40002DE0E37A13F0110F33D118F0040FCDD03B
:102C5000082524E00028F2D1E37AD90627D418F019
:102C6000020F01D0DA0724D43B07069B48BF47F088
:102C700020071A6BB771F26100223462F271197881
:102C8000628B032904BFA18A42EA01423261E269F0
:102C90003360F2600022DB88B260B261B380294603
:102CA0000698FFF7A8F9284651B0BDE8F08304253F
:102CB000F5E70725F3E70925F5E72DE9F74F9B46EB
:102CC0000023CBF80030044689461646FFF776F914
:102CD000054610B1294620684AE0E17939B12068FB
:102CE000FFF789F9E579284603B0BDE8F08FA379AD
:102CF000D80705D407212068FFF77DF90725F2E7FB
:102D0000E368A768DF1BB74228BF374604F12403F6
:102D100000930FB93946DEE7A268C2F30803002B1F
:102D200074D120688378013B03EA522313F0FF0338
:102D300011D12AB92069012808D80225E571C9E70F
:102D400061690193FFF76FF9019BF4E7411C01D121
:102D50000125F3E76061D4F800A061695046019352
:102D6000FFF756F9019B30B9022550462946E57117
:102D7000FFF741F9B7E77E0A00EB030829D09AF87C
:102D800002209919914288BFD61AF3B242464946A9
:102D90009AF8010001F009FB0028D9D1A3795A065D
:102DA0000BD5A069A0EB0800864206D94FF400724B
:102DB000009909EB4020FEF79FFE7602A368B1441C
:102DC0003344A360DBF80030BF1B3344CBF8003042
:102DD0009FE7A269904517D0A3795B060BD5012325
:102DE00000999AF8010001F0FCFA0028B0D1A3790B
:102DF00023F04003A37120680123424600994078E4
:102E000001F0D3FA0028A3D1C4F81880A16848467D
:102E1000C1F30801C1F50076BE4228BF3E46243109
:102E200032462144FEF768FEC8E72DE9F74F9B467E
:102E30000023CBF80030044689469046FFF7BEF8E1
:102E4000054610B12946206868E0E17939B120686B
:102E5000FFF7D1F8E579284603B0BDE8F08FA379F4
:102E6000990705D407212068FFF7C5F80725F2E781
:102E7000A36813EB080F05D204F124030193B8F102
:102E8000000F0AD1A368E268934200F2A280A379FE
:102E9000002143F02003A371D5E7A268C2F3080321
:102EA000002B40F0838020688378013B03EA5223A3
:102EB00013F0FF03009316D15AB9216921B9FFF726
:102EC000AEF901460028DDD0012904D10225E571C3
:102ED000B8E76169F3E74A1C01D10125F7E72369E7
:102EE000616103B92161A3795B060CD520680123D8
:102EF000A2690199407801F074FA0028EDD1A37914
:102F000023F04003A371D4F800A061695046FFF795
:102F10007FF830B9022550462946E571FFF76BF876
:102F200099E7009B5FEA582600EB03072DD0009A33
:102F30009AF8023032449A4288BF009A494688BFC4
:102F40009E1AF3B23A469AF8010001F04AFA0028B4
:102F5000C3D1A169C91B8E420AD94FF4007209EB93
:102F600041210198FEF7C8FDA37923F04003A37126
:102F70007602A368B1443344A360DBF80030A8EBC9
:102F800006083344CBF8003079E7A3699F420CD0A0
:102F9000A268E3689A4208D201233A4601999AF856
:102FA000010001F002FA002897D1A761A068494604
:102FB000C0F30800C0F50076464528BF46462430D9
:102FC00032462044FEF798FDA37943F04003A371F5
:102FD000CFE7E3605BE770B50446FEF7EFFF054619
:102FE000002838D1A3799A0635D55B0613D5206819
:102FF0000123A26904F12401407801F0F2F930B113
:1030000001212068FEF7F7FF0125284670BDA3794E
:1030100023F04003A371E1692068FEF781FE0546B5
:10302000C8B9266AF37A43F02003F372E368F361C8
:10303000236973831B0CB38201F08EFC7582C6F882
:103040001600A379206823F02003A37101230371E4
:10305000FEF72CFE054629462068FEF7CCFFD4E794
:1030600038B50546FFF7B7FF044648B92846FEF7CE
:10307000A5FF044620B9286821462C60FEF7BBFF57
:10308000204638BDF8B504460E46FEF797FF0546C4
:1030900010B1294620686AE0E17929B12068FEF77D
:1030A000AAFFE5792846F8BDE368B34204D2A279C5
:1030B00012F0020F08BF1E460022A368A260002E75
:1030C00030D1A368E2680021934281BFE360A37915
:1030D00043F02003A371DDE70026A368C3F30803D0
:1030E000002BEED0A2699642EBD0A37904F124071D
:1030F00013F0400F0BD0206801233946407801F0CF
:1031000070F9002842D1A37923F04003A37120680D
:10311000012332463946407801F047F9002835D17D
:10312000A661CEE7206887787F021BB3013B721E41
:10313000B2FBF7F2B3FBF7F18A421BD37A4213409A
:103140006169A360F61A0029C6D0BE4223D8A368DD
:103150003344A360C6F30803002BBDD02268104699
:10316000FEF756FF90BB022510462946E571FEF793
:1031700042FF97E7216961B9FFF751F8012801463D
:1031800002D10225E57184E7013001D10125F9E77B
:1031900021616161D7E7A37920689A0705D5FFF718
:1031A0003EF8014620B93E46D1E7FEF73CFF014616
:1031B0004B1CEBD00129E4D923689B699942E0D2EA
:1031C000A36861613B44A360F61BBEE700EB562693
:1031D00083E730B5C9B001910546002837D00022F9
:1031E00001A903A8FEF7DCFD044688B9039B0199F9
:1031F0002B6004ABAB6107ABEB612846FFF766F9C8
:10320000044630BB6B697BB1DA7AD20603D405245D
:1032100000232B6014E003995A8B0978032904BF1B
:103220009B8A42EA0342AA60039B0021DB8828466E
:10323000AB80FEF74BFF04280446E8D0002CE7D112
:1032400021460398FEF7D7FE204649B030BD092439
:10325000FAE70428DBD0DBE770B5C4B004460E46BD
:10326000FEF7ACFE0546E0B92EB901462046FEF752
:103270002DFF054615E003ABC4F818D0E3612046E6
:10328000FFF7A6FB042813D1256131462046FEF73F
:1032900082FC00212046FFF712F80428E9D1002320
:1032A000236120682946FEF7A6FE284644B070BD7B
:1032B0000028DED1E9E72DE9F347144602AB43F8D5
:1032C000040D8846204600221946FEF769FD246851
:1032D000054630B9A7696369BA1E934209D8C8F890
:1032E000003020462946FEF786FE284602B0BDE89B
:1032F000F08794F80090B9F1010F17D10227064624
:1033000039462046FEF78FFE431C32D0012832D0CA
:1033100000B90136A36901379F42F1D36379666131
:1033200043F001036371C8F80060DAE70346024620
:103330000646616A52B9204601F1010AFEF7F0FC27
:10334000D8B951464FF4007204F13403B9F1020FB9
:1033500007D1188800B901360233023A013FE9D19A
:10336000DCE71868043A30F0704008BF01360433D7
:10337000F4E70125D2E70225D0E70546CEE730B5D0
:10338000D9B00190012201A905A8FEF709FD044664
:10339000002831D102AB0B93019917AB05A80C9310
:1033A000FFF794F8044638BB0A9B63B3DA7A12F04D
:1033B000010F18BF0724059A5D8B1278032A04BFFA
:1033C0009A8A45EA0245BCB9DB7ADB0629D5012D8C
:1033D00023D9242205A90EA8FEF78EFB02210EA8F0
:1033E0001095FEF773FE044630B90EA8FFF7F0FA09
:1033F0000446A0B1042814D005982146FEF7FBFD31
:10340000204659B030BD0624D5E729460598FFF778
:1034100053FB04460028EFD10BE00224ECE707241D
:10342000EAE705A8FFF7A6FA04460028E4D1002D34
:10343000EBD10598FEF73AFC0446DDE72DE9F04FA5
:10344000D1B0019001F088FA0122804601A906A8B6
:10345000FEF7A6FC04460546002840F08A8003AB30
:103460000C9301990FAB06A80D93FFF72FF80446B4
:10347000002800F08A8004287BD129460698FEF7B0
:10348000CEFE054600286FD001287AD0431C7AD0A2
:103490000698FEF705FC0446002866D1069E2946DC
:1034A0003046FEF7B5FD06F13407214600904FF493
:1034B00000723846FEF73CFB0B2220213846FEF70F
:1034C00037FB10222E2425FA02FA1FFA85F986F816
:1034D0003F203946202206F1540086F83440C6F8D1
:1034E0004A80A6F84E90A6F848A0FEF705FB06997C
:1034F00086F855400878089A0328009B03D1886A0B
:10350000824208BF0022A6F86E20120CA6F868209E
:103510008E78A6B906A8FFF711F9044628BB102239
:103520000B9B0698DA72C3F81680A3F81A90A3F8DA
:1035300014A001230371FEF7B9FB044619E00698B5
:1035400003F1010B03634FF001030371FEF785FBE9
:10355000044650B901464FF400723846013EFEF76A
:10356000E7FAF6B25B46D4E7072429460698FFF748
:10357000A3FA06982146FEF73EFD204651B0BDE86D
:10358000F08F0224F1E70124EFE70824F1E710B5FA
:10359000DEB001900091012201A90BA8FEF700FC0A
:1035A0000446002873D10B9B0199149302AB11932D
:1035B0000BA81DAB1293FEF789FF0446002866D1C5
:1035C000109900296AD015220B3105A8FEF794FA4C
:1035D00024220BA914A8FEF78FFA6846FEF7BEFA5C
:1035E00000285DDB009914A8FEF770FF0446002850
:1035F00058D004284BD114A8FFF7A0F8044600289F
:1036000045D1199C13220DF1160104F10D00FEF7AE
:1036100073FA9DF814300B9A43F02003E3720123F0
:1036200013710D99169B994228D0E37ADB0625D5B4
:103630001378618B032B08BFA38A104608BF41EAA9
:103640000341FEF7E5FC014670B31046FEF768FB48
:103650000446E0B90B9B93F855202E2A0ED11A7818
:10366000032A03D116999A6A914200D0169C01222E
:10367000A3F86E40240CA3F868401A710BA8FFF75A
:1036800079F9044618B90B98FEF710FB04460B981D
:103690002146FEF7B0FC20465EB010BD0424F6E7DC
:1036A0000B24F4E70824F2E70224F0E72DE9F04FB9
:1036B00089B008AB43F80C0D18460E461546FEF7C8
:1036C0004DFA0028C0F2F781012E00F2F6816B1E40
:1036D0002B40029340F0F181504B53F82040002CD6
:1036E00000F0ED819DF80830C7B22370384600F035
:1036F00041FEC20700F1E581430700F1E48107AA1A
:103700000121384600F089FE18B1012009B0BDE85A
:10371000F08F07997F29F8D9002E14BF4FF0000AC7
:103720004FF03F0AA1EB0A0107915DB94FF4FA632C
:10373000B1FBF3F33A4830F81520934218D3394BD4
:1037400033F815506D0A15D0802D28BF8025B1FBA8
:10375000F5F340F6F572934240F2F8814FF6F572B8
:10376000934200F2B28102335B004FF00208F4E1B1
:103770000135E0E70125EAE706AA0321384600F013
:103780004CFE20B9069B013BB3F5004F01D301234A
:103790000693069AB8F1030F02F1FF334B44C2F1CE
:1037A000000203EA0203A3EB0903069322D1019A64
:1037B0009B441A440192079A0099A2EB0B035B1AEF
:1037C0000399B8F1020FA3EB0103B3FBF5F30493E4
:1037D00014D140F6F5730499994240F2D581B2F5BF
:1037E000803F34BF4FF004094FF006094EB34FF04D
:1037F000F0095DE0009A1A440092DCE7B8F1030F8B
:1038000012D14FF6F573049A9A4240F2BD81002E10
:1038100040F067814FF00C0913E000BF5CC4072043
:10382000844F02002A4F0200B8F1010FD7D1B2F540
:10383000803F34BF4FF001094FF00609002E40F0E1
:103840006B8104F134064FF4007200213046FEF71C
:103850006FF9FE2143F6C160DDF81CE084F8F71132
:103860000AEB0E01B1FBF0F18808069184F8F9111A
:103870003F2101230022C4F8FA114AF6552140F0F5
:103880003F0084F8F801A4F8321284F8F33184F888
:10389000F43184F8F52184F8F691C4F8FEE131465C
:1038A000384600F09EFD00287FF42FAF4FF0F80956
:1038B00004F134064FF4007200213046FEF738F967
:1038C0000B22B2493046FEF717F94FF40073A4F803
:1038D0003F300123B8F1030F84F84430029B18BF36
:1038E0004FF4007384F84150A4F842B00293BDF83D
:1038F000083084F84990A4F84530079BC4F850A0DC
:10390000B3F5803F34BFA4F8473063653F23A4F884
:103910004C30FF23A4F84E3001F01EF8B8F1030F2D
:10392000069040F09C80009B1322A365022323662F
:103930000123A4F864300623A4F86630802384F8B9
:10394000743029239249C4F8770084F8763004F162
:103950007B00FEF7D1F84AF655235246A4F83232DE
:1039600031460123384600F03CFD00287FF4CDAEFF
:10397000B8F1030F06D101230AF106023146384699
:1039800000F02FFD4FF4007200213046FEF7D0F812
:10399000B8F1030F74D0B8F1010F7E4B18BF6FF070
:1039A000FF0343EA090306936363019B314603F176
:1039B0000109019A0123384600F013FD0146002851
:1039C0007FF4A3AE4FF400723046FEF7B1F8012346
:1039D0000693069B009A9A425DD8039B4A46B8F12B
:1039E000030F18BF1D464D4401233146384602F1EE
:1039F000010B00F0F6FC00287FF487AEAB455A4679
:103A0000F2D1B8F1030F21D1634B3146636303F167
:103A1000FF5303F500532033C4F81832049B384693
:103A2000013BC4F81C320223C4F820324AF6552365
:103A3000A4F8323201230AEB030200F0D2FC012386
:103A40000AF107023146384600F0CBFC0022384626
:103A5000114600F0E2FC003018BF012056E6BDF828
:103A60000030C4F85B00A4F84A30802384F8583052
:103A70002923132284F85A30484904F15F0068E78B
:103A800069F0FF03069363634FF0FF33A3636FF0A6
:103A90007043E36389E701234A463146384609F11A
:103AA000010B00F09EFC00287FF42FAE069BD94648
:103AB000013306938DE70B2028E6132026E60C2021
:103AC00024E6032022E60A2020E69B0003F20723D7
:103AD0005B0A009300234FF0030803934FF0200B81
:103AE00043E004F134064FF4007200213046FEF743
:103AF0001FF80B2225493046FDF7FEFF4FF40073F7
:103B0000A4F83F30012384F84150A4F842B084F86F
:103B100044304FF0F009EAE604F134064FF4007245
:103B200000213046FEF704F80B2218493046FDF715
:103B3000E3FF4FF4007384F84150A4F83F30A4F839
:103B400042B084F844804FF0F009CFE64FF001080E
:103B500003EB430301335B08033303F2FF135B0AF8
:103B6000009320234FF0010B03930BEB0A03019307
:103B7000039A009B03EB0209019B9944A5EB0A03FE
:103B80004B449942BFF4F8AD0E20BFE5404F020010
:103B90004C4F020000FFFF0052526141604F020093
:103BA00010B501200C4605F06DF82060003018BFFC
:103BB000012010BD0120704710B5044605F0DCFE61
:103BC00002280AD100234FF0FF321946204605F0A3
:103BD000DFF8431E5842584110BD012010BD10B5FA
:103BE000044605F0C9FE022807D100232046BDE89F
:103BF00010401A46194604F0C3BF10BD7F2810B507
:103C000016D931B1FF2812D80A4B803833F810008A
:103C100010BD084A32F811408BB2844203D0013102
:103C20008029F7D10B4603F18000C0B210BD0020FF
:103C300010BD00BF9A4F02000023064931F813203F
:103C400022B1824203D1044A32F813007047013393
:103C5000F4E700BF9A5002007A52020008B5FCF760
:103C60001DFC4FF47A72002309F008FD08BDFFFF28
:103C700010B50446FCF7A0FD074BB0FBF3F00223A0
:103C8000B0FBF3F2944202D3044A136110BDB3F5C2
:103C9000807FF9D00233F3E740420F000000034079
:103CA000034B9860DA68D206FCD49868C0B27047BB
:103CB0000000034070B5FFF7D1FF00F5FA74FF2054
:103CC000FFF7EEFF0025FF20FFF7EAFFFF2806467B
:103CD00005D0FFF7C3FFA94208BFA042F3D3304687
:103CE00070BDFFFF38B54FF00075054CE561FFF77B
:103CF000E1FF044AA561137843F00103137038BD56
:103D000020C0092095C007202DE9704306460D46C6
:103D1000FFF7A4FF643080464FF00009FF20FFF753
:103D2000BFFFFF2808D1FFF799FF494508BF40456D
:103D3000F4D30020BDE87083FE28FAD1102D0ED9EF
:103D400000224FF40071304604F010FBFF20FFF713
:103D5000A7FFFF20FFF7A4FF0120BDE87083341DFB
:103D60000435FF20FFF79CFF04F8040CFF20FFF749
:103D700097FF04F8030CFF20FFF792FF04F8020CF2
:103D8000FF20FFF78DFF043404F8050C2B1BDE42E7
:103D9000E7D1DBE770B506460D46FFF78BFFFF283E
:103DA000044619D12846FFF77BFFFD2D16D0224689
:103DB0004FF40071304604F0D9FA2046FFF770FF47
:103DC0002046FFF76DFF2046FFF76AFF00F01F0057
:103DD000431F5842584170BD002070BD012070BD86
:103DE000020638B504460D4607D500217720FFF7B7
:103DF000F7FF012836D804F07F044FF000721A4B09
:103E00009A61DA61FFF756FFFF282AD12046FFF7B3
:103E100047FF280EFFF744FFC5F30740FFF740FFB9
:103E2000C5F30720FFF73CFFE8B2FFF739FF402C4E
:103E300015D0482C14BF01208720FFF731FF4C2CF0
:103E400002D1FF20FFF72CFF0A21FF20FFF728FFF8
:103E5000030607D5013911F0FF01F6D138BD9520D1
:103E6000EBE7FF2038BD00BF20C00920064A074904
:103E700013784969DBB2490154BF03F0FD0343F0F5
:103E800003031370704700BF95C0072020C00920AE
:103E90002DE9F743FFF7EAFF554B1A781E4612F05B
:103EA000020F04D01878C0B203B0BDE8F08301203F
:103EB000FFF7DEFE0A24FF20013CFFF7F1FE14F0BD
:103EC000FF04F8D14FF000734A4F2146FB614020B8
:103ED000FFF786FF0128804613D04FF00008464BBD
:103EE00083F800804FF00073BB61B8F1000F7BD006
:103EF0003378182003F0FE033370FFF7B9FE3078F3
:103F0000D1E7FFF7ABFE4FF4D57100F57A75482085
:103F1000FFF766FF012840D10DF10408FF20FFF7ED
:103F2000BFFE08F804000134042CF7D19DF80630D8
:103F3000012BD2D19DF80730AA2BCED12C460025DB
:103F4000FFF78CFEA94208BFA0421ED3FFF786FEF2
:103F5000A94208BFA042C0D200217A20FFF740FF4B
:103F60000028BAD10146FF20FFF79AFE08F80100A9
:103F700001310429F7D19DF8043013F0400F14BF2C
:103F80004FF00C084FF00408A9E74FF08041E920FA
:103F9000FFF726FF0028D3D1D8E72146E920FFF715
:103FA0001FFF02282C4636BF4FF0E9094FF04109A8
:103FB0004FF002080025FFF751FEA94208BFA042BA
:103FC0000BD3FFF74BFEA94208BFA04287D34FF4A3
:103FD00000715020FFF704FF81E700214846FFF7FA
:103FE000FFFE0028E7D1ECE7FFF77CFE87E700BF84
:103FF00095C0072020C0092066C4072008B5FFF738
:1040000035FF014B187808BD95C0072070B51446E0
:1040100006460846FFF72AFF002C38D01E4B1B78B7
:10402000DA0736D44FF000721C4DEA611C4A127850
:10403000130758BF4002012C014612D15120FFF74F
:10404000CFFE38B94FF400713046FFF75DFEB0FA8D
:1040500080F464094FF00073201CAB6118BF01208D
:1040600070BD5220FFF7BCFE0028F3D14FF4007161
:104070003046FFF749FE28B1013C14F0FF0406F575
:104080000076F3D100214C20FFF7AAFEE2E70420DE
:1040900070BD032070BD00BF95C0072020C009205F
:1040A00066C40720F8B5144606460F46FFF7DEFE45
:1040B000002C44D0254B1A78D10742D41B785A07DC
:1040C00041D44FF00072224DEA61224A1278130760
:1040D00058BF7F02012C12D139465820FFF780FECD
:1040E00058BBFE213046FFF755FEB0FA80F4640954
:1040F0004FF00073201CAB6118BF0120F8BD12F017
:10410000060F03D02146D720FFF76AFE3946592013
:10411000FFF766FE0028EBD1FC213046FFF73AFEA0
:1041200028B1013C14F0FF0406F50076F4D1FD211E
:104130000020FFF72FFE0028DAD10124D8E7042061
:10414000F8BD0320F8BD0220F8BD00BF95C00720D0
:1041500020C0092066C407207FB50D46FFF786FE04
:1041600005281AD12B78012B15D005D3022B0BD0A3
:104170000424204604B070BD7B4B5C6914F080645D
:1041800009D1FFF7AFFDF4E7774B5B6983F08063FC
:10419000C3F380636B700024EBE7744B1B78DB0781
:1041A00000F1E0800E2800F2DB80DFE800F0081765
:1041B000555AD9D9D9D9D9D9A7ABBABDCD004FF065
:1041C0000072694BDA61FFF775FDB0F1FF0418BFAB
:1041D00001244FF00072644B9A61CAE70021492024
:1041E000FFF7FEFD044608B10124F2E710216846FE
:1041F000FFF78AFD0028F7D09DF800309DF80810E1
:104200009B09012B9DF8093006D15A1C02EB0122B3
:1042100092B292022A60DCE79DF807209DF80A001E
:10422000920002EB91129DF806100132890201F40E
:1042300040610A449DF805105B0001F00F0101EB9D
:10424000D011023103F006030B44DBB292B2093BFA
:1042500002FA03F32B60BCE74FF400732B800024B9
:10426000B7E7434E317811F004011CD00021CD2076
:10427000FFF7B6FD0028B7D1FF20FFF711FD102191
:104280006846FFF741FD0028AED03024FF20FFF73D
:1042900007FD601E10F0FF04F8D19DF80A301A09DE
:1042A00010239340D6E74920FFF79AFD04460028E3
:1042B0009AD110216846FFF727FD002894D0307866
:1042C0009DF80A3010F002009DF80B100AD05B0038
:1042D0009DF80D2003F07E0303EBD1139209013307
:1042E000013ADEE7CA0002F01802C3F3840302EBCE
:1042F0005112013302FB03332B60B0E71C4B1B78D8
:104300002B70ACE700214920FFF76AFD00287FF4FD
:104310006BAF10212846FFF7F7FCB0FA80F4640970
:1043200057E700214A20EFE700217A20FFF758FDE8
:1043300000287FF459AF291DFF20FFF7B1FC05F8D5
:10434000010B8D42F8D18AE70021CD20FFF748FD0F
:1043500000287FF449AFFF20FFF7A2FC4021D9E7F6
:10436000042436E7032404E720C0092095C0072071
:1043700066C4072010B5044604F058F81CB1012C9F
:1043800008D0042402E000F057F9044604F066F86F
:10439000204610BDFFF77CFDF7E728B1012801D0CA
:1043A00004207047FFF72ABE7047F8B507460C4651
:1043B00015461E4604F03AF81FB1012F0BD0042415
:1043C00005E032462946204600F082F9044604F012
:1043D00045F82046F8BD324629462046FFF716FE2E
:1043E000F4E7F8B507460C4615461E4604F01EF8DD
:1043F0001FB1012F0BD0042405E032462946204688
:1044000000F08EF9044604F029F82046F8BD324643
:1044100029462046FFF746FEF4E770B506460C46EF
:10442000154604F003F81EB1012E0AD0042404E05E
:104430002946204600F09AF9044604F00FF8204679
:1044400070BD29462046FFF787FEF5E7054B1B7830
:10445000253BDBB2032B9ABF034A52F8230000200E
:10446000704700BF6CC40720645402001B4B2DE949
:10447000F0411D880646B5F5007F0F46144603D16E
:104480002A46214638460BE0B5F5807F0CD12A46F6
:1044900021463846B0472A4604F5807107F58070FA
:1044A0003346BDE8F0411847B5F5047F04D1510A01
:1044B00089024FF40072E5E7B5F5847F0BD1140A49
:1044C00061024FF480723846B0474FF48072013475
:1044D0006102B818E4E7BDE8F08100BF6EC40720B0
:1044E00010B5294B00294DDD0729027829DD9A6096
:1044F000427808399A6082789A60C2789A60027924
:104500009A6042799A6082799A60C47900F10802CF
:104510009C609C696407FCD59C6804709C6844702E
:104520009C6884709C68C470DC68E406FCD49C6859
:1045300004719C6844719C6884719C68C4711046C5
:10454000D0E7032914DD9A60427804399A608278B2
:104550009A60C478021D9C60DC68E406FCD49C6808
:1045600004709C6844709C6884709C68C470E6E722
:10457000441C9A600139DA68D206FCD49A68027049
:104580002046AFE710BD00BF0000034007B50B0C8D
:104590008DF805308DF807100B0A04218DF8040002
:1045A0000DEB01008DF80630FFF79AFF03B05DF8C0
:1045B00004FBFFFFF7B5032340250E4C1746E561CA
:1045C0008DF804300B0C8DF805308DF807100B0AB0
:1045D000042106460DEB01008DF80630FFF780FF41
:1045E00000223946304603F0C1FEA561A561A561F0
:1045F00003B0F0BD00C0092040220D4BDA61D72284
:104600000C4B9A60DA68D206FCD40A4A9B68FF21F8
:1046100013469160D868C006FCD4986810F0800FEB
:10462000F7D04022024BC0B29A619A619A617047FA
:1046300000C0092000000340F7B5FFF7DDFF0023AD
:1046400040271E4C1E4E23801E4BF7611A889B7814
:104650000546032101A8ADF804208DF80630FFF7C8
:104660003FFF9DF805209DF806301F2AB761B7610E
:10467000B76115D1A3F12502032A11D8124A252BBF
:10468000137005F0010011D1002814BF4FF480739E
:104690004FF484732380FFF7D9FE0C4B400A186057
:1046A0002088B0FA80F0400903B0F0BD002814BFA4
:1046B0004FF400734FF40473ECE700BF6EC407209F
:1046C00000C009205A5402006CC4072068C40720A7
:1046D0002DE9F0418B1817460F4A013B126804463A
:1046E000934212D84D020026FFF786FFDFF82C8098
:1046F0002D1BBE4204EB05020ADA21464046FFF7B5
:10470000B5FE04F500740136F3E70120BDE8F08141
:104710000020BDE8F08100BF68C40720B545010056
:104720008B182DE9F04117460E4A013B126893425F
:1047300011D804460026DFF83080C0EB4125BE4288
:1047400004EB05020ADA21464046FFF78FFE04F526
:1047500000740136F3E70120BDE8F0810020BDE8D8
:10476000F08100BF68C407204D48010008B5072844
:1047700005D8DFE800F0060A0F130808080804202F
:1047800008BDFFF739FF002008BDFFF75FFE400AB4
:104790000860F8E74FF400730B80F4E701230B6027
:1047A000F1E7FFFF70B590B003466A466E4600F130
:1047B0004005144618685968083303C4AB422246C2
:1047C000F7D14024074D0021EC619B20FFF7DEFE6E
:1047D00021463046FFF784FEAC61AC61AC6110B09D
:1047E00070BD00BF00C0092070B540240646074DCB
:1047F00000217720EC61FFF7C9FE21463046FFF724
:104800006FFEAC61AC61AC6170BD00BF00C009203F
:1048100008B5064B198831F01F0104D0FFF716FECA
:10482000B0FBF1F008BD084608BD00BF6EC407200C
:10483000014B1888704700BF6EC40720024B1878E0
:10484000003018BF012070476EC407204FF0FF33BF
:104850002DE9F7430F46914601938046FFF7CCFEC2
:10486000FFF7ECFF0646B8B14025194C194BE5613E
:104870001B880320B3F5847F0CBF4FF480714FF485
:1048800000713943FFF782FE04210DEB0100FFF7B1
:1048900027FEA561A561A56140230D4C3946822004
:1048A000E361FFF773FE01224946404603F05EFDD7
:1048B0003EB1019B02A8013340F8043D0421FFF7FB
:1048C0000FFE4023A361A361A36103B0BDE8F083A1
:1048D00000C009206EC40720124B37B51B88B3F502
:1048E000847F0CBF4FF480714FF400714FF0FF33A1
:1048F00041EA40210193FFF7A1FF68B140250A4C2E
:104900000320E561FFF742FE04210DEB0100FFF7F4
:10491000E7FDA561A561A5610198431C08BF0020C2
:1049200003B030BD6EC4072000C0092037B5402554
:104930000421074B074C18680190E5610DEB01005D
:10494000FFF7CEFDA561A561A56103B030BD00BF35
:104950005D54020000C009201FB501A803F0A8F9AA
:104960009DF8093003F00F009DF8083003F01F0395
:104970001B0443EA40539DF8060000F01F0043EA81
:10498000C0239DF8050000F03F0043EA40139DF866
:104990000400C0F344000343BDF80A00400600F1E0
:1049A0000840184305B05DF804FB2DE9F04FADF267
:1049B000546D0C4690460146012282A89946FEF7A6
:1049C000E5F8824650B90A2221460DF22C40FEF746
:1049D000DDF8824638B182A8FEF742FB50460DF260
:1049E000546DBDE8F08F6C460546064607462060CC
:1049F0000190FBF753FD4FF47A72002308F03EFE5E
:104A0000234683464FF4007202A982A8FEF755F9A7
:104A1000824608B922689AB9B8F1000F01D0C8F8E7
:104A20000070B9F1000F01D0C9F80060DDF87836E8
:104A300003B11D6082A8FEF713FB0DF22C40CBE7FB
:104A4000FBF72CFD4FF47A72002308F017FEB0EB51
:104A50000B000744FBF722FD4FF47A72002308F0A5
:104A60000DFE01AB8346226802A90DF22C40FEF731
:104A7000DCF982460028CFD1019922689142CBD13E
:104A8000FBF70CFD00234FF47A7208F0F7FD236862
:104A9000B0EB0B0006441D44ABE7F0B51D46002308
:104AA000ADF50B7D0E4617460146012201A8009385
:104AB000FEF76CF8044670B91DB1294601A8FEF74F
:104AC000E1FA6B463A46314601A8FEF7F6F804468D
:104AD00001A8FEF7C5FA20460DF50B7DF0BDF0B537
:104AE0001D460023ADF50B7D0E46174601460A22F2
:104AF00001A80093FEF74AF8044670B91DB1294693
:104B000001A8FEF7BFFA6B463A46314601A8FEF708
:104B10008CF9044601A8FEF7A3FA20460DF50B7D9B
:104B2000F0BDF0B51D460023ADF50B7D0E461746D2
:104B30000146122201A80093FEF728F8044670B936
:104B40008DB1294601A8FEF79DFA6B463A463146DB
:104B500001A8FEF76AF9044601A8FEF781FA20468B
:104B60000DF50B7DF0BD0499ECE713460A4601797B
:104B7000006802F02EBD1FB5002204AB23F8042DFF
:104B800002220479009200680A46214602F00AFDDA
:104B90009DF80C009DF80D3043EA002004B010BDD4
:104BA00010B5044619222A21FFF7DFFF0D222179D3
:104BB000206802F0E3FCA0F12A035842584110BDDE
:104BC000044A13881F2BDFBF581C1080024A42F88A
:104BD00023107047F0C4072070C40720F0B5154EAD
:104BE0003388012B23DD144A00201546013B9842EF
:104BF00008DA52F8041F013052F8044C091B42F83D
:104C0000041CF4E700214FF0010E0C46686800EB2D
:104C100050008AB2934208DD55F822700131B84243
:104C20003CBF0EFA02F21443F3E7044B1C6000236E
:104C30003380F0BDF0C4072070C40720F4C40720FF
:104C400008B501210220FBF769FE084B01209A6A92
:104C500022F007029A629A6A42F006029A62044AB5
:104C6000D36843F03003D36008BD00BF008000402C
:104C700000C0024008B5044B417101F07F015A5C4D
:104C80000321FFF772FF08BD7454020008B5044BFE
:104C9000817101F07F015A5C0221FFF766FF08BDB8
:104CA0007454020038B504460179006802F0A9FC8A
:104CB000054688B1002206212046FFF756FF002254
:104CC00007212046FFF751FF2E212046FFF7D2FF94
:104CD0002E212046FFF7DAFF284638BD70B5642440
:104CE000B1FBF4F303FB14140A21E4B2B4FBF1F5B5
:104CF00001FB15413031C9B20646FFF7C7FF092C49
:104D000088BF05F130013046BDE8704094BF2021D6
:104D1000C9B2FFF7AFBF01207047FFFF38B50C469F
:104D2000054603F009FD012204F00F032B700E4B22
:104D300014F0010F14BFDA619A61022214F0020F1D
:104D400014BFDA619A61102214F0040F14BFDA6103
:104D50009A614FF4807214F0080F14BFDA619A61FF
:104D6000BDE8384003F0F8BC20C00920012070479E
:104D7000022003F061B901207047FFFF044B5B691B
:104D8000180B00F00C00C3F341231843704700BF19
:104D900020C0092010B5044681220121FFF7E5FE5D
:104DA00001222179206802F0E9FB10F0600F14BFA6
:104DB0000120002010BD38B500210446FFF7DBFEBE
:104DC000812205B201212046FFF7CFFE102095FB7E
:104DD000F0F008F069FA4FF0765108F0B9FAA168DE
:104DE00008F0AEF938BDFFFF08B5FFF7E4FF05494D
:104DF00008F0AEFA044908F05FFB4FF0844108F078
:104E00009FF908BD000010410000A0402DE9F043CB
:104E10000646C1B0154698460C46002950D01146AA
:104E200047680068A04729462648A047B268264937
:104E300068460BF043F829466846A047F2682249C5
:104E400068460BF03BF829466846A0471F49327C6C
:104E500068460BF033F829466846A047B8F1000FC2
:104E60000FD069464FF48072304600F063FB29464C
:104E70006846A04716482946A047012041B0BDE832
:104E8000F0833A78134968460BF018F829466846CB
:104E9000A047B368F668DFF840905E4307F1010869
:104EA0000136A6EB08033B44012BE3D9494618F829
:104EB000012B68460BF002F829466846A047F0E748
:104EC0000846DBE7A8640200F4540200F95402002B
:104ED000076C0200FE540200FD54020070B50D463E
:104EE00004460BF0CBF82B46024601212046BDE8D4
:104EF000704009F03BB9FFFFF0B50C4687B017468C
:104F00001D46064648B341B31022002102A809F00D
:104F10002FFB706800F0A4FD1149024602A80AF0B8
:104F2000CDFF29460F48A04729463068A0472946AB
:104F30000D48A047294602A8A04700972B462246C5
:104F40000A49706800F0D7FD29460948A04729465C
:104F50003068A04729460748A04707B0F0BD00BF0A
:104F6000635E020003550200A86402000D4E0100BA
:104F70000A550200076C02004B688A680968FFF74F
:104F8000BBBFFFFF1FB501900291039201A9002250
:104F9000024800F043F905B05DF804FB794F0100C9
:104FA0000B4619B100220249FFF7A6BF704700BFA8
:104FB000DD4E01002DE9F04FC9B008AE0546802254
:104FC0000021304609F0D4FA0024DFF89CA12A46DB
:104FD0007F21304608F0B0FE18B9204649B0BDE840
:104FE000F08F604930460BF0B2F88642EFD13A219B
:104FF0000BF024F800F101083A2140460BF01EF8AE
:1050000007460028E3D000230370404600F0BEF8B6
:1050100001900028DBD0781C08F0BFFC80460DF121
:10502000A009B8F1000F01D10124D0E700248022AB
:105030000021484609F09CFA2746284608F012FE4F
:10504000431C19D03A2819D10137032F16DD00244B
:1050500007AA5146484607940BF0E7FE07AA5146B7
:10506000074620460BF0E1FE07AA8346514620463C
:105070000BF0DBFE04463FB90024AEE709F804005C
:1050800001347F2CD9D1E2E7BBF1000FF4D0002826
:10509000F2D0584608F081FC8346204608F07DFC9B
:1050A000394600FB0BFB019800F022F980B18268C1
:1050B000C36853439B450BD1476807EB0B034FF085
:1050C000FF3B0393039B9F4205D1BBF10A0FD3D152
:1050D00008F1FF38A5E7284608F0C4FD0446284635
:1050E00008F0C0FD0290284608F0BCFDB0F1FF3F7B
:1050F0008346C1D009F066F9E3B25A1C815C4807C7
:1051000012D5303C09F05EF99DF80830E4B25A1C23
:10511000815C24014907E4B215D5029B303B1C4455
:10512000E4B207F8014BCDE70593049209F04AF980
:10513000049A059B825C02F00302012A08BF203317
:10514000A3F15704DEE70492029309F03BF9049AB5
:10515000029B825C02F00302012A08BF2033573B06
:10516000DDE700BF03550200A864020010B50C463D
:1051700011461A46A047012010BD08B500680AF084
:105180006BFF003018BF012008BDFFFF07B50023EB
:1051900030B10246044800930449006800F095FCD1
:1051A00003B05DF804FB00BFF8C407207B51010089
:1051B000F8B5064610B900242046F8BD0378002B48
:1051C000F9D0154D2B6813B900F040FC286030462B
:1051D000FFF7DCFF07460028EDD1082009F064F94D
:1051E00004460028E7D080E8C00000F02FFC606093
:1051F00018B9204609F060F9DDE72868214600F07B
:1052000032FC05460028D7D1606809F055F92046E0
:1052100009F052F92C46CFE7F8C4072007B50B4632
:1052200030B10092024604480449006800F063FC73
:1052300003B05DF804FB00BFF8C407206D51010006
:1052400008B542684B689A4207D0096800680AF0BE
:1052500003FF003018BF012008BD002008BD08B5BD
:105260000B46016818460AF0F7FE003018BF01200F
:1052700008BDFFFF2DE9F743894690461F46BDF85C
:105280002850064620B90025284603B0BDE8F08323
:105290000029F8D0002AF6D0002BF4D0142009F011
:1052A00003F904460028EED09DF82C30002D03743D
:1052B00008BF01250023C560C0F80090C0F8048035
:1052C0008760009302460949706800F014FC0546A7
:1052D00018B9204609F0F0F8D6E72146706800F0CA
:1052E000C2FB05460028CFD1F3E700BF41520100C1
:1052F00013B50A4640B149B10C78002344B100937C
:105300000449406800F0E1FB02B010BD0846FBE72D
:105310002046F9E75F52010037B50D46FFF736FF2B
:1053200048B155B12C7800234CB100932A46054969
:10533000406800F0CAFB03B030BD2846FBE72046BA
:10534000F9E700BF5F5201002DE9F3471446FFF76C
:10535000E3FF8046002800F0DF8098F8103004302A
:10536000013B85C807FB0207072B00F2D580DFE869
:1053700003F0224B70ABD395D30405464FF00009E0
:10538000674EBD4228D2214630460AF0E0FE221A7E
:10539000D8F8043050425041187023461A781C4601
:1053A000013312B12C2AF9D11C46D8F808304FF03D
:1053B00001091D44E5E700230646994602ADDFF8E2
:1053C00064A145F8043DBE4206D22A465146204615
:1053D0000AF098FD012803D0484602B0BDE8F087E6
:1053E000D8F808202946304609F09DF823461A7857
:1053F0001C46013312B12C2AF9D11C46D8F80830CA
:105400004FF001091E44DEE700230546994602AE2F
:10541000DFF814A146F8043DBD42DDD232465146C4
:1054200020460AF06FFD0128D6D1D8F80820314671
:10543000284609F078F823461A781C46013312B141
:105440002C2AF9D11C46D8F808304FF001091D4428
:10545000E2E74FF00009054602AEDFF8D0A006F8FB
:10546000049DBD42B8D23246514620460AF04AFD5C
:105470000128B1D1D8F808203146284609F053F860
:1054800023461A781C46013312B12C2AF9D11C4646
:10549000D8F808304FF001091D44E2E7002109F077
:1054A00067F820460AF0EAFDD8F80830D8F804502A
:1054B00098420246214628BF03F1FF32284609F0F0
:1054C00032F84FF0010987E7002305464FF0000945
:1054D00002AEDFF85CA046F8043DBD42BFF47CAFED
:1054E0003246514620460AF00DFD01287FF474AF84
:1054F000D8F808203146284609F015F823461A78CE
:105500001C46013312B12C2AF9D11C46D8F80830B8
:105510004FF001091D44E0E74FF000095CE700BFD0
:10552000C6550200355502006D5502008C5502002B
:10553000B9550200037C2DE9F74F013B05460C46A7
:105540001646072B00F2F781DFE813F008008B0006
:105550000D017801D40147012A014E018368012B16
:1055600020D14768CA4A97F90030314620460AF0F0
:1055700071FCDFF85493C7F1010807EB0803EA68F0
:105580009BB2934203D3012003B0BDE8F08F2046C5
:105590000AF074FD17F9013F311A4A4620440AF017
:1055A00059FCEAE7022B1BD1D0F80480B94AB8F9BC
:1055B0000030314620460AF04DFC0127DFF8089301
:1055C000EB689F42DFD220460AF058FD0137311ABE
:1055D00038F9023F4A4620440AF03CFCBFB2EFE7EC
:1055E000042B1BD1D0F80480AB4AD8F800303146E8
:1055F00020460AF02FFC0127DFF8D092EB689F428B
:10560000C1D220460AF03AFD0137311A58F8043F5A
:105610004A4620440AF01EFCBFB2EFE7082B40F0D8
:105620008A81D0F804803146D8E900232046CDE9AC
:1056300000239A4A0AF00EFC0127DFF89492EB68E7
:105640009F42A0D220460AF019FDF8E90223311A40
:10565000CDE9002320444A4601370AF0FBFBBFB2E4
:10566000EDE78368012B1CD147688D4A3B783146B2
:1056700020460AF0EFFBDFF85C92C7F1010807EB68
:105680000803EA689BB29342BFF47DAF20460AF05C
:10569000F5FC17F8013F311A4A4620440AF0DAFBBC
:1056A000EDE7022B1CD1D0F804807E4AB8F8003018
:1056B000314620460AF0CEFB0127DFF81892EB684E
:1056C0009F42BFF460AF20460AF0D8FC0137311A80
:1056D00038F8023F4A4620440AF0BCFBBFB2EEE76E
:1056E000042B1CD1D0F804806F4AD8F80030314622
:1056F00020460AF0AFFB0127DFF8DC91EB689F4200
:10570000BFF441AF20460AF0B9FC0137311A58F80E
:10571000043F4A4620440AF09DFBBFB2EEE7082B47
:1057200040F00981D0F804803146D8E900232046B2
:10573000CDE900235D4A0AF08DFB0127DFF89C913B
:10574000EB689F42BFF41FAF20460AF097FCF8E9D0
:105750000223311ACDE9002320444A4601370AF0DA
:1057600079FBBFB2ECE74768514A3B7831462046A7
:105770000AF070FBDFF86891C7F1010807EB080336
:10578000EA689BB29342BFF4FEAE20460AF076FC74
:1057900017F8013F311A4A4620440AF05BFBEDE757
:1057A0004768444A3B78314620460AF053FBDFF80D
:1057B0003491C7F1010807EB0803EA689BB29342F2
:1057C000BFF4E1AE20460AF059FC17F8013F311A48
:1057D0004A4620440AF03EFBEDE74368364A31462C
:1057E00020460AF037FBCEE6D0F804A0334F9AF8F3
:1057F0000030DFF8F480324A002B14BF3B464346AA
:10580000314620460AF026FBD146DFF8E0B0CAF167
:1058100001034B44EA689BB29342BFF4B4AE204606
:105820000AF02CFC19F8013F311A002B14BF3B463B
:1058300043465A4620440AF00DFBE8E7D0F80490AE
:105840000127D9F8000007F0B1FB1E4ACDE900019D
:10585000314620460AF0FEFADFF894A0EB689F423A
:10586000BFF491AE20460AF009FCA6EB000B04EB56
:10587000000859F8040F07F099FB0137CDE9000142
:105880005246594640460AF0E5FABFB2E6E700BF85
:1058900015550200215502002A5502003955020013
:1058A0004A55020057550200615502007155020029
:1058B000835502008F55020099550200C65502001B
:1058C000A3550200AF5502001D55020034550200D9
:1058D00044550200535502006C5502007D550200EC
:1058E0008B5502008C5502000F550200AB5502008B
:1058F000B8550200D0F804803146D8E9002320468C
:10590000CDE900230D4A0AF0A5FA0127DFF830900F
:10591000EB689F42BFF437AE20460AF0AFFBF8E9D0
:105920000223311ACDE9002320444A4601370AF008
:1059300091FABFB2ECE7002026E600BFBC5502009A
:10594000B855020038B514461D46FFF7E5FC28B1EE
:105950002A462146BDE83840FFF7ECBD38BD2DE9A9
:10596000F34100240746904601940D4629B120B129
:10597000786800F075F8844202D302B0BDE8F08187
:1059800001AA2146786800F08AF878B1C368866871
:105990005E43B8F1000F06D02B684168324608EB31
:1059A000030008F0C0FD2B681E442E600134DFE7C1
:1059B0002DE9F74300248846174601940646C0B1F6
:1059C000706800F04DF8844213D201AA2146706835
:1059D00000F065F890B1C3688568D7F800905D4322
:1059E00041682A4608EB090008F08EFD20B100232B
:1059F0003B6003B0BDE8F0834D443D600134DFE718
:105A000007B5002202A941F8042DFFF7A8FF01986D
:105A100003B05DF804FB07B5002202AB43F8042D88
:105A20000A461946FFF79BFF019803B05DF804FB97
:105A3000002307B502AA42F8043DFFF7B9FF019819
:105A4000003018BF012003B05DF804FB08B50C203E
:105A500008F02AFD18B1002303604360836008BD8D
:105A600000B18068704738B50D46044608B900207B
:105A700038BD082008F018FD0028F8D00023436046
:105A80002368056033B92060A36860600133A360B8
:105A9000012038BD6368002BF6D05860F4E798B158
:105AA0002AB121B1106878B14368136008E000683A
:105AB00041B100B9704740680139F9E7002AF3D1D4
:105AC000006870470028F9D17047F8B50D461646B2
:105AD0001F4608B90020F8BD0029FBD00468002C3F
